:020000040804EE
:10000000E8AE01202D2E0508352E0508F7E004087E
:10001000392E05083B2E05083D2E0508000000007E
:100020000000000000000000000000003F2E050856
:10003000412E0508000000005F140508771505082B
:10004000472E0508472E0508472E0508472E0508A8
:10005000472E0508472E0508472E0508472E050898
:10006000472E0508472E0508472E0508472E050888
:10007000472E0508472E0508D9F50408472E050820
:10008000472E0508F1E30408472E0508472E05080A
:1000900081E70408472E0508472E0508472E050866
:1000A000472E0508472E0508472E0508472E050848
:1000B000472E0508472E0508472E0508472E050838
:1000C000472E0508472E0508472E0508472E050828
:1000D000472E050807070508E5E40408CFF60408DD
:1000E000472E0508472E0508472E0508472E050808
:1000F000472E0508472E0508472E0508472E0508F8
:10010000472E0508472E0508472E0508472E0508E7
:10011000472E0508472E0508472E0508472E0508D7
:10012000472E0508472E0508472E0508472E0508C7
:10013000472E0508472E0508472E0508472E0508B7
:1001400033030508472E0508472E0508472E0508E6
:10015000472E0508472E050811060508472E0508F5
:10016000472E0508472E0508472E0508472E050887
:10017000472E0508472E0508472E0508472E050877
:10018000472E050800F002F800F05AF80AA090E89F
:10019000000C82448344AAF10107DA4501D100F042
:1001A0004FF8AFF2090EBAE80F0013F0010F18BFB5
:1001B000FB1A43F001031847289001004890010002
:1001C0000A444FF0000C10F8013B13F0070408BF7D
:1001D00010F8014B1D1108BF10F8015B641E05D01B
:1001E00010F8016B641E01F8016BF9D113F0080FD0
:1001F0001EBF10F8014BAD1C0C1B09D16D1E58BF62
:1002000001F801CBFAD505E014F8016B01F8016B98
:100210006D1EF9D59142D6D370470000002300240B
:1002200000250026103A28BF78C1FBD8520728BF06
:1002300030C148BF0B6070471FB51FBD10B510BD62
:1002400017F033F91146FFF7F7FF00F028F817F021
:1002500051F903B4FFF7F2FF03BC17F059F900009E
:1002600010B50DF071FF0DF076FF10BD00F097FA9C
:1002700000F004FF01F038FB09F0D6FB09F0A9FB00
:1002800003F0A5F803F022FC0AF0DDFA06F0ADF960
:1002900005F047FD02E032200DF0A0F8FBE7002456
:1002A00011F0BCF80446FFF7DBFF0DF097FF0A23BF
:1002B000084A0021AFF24B000DF072FF204611F00A
:1002C000B1F80DF085FF02E00A200DF087F8FBE79A
:1002D00070470000901B0020F94870477CB5054628
:1002E000002400200190F7A00068009001A9284692
:1002F0000DF02BF9044630220421F1481E3017F08E
:1003000080F8C4F10402EE491E315018224601A9BA
:1003100017F000F8EA480099C0F81A107CBD10B533
:1003200086B0E94A07CA03AB07C3E8A103C9CDE910
:10033000010103F00FFC044641F25721E04817F099
:100340008AF81022E349DE480A3016F0E3FF0A2259
:1003500003A9DB4817F023F8D9480199C0F8221007
:10036000BDF80810C1842046FFF7B8FF06B010BDE5
:1003700000B589B0002005900690079008900CF019
:1003800064FB01A804F0AFFD01A80FC8CDE9072365
:10039000CDE90501102205A9C9480A3016F0BAFFB7
:1003A00009B000BD01460020092902DB392900DC23
:1003B000012070470146012070477CB505460C4678
:1003C00000200190C0480C3000680090207801287F
:1003D00002D0022808D104E00120019007F061FE5C
:1003E00002E00020019000BF00BF6078022803D126
:1003F000009800F0EFF900BF00BF0020B649487038
:10040000019804F081FD7CBD7047F8B506460C46A6
:10041000AD481030006800900025605D012804D0D0
:10042000022803D0FE280ED104E00CE0009800F072
:10043000D1F908E0A24890F8AE0020F02001A048D1
:1004400080F8AE1000BF00BF681CC5B2605D012817
:1004500002D0022813D109E0994890F8280020F032
:100460000100401C964981F8280008E0944890F863
:10047000280020F00100924981F8280000BF00BF49
:10048000F8BD38B504460D468F481430006800901A
:10049000009800F09FF938BD2DE9FE4305460E4651
:1004A000894818300068029000200190002781469A
:1004B00080460024009082218148DE3016F0A9FF9A
:1004C00055E04FF00009301900880190002745E001
:1004D00007EB4700814931F81000BDF8041088424D
:1004E0003AD14FF001097648B0F8DE10E030084408
:1004F000BDF804100180A01CC4B2A81E85B27048CB
:10050000B0F8DE00801C6E49A1F8DE0016F8048009
:10051000601CC4B2681E85B20846B0F8DE20E03028
:100520001318311907EB47006C4A02EB4000D0F872
:1005300002C06A464046E04704EB0800C4B2A5EB9F
:10054000080085B25E48B0F8DE009DF8001008444F
:100550005B49A1F8DE0005E0781CC7B2604800786E
:100560008742B5DB00BFB9F1000F00D101E0022DD9
:10057000A7D200BF029800F02DF9BDE8FE8338B580
:1005800005460C4650481C300068009020788DF8D5
:100590000300009800F01EF938BD38B504460D463A
:1005A0004948203000680090009800F013F938BDE9
:1005B0000122494B1A70704773B50D46002400BFE5
:1005C00014E09DF8000004EB8401464A515C884227
:1005D0000AD1BDF8010004EB840113461944D1F897
:1005E00001202946904705E0601CC4B23E480078CF
:1005F0008442E6DB00BF7CBD2DE9F04186B00746B2
:100600000E4600200390049005903C4635880290E9
:100610000190B6F800806FE0B4F8010002902078F5
:10062000682864D1BDF80800FFF7BCFE00285ED042
:10063000BDF80800854259DBBDF80800801E81B274
:1006400020460CF08AFEBDF80810891E615C8842C5
:100650002FD1BDF80800401E205C162829D1206843
:100660000390A088ADF81000A0798DF81200BDF8B5
:1006700010000190BDF80800801E205C8DF813006A
:100680009DF81200FFF796FE48B1DDF80F00E11D5E
:100690000090FFF791FF0020039004900590BDF8B3
:1006A00008000444BDF80800281A85B20020029012
:1006B00022E0641C681E85B2002002901CE016E057
:1006C000942B002030323030448405084344522DAE
:1006D00055310000298600200C0000205C830508AD
:1006E000000000201C8405080100002006E0641CB6
:1006F000681E85B200200290032D8DDA00BF2A46C5
:100700002146384616F006FE3580A8EB050178191B
:1007100016F07FFE06B0BDE8F081ADF6280D00248E
:100720000020059001A80CF095FCDDE90101CDE960
:1007300003019DF80D60FFF7F2FD4FF47A600CF0B5
:100740004DFE00BF0020059006A8021905AB3146FA
:1007500001200DF03FFCBDF81400204484B2B4F534
:10076000016F00D90024BDF8140040B93CB106ADBA
:10077000059405A92846FFF73FFFBDF814400EF089
:1007800017F9FFF7F5FD0AF09BFA0CF01AFD0CF0D3
:1007900017FC0EF039FB0A200CF020FED2E710B552
:1007A0000623034A0021AFF28D000DF0F9FC10BDC5
:1007B000902B0020FE48704710B5FD4800210180B5
:1007C000817001F09DF8FB49086003F0A7F9FA4930
:1007D000086010BD31B5002404E0601CC4B20A20DA
:1007E0000CF0FCFDF548407808B1642CF5DBF348CB
:1007F0000099016038BDF148407870472DE9F0411B
:1008000006460D469046002400BF1022EA480168C3
:1008100001F25111EA4816F07DFD28191022E8492D
:1008200016F078FD10342819E5490A39D1F81A1064
:100830000160241D2919DF480068D0F852010860C2
:10084000241D2819DE490A39D1F81E100160241D23
:100850002919D8480068D0F856010860241D2819C5
:10086000D7490A39D1F822200260C98C8180A41DA1
:100870002819D3490A390A6802604A68426009891E
:1008800001810A340FF0B6FA4FF47A7100FB01F7D8
:1008900028190760241DF01CB480BDE8F0812DE903
:1008A000F04105460E461746002430191022C4496F
:1008B00016F030FD1034E81CAC80BDE8F0812DE965
:1008C000F04105460E461746002430198A22BC49DD
:1008D000223116F01FFD8A34E81CAC80BDE8F0819F
:1008E0002DE9FF4106460D461746002400200290E0
:1008F000039028192822B249AC3116F00BFD283498
:100900002919AF480A38408D0880A41C2919AA4823
:100910000068B0F8CF000880A41C68460CF08DFB7E
:10092000DDE90001CDE9020128190299016003996E
:1009300041600834F01CB480BDE8FF8170B5044606
:100940000D4616469E480A38B0F8DE10E01CA1801D
:10095000A2889B49D631284616F0DCFC70BD2DE9F3
:10096000F04107460D46164600242E55641C302ED5
:1009700004DB02202855601C84B2CEE101202855FA
:10098000601C84B2C6EB86118A48006800F5A87026
:1009900010F8110000F0010020B902202855601C59
:1009A00084B2BAE101202855601C84B22919C6EB33
:1009B00086128048006800F5A87000EB4200B0F88D
:1009C0000B000880A01C84B22919C6EB8612794856
:1009D000006800F5A87000EB4200B0F81100088034
:1009E000A01C84B22919C6EB86127248006800F573
:1009F000A87000EB4200B0F813000880A01C84B27D
:100A0000C6EB86116B48006800F5A87000EB41004A
:100A100090F84A002855601C84B2C6EB86116548E0
:100A2000006800F5A87000EB410090F860002855C0
:100A3000601C84B22919C6EB86125E48006800F576
:100A4000A87000EB4200B0F850000880A01C84B2EF
:100A5000C6EB86115748006800F5A87000EB41000E
:100A600090F852002855601C84B2C6EB861151489C
:100A7000006800F5A87000EB410090F83900285597
:100A8000601C84B22919C6EB86124A48006800F53A
:100A9000A87000EB4200B0F84B000880A01C84B2A4
:100AA000C6EB8613434A126802F5A87202EB4302B2
:100AB00002F119012819202216F02CFC04F1200063
:100AC00084B2C6EB86133B4A126802F5A87202EBA9
:100AD000430202F13A012819102216F01BFC04F11E
:100AE000100084B22919C6EB86123248006800F55E
:100AF000A87000EB4200B0F858000880A01C84B237
:100B00002919C6EB86122B48006800F5A87000EB87
:100B10004200B0F85A000880A01C84B22919C6EB24
:100B200086122448006800F5A87000EB4200B0F877
:100B30005C000880A01C84B22919C6EB86121D48EF
:100B4000006800F5A87000EB4200B0F817000880BC
:100B5000A01C84B22919C6EB86121648006800F55D
:100B6000A87000EB4200B0F815000880A01C84B209
:100B70002919C6EB86120F48006800F5A87000EB33
:100B80004200B0F865000880A01C84B2C6EB861154
:100B90000848006800F5A87000EB410090F8540088
:100BA0002855601C84B2C6EB86110248006809E033
:100BB0000C00002004000020080000200F0000208E
:100BC0009E2B002000F5A87000EB410090F8550026
:100BD0002855601C84B2C6EB8611F848006800F501
:100BE000A87000EB410090F856002855601C84B2B4
:100BF000C6EB8611F148006800F5A87000EB4100D3
:100C000090F857002855601C84B2C6EB8611EB485B
:100C1000006800F5A87000EB410090F85E002855D0
:100C2000601C84B2C6EB8611E448006800F5A87029
:100C300000EB410090F84F002855601C84B2291940
:100C4000C6EB8612DD48006800F5A87000EB420094
:100C5000B0F861000880A01C84B22919C6EB861286
:100C6000D648006800F5A87000EB4200B0F86300B9
:100C70000880A01C84B2C6EB8611D048006800F53D
:100C8000A87000EB410090F85F002855601C84B20A
:100C9000C6EB8611C948006800F5A87000EB41005A
:100CA00090F867002855601C84B2C6EB8611C348D3
:100CB000006800F5A87000EB410090F84D00285541
:100CC000601C84B2C6EB8611BC48006800F5A870B1
:100CD00000EB410090F84E002855601C84B2C6EB32
:100CE0008611B648006800F5A87000EB410090F846
:100CF00053002855601C84B2C6EB8613AF4A1268B5
:100D000002F5A87202EB430202F1680128191622CB
:100D100016F000FB04F1160084B2F81CBC80BDE89C
:100D2000F0812DE9F041A0B007460D469046002421
:100D30000026684604F038F8684607F0F5F80646DD
:100D40002E55641C28193246694616F0E3FA3444DD
:100D500010A807F0E9F806462E55641C28193246FB
:100D600010A916F0D7FA34442819102294490968BA
:100D700001F2511116F0CEFA1034F81CBC8020B0EC
:100D8000BDE8F081F0B504460B460021002000BF0D
:100D90003CE0C1EB8116894D2D6805F5A87515F865
:100DA000165005F001054DB3C1EB8116834D2D683A
:100DB00005F5A87505EB460595F84A501D54451CE8
:100DC000A8B21E18C1EB81177C4D2D6805F5A875DA
:100DD00005EB4705B5F80D503580851CA8B21E18E7
:100DE000C1EB8117754D2D6805F5A87505EB470515
:100DF000B5F80B503580851CA8B205E01D180026FB
:100E00002E602E71451DA8B24D1CE9B23029C0DB01
:100E1000E51CA080F0BD08B56A48006800906A48EB
:100E2000407801280DD141F2883168480CF0BEFAB3
:100E3000012806D1002165480CF0B8FA0098FFF7A8
:100E4000C9FC08BD08B55F48001D006800905E48F9
:100E5000807801280DD141F288315D480CF0A6FA66
:100E6000012806D100215A480CF0A0FA0098FFF79B
:100E7000B1FC08BD08B553480830006800905548DB
:100E8000007801280AD100205249087011F0A7FF0C
:100E90005149086011F0A3FF5049086044F62061F1
:100EA0004D480CF083FA012818D18A224C494D484C
:100EB00016F004FA90B14FF47A7148480CF076FAC3
:100EC00001280BD1002145480CF070FA8A224449D0
:100ED000444816F064FA0098FFF77CFC08BD08B59A
:100EE00038480C30006800903748007898B941F2D3
:100EF00070713D480CF05AFA012802D03B48007846
:100F000048B9002138480CF051FA0098FFF762FC0C
:100F100001203649087008BD2DE9F04106460F460C
:100F20001546002468202855641CB0880930A6F8AE
:100F300001002819B6F801100180A41C2819D6F860
:100F400003100160241DB2882819394616F0E2F911
:100F500030792044C4B2214628460CF0FEF92855C9
:100F6000601CC4B216202855BDE8F081ADF5087D9F
:100F70004FF4807148A816F06EFA4FF4807108A8FB
:100F800016F069FA0020059006900790002401A849
:100F90000CF060F8DDE90101CDE903019DF80D5089
:100FA000FFF70AFC4FF47A600CF018FA00BF104803
:100FB0000078012851D100244AE0000004000020FC
:100FC00008000020908405080C0000201C00002070
:100FD0002000002024000020140000201800002021
:100FE000C02B0020EC450020280000202C00002011
:100FF0000F0000202648407804EB8401254A515C0C
:10100000884223D104EB84001146085C8DF8170058
:101010001F4881788DF81A10C27804EB84001D49AE
:101020000844D0F8013048A905A8984708AA48A95B
:1010300005A8FFF771FF0DF1150308AA2946012045
:101040000CF0B8FF12480021016005E0601CC4B23A
:10105000114800788442CDDB00BF01200F490870A1
:1010600008460078012801D1FFF704FF0DF0A0FC2D
:101070000DF0CAFE0A200CF0B1F998E710B507236D
:10108000074A0021AFF21B100DF08AF810BD0000D6
:101090000F00002068840508130000200C000020C9
:1010A000E845002010B5FFF717F9FE49086010BDAC
:1010B0007CB5002403F056FB019000200090BDF8A1
:1010C00006000A2190FBF1F085B2BDF8040090FB08
:1010D000F1F086B26A46294630460CF013FE04460B
:1010E000BDF90010EF4800684185214601200DF050
:1010F000F5FDEC48006890F8280064F3C300E94966
:10110000096881F82800E748006890F8AD0064F3AA
:101110004510E449096881F8AD007CBD10B5E1488F
:10112000006890F8AD00C0F34000002848D1DD48C9
:10113000006890F8AD0000F00100E0BBD9480068FD
:1011400090F8AE00C0F30010A8BBD6480068416B11
:10115000806B002359405840014331D1D148006889
:10116000416D806D59405840014329D1CD480068F8
:1011700090F8AD00C0F38000E8B9CA48006890F864
:10118000AD00C0F3C000B0B9C648006890F8AD002B
:101190000121B1EBD01F13D0C248006890F8AE0017
:1011A00000F0010038B9BF48006890F8AE00C0F305
:1011B000400000B900E003E001F0A7F801280FD1DA
:1011C000012104200DF08AFDB648006890F8AD00BA
:1011D00020F010001030B349096881F8AD000DE02F
:1011E000002104200DF07AFDAE48006890F8AD00B3
:1011F00020F01001AB48006880F8AD1010BD1FB59D
:1012000068460BF027FFDDE90001CDE90201BDF8DA
:101210000A402146A4480CF0C9F8012810D1002149
:10122000A1480CF0C3F8A148007808B9012000E0FB
:1012300000209E4908700846017805200DF04EFDFB
:101240001FBD10B5FFF734FFFFF768FFFFF7D7FFAB
:1012500010BD10B501200DF09DFD18B39448B0F9F4
:1012600000100088401C00B2914A108096293CDB97
:101270009620114608808B48006890F8280020F0DE
:101280000400001D8749096881F828008548006826
:1012900090F8AD0020F00200801C8249096881F8B6
:1012A000AD0022E08248B0F900100088401E00B274
:1012B0007F4A108011F1960F17DC6FF095001146F0
:1012C00008807848006890F8280020F004007549EC
:1012D000096881F828007348006890F8AD0020F094
:1012E00002017048006880F8AD1010BD10B50020F4
:1012F0000DF050FDC0B16F4890F900100078401C0F
:1013000040B26C4A1070052926DB05201146087092
:101310006448006890F8AD0020F00100401C61496D
:10132000096881F8AD0017E0624890F90010007874
:10133000401E40B25F4A107011F1050F0CDCFB201B
:10134000114608705748006890F8AD0020F0010180
:101350005448006880F8AD1010BD10B502200DF0A3
:1013600019FDC0B1544890F900100078401C40B2FB
:10137000514A1070052926DB05201146087049489E
:10138000006890F8AE0020F0400140314548006808
:1013900080F8AE1017E0484890F900100078401E21
:1013A00040B2454A107011F1050F0CDCFB201146CC
:1013B00008703C48006890F8AE0020F040013948C1
:1013C000006880F8AE1010BD3648006890F8AD0097
:1013D000C0F3400010BB3348006890F8AD0000F047
:1013E0000100D8B92F48006890F8AE00C0F3001093
:1013F000A0B92C48006890F8AD00C0F3800068B92F
:101400002848006890F8AE0000F0010030B9254887
:10141000006890F8AE00C0F3400010B101202749E9
:101420000870704710B5A4B014A809F032FA4FF054
:10143000FF340CA805F0F3F89DF8510000284FD0B8
:101440002B2119A815F0E5FF9DF85100012802D0C5
:10145000022826D10CE001208DF851002F2218A976
:10146000684615F09CFF14A80FC802F0AAFD18E00A
:1014700002208DF851002F2218A9684615F08FFF21
:1014800014A80FC803F0B1F80446601C40B12F2225
:1014900018A9684615F083FF14A80FC802F091FD43
:1014A00000BF0DE030000020380000203C0000208C
:1014B0003E000020400000204100002034000020B9
:1014C00000BF402114A815F0C6FF2F2218A96846B6
:1014D00015F065FF14A80FC809F0D1F909F07EFCDA
:1014E0009DF83100D8B105F08BF804F02BFC0020FA
:1014F000FB490968C867C1F880000021F848006806
:101500002C308165C1650020F54A12682C321066C6
:1015100050660022F24909682C318A66CA6624B0F6
:1015200010BD10B50024EE48006890F8AD00C0F37F
:101530004000002851D1EA48006890F8AD0000F062
:101540000100002849D1E648006890F8AE00C0F3D9
:101550000010002841D1E2480068416B806B0023F5
:1015600059405840014338D1DD480168486D896DC4
:1015700000225040514008432FD1D948006890F8CC
:10158000AD00C0F3800040BBD548006890F8AD00C6
:10159000C0F3C00008BBD248006890F8AD0001213C
:1015A000B1EBD01F19D0CE48006890F8AE0000F023
:1015B000010090B9CA48006890F8AE00C0F340003E
:1015C00058B9C7480068C16E006F51405040014390
:1015D00003D100F09AFE012802D10124FFF722FF77
:1015E000204610BD10B5FFF734FEFFF77FFEFFF772
:1015F000B4FEFFF796FFFFF7E7FE10BDB84800689E
:10160000416F806F4FF6FF72504070EA01011DD1AB
:10161000B348006890F8AF0000F0010058B9B04836
:10162000006890F8280020F00200801CAC4909688E
:1016300081F8280014E0AA48006890F8280020F0FB
:101640000200A749096881F8280009E0A448006859
:1016500090F8280020F00200A149096881F82800CC
:10166000704710B503F07EFA9D490968B1F92A1058
:1016700088420BDC9A48006890F8AE0020F0100118
:1016800010319748006880F8AE1012E003F06AFA53
:10169000323893490968B1F92A10884209DD904827
:1016A000006890F8AE0020F010018D48006880F8C6
:1016B000AE1010BD10B50020894909684A6D896DCA
:1016C0000024624061400A4350D1854909684A6B51
:1016D000896B624061400A4348D18149096891F8A9
:1016E000AE10C1F30011002940D17D490A68D16EC6
:1016F000126F61406240114338D17949096891F80D
:10170000AD10C1F3400189BB7549096891F8AD106E
:1017100001F0010151BB72490968B6310A6A496A90
:10172000624061400A4321D16D490968CA6D096E62
:1017300000235A4059400A4318D1694909684A6E42
:10174000896E624061400A4310D16549096891F889
:101750002810C1F3400149B96249097831B960499B
:10176000096891F8AE10C1F3801101B1012010BDDC
:1017700000B589B001A804F052FF5948006890F8FC
:10178000AF0000F0010038B39DF80500C8B104F0C7
:1017900037FF04F0D7FA0021514A1268D167C2F826
:1017A00080104F4A12682C329165D1654C48006810
:1017B0002C30016641660020494909682C31886651
:1017C000C8660020464909682C3108674867444AC2
:1017D00012682C329067D06709B000BD00204049E4
:1017E000096891F8AD10C1F3400189BB3C49096813
:1017F00091F8AD1001F0010151BB3949096891F828
:10180000AE10C1F3001119BB3549096891F8AD104C
:10181000C1F38001E1B93249096891F8AD10C1F313
:10182000C001A9B92E49096891F8AD100122B2EBA7
:10183000D11F0DD02A49096891F8AE1001F00101BD
:1018400031B92749096891F8AE10C1F3400101B1DF
:101850000020704710B500242148006890F8AF00C0
:1018600000F00100B0B100BF06E0224600210320D5
:1018700003F0B6FE601CC4B202F0B3FEA042F4DC7A
:101880001748006890F8AF0020F080011448006805
:1018900080F8AF1010BD10B5FFF7B0FEFFF7E1FE06
:1018A000FFF766FFFFF7D6FF10BDFFF7FBFB4FF416
:1018B000FA700BF093FD00BFFFF7C3FCFFF7EBFFDF
:1018C000FFF790FE04F0D0FE09F018FA09F090FA44
:1018D0000DF06EF80DF098FA0A200BF07FFDEBE7A3
:1018E000300000206801002010B50823034A0021C1
:1018F000AFF249000CF054FC10BD0000744A002007
:10190000FE48704710B541F6F001FC4815F0A3FD04
:10191000FEF7E2FCFA49086010BD70B503460020EE
:10192000092B2ED2DFE803F02D05060708090A0B64
:101930000C0000BF00BF00BF00BF00BF00BF00BF62
:10194000C2EB8215EF4C04EB45040D182D88A4F86A
:101950001150841CE0B2C2EB8215EA4C04EB450442
:101960000D182D88A4F81350841CE0B20D5CC2EB56
:101970008216E44C04EB460484F84A50441CE0B25E
:1019800000E000BF00BF70BD2DE9FC4100200090C9
:1019900001900024FFF722FF012806D0D8480068F4
:1019A00090F8AF0000F0010040B1002000900190DD
:1019B00030208DF800008DF804003FE000243BE06B
:1019C000CF480068D0F87480876F22460125002632
:1019D0002846314615F04CFC08EA000007EA0103EE
:1019E000002250405340184306D09DF80000401C90
:1019F000C0B28DF800001DE0C348005D20B1012891
:101A000009D0022815D10DE09DF80000401CC0B29D
:101A10008DF800000DE09DF80100401CC0B28DF86B
:101A2000010006E09DF80200401CC0B28DF80200E3
:101A300000BF00BF601CC4B2302CC1DBB0480068DE
:101A4000009940F8B11F9DF804100171BDE8FC81B8
:101A50002DE9FC5F002400200090A948006890F860
:101A6000AF0000F0010018B10021A8480BF09EFC67
:101A700000246FE004EB4401A048303000EB41004B
:101A8000407901283ED19E48006890F8AF0000F0F0
:101A90000100E0B94EF660219C480BF087FC01285C
:101AA0004BD197480068D0F874B0D0F878A022469F
:101AB000012500262846314615F0DAFB4BEA0002E4
:101AC0004AEA01038E4800684267836735E08C4824
:101AD0000068D0F874A0D0F878B0224601274FF003
:101AE00000083846414615F0C3FB0A46C1430AEADE
:101AF000010A2BEA020B82480068C0F874A0C0F803
:101B000078B01AE07E480068D0F874A0D0F878B0B9
:101B100022464FF00109002001904846019915F036
:101B2000A7FB0A46C1430AEA010A2BEA020B7448E2
:101B30000068C0F874A0C0F878B0C4EB8411714894
:101B400010F811000121B1EBD01F01D1012000904C
:101B5000601CC4B2302C8DDB69480068416F806F17
:101B600000225140504001430BD06548006890F876
:101B7000AE0020F0080108316148006880F8AE101E
:101B800009E05F48006890F8AE0020F008015C486A
:101B9000006880F8AE105A480099006890F8AE20AE
:101BA00061F382025648006880F8AE20BDE8FC9FD1
:101BB0002DE9F04FB1B00446002005900390049049
:101BC0000290C4EB84114F4810F8110000F001009E
:101BD000B0B14B480068D0F82CB0D0F830A0224605
:101BE000012500262846314615F042FB4BEA00024B
:101BF0004AEA010A42480068C262C0F830A023E005
:101C00003F480068D0F82CA0D0F830B02246012719
:101C10004FF000083846414615F02AFB0A46C143FA
:101C20000AEA010A2BEA020B35480068C0F82CA02A
:101C3000C0F830B0C4EB8412324901EB420101F12B
:101C400011006D2115F0E5FBC4EB84112D4810F84F
:101C50001100C0F34000B8B129480068D0F834B092
:101C6000D0F838A022464FF00109002006904846DF
:101C7000069915F0FDFA4BEA00024AEA01032048F2
:101C80000068426383631AE01D480068D0F834A0FE
:101C9000D0F838B0224601210020CDE907010846DE
:101CA000079915F0E5FA0A46C1430AEA010A2BEA48
:101CB000020B13480068C0F834A0C0F838B0C4EB79
:101CC0008411104810F81100C0F38000A8B10C482E
:101CD0000068D0F854A0D0F858B022460121002066
:101CE000CDE909010846099915F0C2FA4AEA000A45
:101CF0004BEA010B024800680AE00EE0785200202F
:101D000048000020C8530020686B002058000020C5
:101D1000C0F854A0C0F858B017E0FE480068D0F8EA
:101D200054A0D0F858B0224601210020CDE90B0183
:101D300008460B9915F09CFA2AEA00002BEA010BE1
:101D4000F44909684865C1F858B0C4EB8411F248F9
:101D500010F81100C0F3C000C8B1EE480068D0F818
:101D6000D6A0D0F8DAB0224601210020CDE90D013D
:101D700008460D9915F07CFA4AEA000A4BEA010B75
:101D8000E4480068C0F8D6A0C0F8DAB01AE0E1482C
:101D90000068D0F8D6A0D0F8DAB0224601210020A1
:101DA000CDE90F0108460F9915F062FA0A46C143C2
:101DB0000AEA010A2BEA020BD6480068C0F8D6A04E
:101DC000C0F8DAB0C4EB8411D34810F81100C0F3A6
:101DD0000010C8B1CF480068D0F8B6A0D0F8BAB0AB
:101DE000224601210020CDE911010846119915F084
:101DF0003FFA4AEA000A4BEA010BC6480068C0F8FD
:101E0000B6A0C0F8BAB01AE0C2480068D0F8B6A0D0
:101E1000D0F8BAB0224601210020CDE913010846CE
:101E2000139915F025FA0A46C1430AEA010A2BEA7A
:101E3000020BB8480068C0F8B6A0C0F8BAB0C4EB4E
:101E40008411B54810F81100C0F38010C8B1B14832
:101E50000068D0F8C6A0D0F8CAB022460121002000
:101E6000CDE915010846159915F002FA4AEA000A6B
:101E70004BEA010BA7480068C0F8C6A0C0F8CAB07A
:101E80001AE0A4480068D0F8C6A0D0F8CAB022462C
:101E900001210020CDE917010846179915F0E8F94E
:101EA0000A46C1430AEA010A2BEA020B9948006874
:101EB000C0F8C6A0C0F8CAB0C4EB8411964810F8A8
:101EC00011000121B1EBD01F18D192480068D0F861
:101ED000CEA0D0F8D2B022460020CDE919010846A4
:101EE000199915F0C5F94AEA000A4BEA010B89482D
:101EF0000068C0F8CEA0C0F8D2B018E085480068ED
:101F0000D0F8CEA0D0F8D2B0224601210020CDE9F1
:101F10001B0108461B9915F0ABF92AEA00002BEAD1
:101F2000010B7C490968C1F8CE00C1F8D2B0C4EBFE
:101F30008411794800EB4100407800F00100C8B1FD
:101F400074480068D0F85CA0D0F860B02246012147
:101F50000020CDE91D0108461D9915F089F94AEACE
:101F6000000A4BEA010B6B480068C0F85CA0C0F89F
:101F700060B01AE067480068D0F85CA0D0F860B0A4
:101F8000224601210020CDE91F0108461F9915F0C6
:101F90006FF90A46C1430AEA010A2BEA020B5D48BF
:101FA0000068C0F85CA0C0F860B0C4EB84115A4867
:101FB00000EB41004078C0F34000C8B155480068CC
:101FC000D0F83CA0D0F840B0224601210020CDE955
:101FD00021010846219915F04BF94AEA000A4BEA1B
:101FE000010B4C480068C0F83CA0C0F840B01AE0B3
:101FF00048480068D0F83CA0D0F840B02246012103
:102000000020CDE923010846239915F031F90A464D
:10201000C1430AEA010A2BEA020B3E480068C0F8F5
:102020003CA0C0F840B0C4EB84113B4800EB410039
:102030004078C0F30010C0B136480068D0F864B0F2
:10204000D0F868A0224601210020CDE925010846EC
:10205000259915F00DF94BEA00024AEA010A2D48CC
:1020600000684266C0F868A017E02A480068D0F807
:1020700064A0D0F868B0224601210020CDE92701F4
:102080000846279915F0F4F82AEA00002BEA010B1C
:10209000204909684866C1F868B0C4EB84111E483D
:1020A00000EB41004078C0F34010C0B1194800680F
:1020B000D0F844B0D0F848A0224601210020CDE954
:1020C00029010846299915F0D3F84BEA00024AEA9B
:1020D000010A104800684264C0F848A017E00D48A3
:1020E0000068D0F844A0D0F848B022460121002072
:1020F000CDE92B0108462B9915F0BAF82AEA000021
:102100002BEA010B034909684864C1F848B0C4EBE5
:10211000841103E048000020C8530020FE4800EB73
:1021200041004078C0F38010C0B1FC480068D0F88E
:102130004CB0D0F850A0224601210020CDE92D015D
:1021400008462D9915F094F84BEA00024AEA010A74
:10215000F2480068C264C0F850A017E0EF48006879
:10216000D0F84CA0D0F850B0224601210020CDE993
:102170002F0108462F9915F07BF82AEA00002BEA78
:10218000010BE6490968C864C1F850B0C4EB84117A
:10219000E14800EB410040780121B1EBD01F1AD19A
:1021A00003AA02A9FE2001F069F90120234603AA2F
:1021B00000909DF808100CF02AFAD848006890F8B2
:1021C000AE0020F020012031D448006880F8AE1025
:1021D0000020D349087031B0BDE8F08F2DE9FE4FE3
:1021E0000E4614460025C4EB8411CB4810F81100AC
:1021F000C00900287ED1C4EB8411C74800EB410020
:10220000711909880180A81CC5B2C4EB8411C248A9
:1022100010F8110000F0010050B1705DC14908557F
:10222000681CC5B27119BF4A105D2246FFF775FBE5
:10223000BA480068D0F89CB0D0F8A0A02246012788
:102240004FF000083846414615F012F80BEA00003E
:102250000AEA0101002358405940084350D0C4EB1A
:102260008411AD4800EB41004078C0F3800038B9DC
:10227000C4EB8411A84810F8110000F00100D0BB95
:10228000A6480068D0F89CA0D0F8A0B022464FF035
:102290000109002000904846009914F0E9FF0A4621
:1022A000C1430AEA010A2BEA020B9C480068C0F805
:1022B0009CA0C0F8A0B0C4EB8411974800EB41008B
:1022C0004078C0F3C000B0B194480068D0F8A4A032
:1022D000D0F8A8B0224601210020CDE9010108462E
:1022E000019914F0C5FF4AEA000A4BEA010B8B483A
:1022F000006801E007E003E0C0F8A4A0C0F8A8B0BF
:102300002046FFF755FCBDE8FE8F0021002000BFEE
:1023100017E0C1EB8113804A02EB430292F8502090
:10232000C2F380024AB9C1EB81137B4A02EB43023C
:1023300092F85020C2F380120AB1012003E04A1C37
:10234000D1B23029E5DB00BF704710B500247348D7
:102350000168486B896B002358405940084313D1EA
:102360006E480068416D806D5940584001430BD163
:102370006A480168C86E096F58405940084303D144
:10238000FFF7C3FF012800D10124204610BD2DE92D
:10239000F74FAAB00E4614460025002021900120D8
:1023A000209000201E901F9040210EA815F053F899
:1023B0004FF0FF3900200D9000274FF06048705D0E
:1023C00021906D1C6D1C219808287FD2DFE800F059
:1023D0007E041B29374E5C6A04EB8400524901EBF2
:1023E000C00071190988A0F80110A81CC5B204EB3F
:1023F00084004D4901EBC00071190968C0F8031051
:10240000281DC5B262E004EB8400474901EBC0001F
:10241000C01C71190A68426089880181A81DC5B273
:1024200054E004EB8400404901EBC00071190A68D4
:1024300040F80D2F89888180A81DC5B246E004EBC5
:102440008400394901EBC00071190988A0F8131004
:10245000A81CC5B204EB8400334901EBC00071191C
:102460000968C0F81510281DC5B22FE004EB8400E0
:102470002D4901EBC000153071190A684260898846
:102480000181A81DC5B221E004EB8400264901EBBF
:10249000C00071190A680B30426189880183A81D48
:1024A000C5B213E0705D21490870681CC5B22A9856
:1024B00005280AD11E4800EB4400711909880180E3
:1024C000A81CC5B201201B49085500BF00BF1A480F
:1024D000015D2198401E012282401143C8B2164975
:1024E00008550846005D7F2874D10020085504EB8C
:1024F00084000D4A02EBC000411C12220DF13A008B
:1025000014F008FF04EB8401074A02EBC101481CE8
:10251000282114F07EFF11E0C8530020480000205D
:102520003400002078520020C86B00205C0000209E
:10253000A873002008740020986B00202F2212A995
:10254000684614F02CFF0EA80FC802F04EF8814622
:1025500009F1010018B904208DF87800D5E0FFF7E3
:10256000F4FE012803D102208DF87800CDE0F74871
:102570000078012802D0022857D152E01FFA89F1D1
:10258000032002F019FF401C90B901208DF878005B
:10259000224601210020CDE922010846229914F0AB
:1025A00067FEEB4B0CCB10431943E94A03C237E0FB
:1025B0001FFA89F1032002F07FFF0D901FFA89F1C5
:1025C000032002F0F9FE0D99884204DC02208DF808
:1025D000780025E0A9E001208DF87800DD4830F88A
:1025E0001400DD4931F81410884202D1DB48005D47
:1025F000B0B9D94830F81400D64921F814000D9824
:10260000401C80B20D904FF6FF710D98884201D1A9
:1026100001200D901FFA89F203200D9902F03BFE74
:1026200003E001208DF8780000BF00BF9DF878001E
:1026300001286AD1C5480078012802D002281CD19F
:102640000DE0C74801682C31086F496FB84321EA93
:102650000801C34A12682C32106751670DE0C04868
:1026600000682C30016F406F394340EA0800BC4AD3
:1026700012682C321167506700BF00BFB84800686D
:10268000D0F89CA0D0F8A0B0224601210020CDE9CE
:1026900028010846289914F0EBFD4AEA000A4BEAA3
:1026A000010BAF480068C0F89CA0C0F8A0B0AC48CF
:1026B0000068D0F8A4A0D0F8A8B0224601210020DC
:1026C000CDE926010846269914F0D2FD0A46C143F9
:1026D0000AEA010A2BEA020BA1480068C0F8A4A08C
:1026E000C0F8A8B0224601210020CDE92401084607
:1026F000249914F0BDFD0A46C143D043994B0CCB3D
:1027000011401840974AC2E9001000208F49087014
:10271000914921F8140091490855022023461EAA28
:102720000090012020990BF072FF2DB0BDE8F08FD2
:102730002DE9F04F87B00E46144600250020019089
:10274000705D01909DF8040000F0010060B1C4EBE1
:102750008411854810F8110020F00100401CC4EBE2
:102760008412814901F812009DF80400C0F3400072
:1027700098B37B480068D0F87CA0D0F880B022469F
:1027800001274FF000083846414614F071FD0A4613
:10279000C1430AEA010A2BEA020B71480068C0F83B
:1027A0007CA0C0F880B06E480068D0F88CA0D0F84B
:1027B00090B02246B946002002904846029914F093
:1027C00057FD0A46C1430AEA010A2BEA020B644894
:1027D0000068C0F88CA0C0F890B09DF80400C0F369
:1027E000800018B100206149085514E09DF80400EC
:1027F000C0F3C00018B101205C4908550BE09DF8FA
:102800000400C0F3001018B102205849085502E036
:10281000002056490855681CC5B2C4EB84115248C3
:1028200010F8110000F00100F8B1715DC4EB8412E2
:102830004D4800EB42008172681CC5B2C4EB8411A4
:10284000494800EB410071190988A0F80B10A81C39
:10285000C5B2C4EB8411444800EB410071190988EA
:10286000A0F80D10A81CC5B20AE0C4EB84113E48C4
:1028700000EB41000021C0F80A108173681DC5B249
:1028800002F070F8C4EB8412374901EB4201B1F851
:102890000D10884219DC32480068D0F86CA0D0F8DE
:1028A00070B0224601210020CDE9030108460399BA
:1028B00014F0DEFC4AEA000A4BEA010B28480068E3
:1028C000C0F86CA0C0F870B01AE025480068D0F8D5
:1028D0006CA0D0F870B0224601210020CDE905019E
:1028E0000846059914F0C4FC0A46C1430AEA010AE5
:1028F0002BEA020B1A480068C0F86CA0C0F870B050
:10290000C4EB8411184800EB410071190988A0F844
:102910000F10A81CC5B207B0BDE8F08F2DE9F0413B
:1029200006460F4615460024A046C5EB85110E4805
:1029300010F8110020F00100401CC5EB85120A4977
:1029400001F81200152F7DD212E000005C0000207B
:102950005000002048730020A87300200874002055
:102960004800002070010020C8530020686B002040
:10297000DFE807F0680B3F6C6D6E6F70718A8B8CAF
:10298000A6C8F1EFEEEDECEBEA00C5EB8511FE48D1
:1029900000EB410031190988A0F81110A01CC4B245
:1029A000C5EB8511F84800EB410031190988A0F802
:1029B0001310A01CC4B2315DC5EB8512F24800EBC8
:1029C000420080F84A10601CC4B2315DC5EB85122C
:1029D000ED4800EB420080F86010601CC4B2C5EB0B
:1029E0008511E94800EB410090F86000E74948553F
:1029F00074E1C5EB8511E44800EB41003119098809
:102A0000A0F85010A01CC4B2315DC5EB8512DE48A1
:102A100000EB420080F85210601CC4B2315DC5EB7F
:102A20008512D94800EB420080F83910601CC4B20E
:102A3000C5EB8511D44800EB410031190988A0F895
:102A40004B1000E049E1A01CC4B247E100BF00BF49
:102A500000BF00BF00BF082F01D0062000E0022009
:102A60008046C5EB8513C84A02EB43021932FB1EB0
:102A700003EB430302EB43003119424614F04AFCD6
:102A800004EB0800C4B229E100BF00BF0B2F01D046
:102A9000062000E004208046C5EB8513BA4A02EB0D
:102AA00043023A32A7F1090303EB430302EB43006D
:102AB0003119424614F02EFC04EB0800C4B20DE1BB
:102AC000C5EB8511B04800EB410031190988A0F829
:102AD0005810A01CC4B2C5EB8511AB4800EB4100F7
:102AE00031190988A0F85A10A01CC4B2C5EB851191
:102AF000A54800EB410031190988A0F85C10A01C22
:102B0000C4B2EBE0C5EB85119F4800EB41003119E1
:102B10000988A0F81710A01CC4B2C5EB85119A480B
:102B200000EB410031190988A0F81510A01CC4B2AF
:102B3000C5EB8511944800EB410031190988A0F8D4
:102B40006510A01CC4B2C9E0BBE0ACE09DE08EE023
:102B50006EE042E0FFE7305D41B2C5EB85128A4886
:102B600000EB420080F85410601CC4B2305D41B2EA
:102B7000C5EB8512844800EB420080F85510601CBC
:102B8000C4B2305D41B2C5EB85127F4800EB420014
:102B900080F85610601CC4B2305D41B2C5EB85129E
:102BA000794800EB420080F85710601CC4B2305DD9
:102BB00041B2C5EB8512744800EB420080F85E100C
:102BC000601CC4B2315DC5EB85126F4800EB42005A
:102BD00080F84F10601CC4B280E0C5EB85116A48D4
:102BE00000EB410031190988A0F86110A01CC4B2A3
:102BF000C5EB8511644800EB410031190988A0F844
:102C00006310A01CC4B2315DC5EB85125E4800EBB9
:102C1000420080F85F10601CC4B2315DC5EB8512C4
:102C2000594800EB420080F86710601CC4B255E0C0
:102C3000315DC5EB8512544800EB420080F84D1021
:102C4000601CC4B2315DC5EB85124F4800EB4200F9
:102C500080F84E10601CC4B2315DC5EB85124A4845
:102C600000EB420080F85310601CC4B236E0C5EBA4
:102C70008511454800EB410031190A688266898850
:102C8000A0F86C10A01DC4B228E0C5EB85113E4829
:102C900000EB410031190A6840F86E2F8988818065
:102CA000A01DC4B21AE0C5EB8511374800EB410006
:102CB000683031190A68C26089880182A01DC4B2D7
:102CC0000CE0C5EB8511304800EB41003119096873
:102CD000C0F87A10A01DC4B200E000BF00BFBDE87C
:102CE000F0812DE9F04104460E4617461D46092C99
:102CF00013D2DFE804F01205060708090A0B0C00DE
:102D000000BF00BF00BF00BF00BF00BF00BF2A461A
:102D100039463046FFF702FE0AE0C5EB85121A4934
:102D200001EB420101F111006D2114F072FB00BFB3
:102D300000BFBDE8F0812DE9F04180460D46164602
:102D4000002700242F5D641C641C29190F4A905D24
:102D500033463A46FFF7C5FFBDE8F0817CB506462D
:102D60000C4600250020019009A00068009001A9F0
:102D700030460AF0EAFB0546C4EB8412024901EB37
:102D80004201881D302205E0C853002078520020FF
:102D900030323030042114F034FBC4EB8412FE498D
:102DA00001EB4201891DC5F1040288182A4601A9D8
:102DB00014F0B0FAC4EB8411F74800EB410000991D
:102DC000C0F802107CBD2DE9F0410746884600247A
:102DD00000BF13E004EB4401F04800EB41004079F0
:102DE000012809D12246012500262846314614F043
:102DF0003FFA074341EA0808601CC4B2302CE9DB03
:102E000038464146BDE8F0812DE9F04F85B0804657
:102E10000F461646002002900190002400250090E5
:102E200081463D5D641CDE480078854216D0DC4852
:102E300005700021DB4A116051600020DA4A106001
:102E4000506000BF07E04946002000F07DFE09F118
:102E5000010000F0FF09B9F1300FF4DB38190088E8
:102E60000190A01CC4B2A8EB040000287EDD385DF0
:102E7000012804D002283DD004283CD100E000BF46
:102E800032464FF0010A4FF0000B5046594614F0FD
:102E9000EFF9C44B0CCB10431943C24A03C2C149DA
:102EA00003C9FFF790FFBF4A03C2012D21DB01F0E8
:102EB00098FB401CA8421CDD681E81B2032002F072
:102EC00081FB012811D1B748D0E900104FF6FF72FD
:102ED000504070EA01010CD1B24A11605160681E85
:102EE00082B2032002F062FB03E00021AD4A1160D0
:102EF000516000E000BF00BF601CC4B2A8EB04003A
:102F000000283EDD385D012802D0022838D136E0A5
:102F1000324601210020CDE903010846039914F04F
:102F2000A7F9A14B0CCB104319439F4A03C2012DB3
:102F300024DB01F056FB401CA8421FDD681E81B255
:102F4000032002F059FB012814D19748D0E9001062
:102F50004FF6FF72504070EA01010FD10020924AF3
:102F600010605060681E82B2032000E019E002F099
:102F700037FB03E000218C4A1160516000E000BF84
:102F800000BF601CC4B2A8EB0400002809DD38199A
:102F900000880090A01CC4B23146BDF8000000F0CB
:102FA000D3FD25B93146BDF80400FFF7D7FE7F48B1
:102FB0000078A84204D1BDF804007D4921F816002C
:102FC000304600F0B4FD0290BDF80410029888422B
:102FD00004D03146BDF8040000F0B0FDBDF8041087
:102FE00005EB45027348006800F2771000EB4210D1
:102FF00000EB4600018005B0BDE8F08F2DE9F74FEA
:10300000A6B00E4614460025A946012024900020B3
:10301000229023908246402112A814F01CFA6F1EC1
:10302000A84616F805906D1C6D1CB9F1080F1BD24F
:10303000DFE809F095041B29374E5C6A04EB840035
:103040005D4901EBC00071190988A0F80110A81CA6
:10305000C5B204EB8400584901EBC000711909683E
:10306000C0F80310281DC5B279E004EB8400524972
:1030700001EBC000C01C71190A6842608988018197
:10308000A81DC5B26BE004EB84004B4901EBC00006
:1030900071190A6840F80D2F89888180A81DC5B272
:1030A0005DE004EB8400444901EBC000711909881C
:1030B000A0F81310A81CC5B204EB84003E4901EB34
:1030C000C00071190968C0F81510281DC5B246E086
:1030D00004EB8400384901EBC000153071190A680F
:1030E000426089880181A81DC5B238E004EB8400E4
:1030F000314901EBC00071190A680B3042618988BF
:103100000183A81DC5B22AE0705D04EB84012A4A40
:1031100002F83100681CC5B204EB8400114601EBD3
:10312000C00071190988A0F82510A81CC5B2705DEF
:1031300004EB840102EBC10181F82700681CC5B2D1
:10314000269808280AD11D4800EB44007119098807
:103150000180A81CC5B201201949085500BF00BF55
:103160001848005DA9F1010101228A401043154968
:1031700008550846005D7F287DD10020085504EBE6
:1031800084000D4A02EBC000411C12220DF14A00DE
:1031900014F0C0F818E00000C8530020A852002026
:1031A0005D0000206000002068000020AE000020CC
:1031B000D8A300204800002068740020487C00202C
:1031C000A87C00203874002004EB8400844901EBC3
:1031D000C000C07841280BD14FF0030A2F2216A956
:1031E000684614F0DCF812A80FC801F0FEF9074693
:1031F000B9B2504602F0E0F8401C70B10120A04086
:10320000C117784B0CCB104019400023584059404F
:10321000084334D0BAF1030F31D1781C60B304EB0A
:1032200084006F4901EBC00090F82700012826D1E7
:10323000032004EB84016A4A02EBC10181F82700F4
:10324000BAF1030F03D0BAF1040F17D115E02246EB
:103250004FF0010B002025905846259914F008F8EE
:103260000A46C143D0435F4B0CCB114018405D4A26
:10327000C2E9001002E092E001E000BF00BF5A483E
:1032800030F81400594931F81410884202D15848D6
:10329000005DC8B904EB8400514A02EBC00000F1A4
:1032A0000C011C226846079414F079F804EB8400A2
:1032B0004B4A02EBC001282208A814F070F85046CF
:1032C00008A90EC909F020FE04EB8400444901EB73
:1032D000C00090F82700012804D0022803D003285A
:1032E00040D13EE03EE0781C28B33F4830F814005F
:1032F0003E4931F81410884202D13D48005DD0B9F2
:1033000004EB8400364911F83000FF2814D1B9B21B
:10331000504602F08CF9804608F101001FFA80F84F
:103320004FF6FF70804501D14FF00108BAB2414617
:10333000504602F06FF913E0B9B2504602F094F92A
:10334000804608F101001FFA80F84FF6FF708045B3
:1033500001D14FF00108BAB24146504602F076F969
:1033600000E000BF00BF214830F814001E4921F8DA
:10337000140004EB84011A4A02EBC100282114F066
:103380006AF80020194921F8140019490855062047
:10339000234622AA0090012024990BF038F929B085
:1033A000BDE8F08FFEF7AEFA4FF4FA600AF016F8B7
:1033B00000BF09F083FBFEF74BFBFEF7E5FA0BF0CD
:1033C000F7FA0BF021FD0A200AF008F8F1E710B532
:1033D0000423084A0021AFF233000AF0E1FE10BDD9
:1033E0006874002050000020E87B0020487C00200A
:1033F000A87C00207452002010B5FCF76DFFFA493C
:10340000086000F08BFBF949086000F089FB10BDF3
:103410002DE9F05F04464FF00009F3480068D0F84A
:103420007CB0D0F880A022460125002628463146EF
:1034300013F01EFF0BEA00020AEA010300214A40D2
:103440004B401A4317D1E8480068D0F88CB0D0F848
:1034500090A02246012788463846414613F008FFCF
:103460000BEA00020AEA010000235A4058400243D6
:1034700001D14FF001094846BDE8F09F2DE9FE4318
:1034800006460F461546002401F0F0F9804601F08B
:10349000E9FA029001F066FA019000200090D2480B
:1034A0000068B0F8AD004DF28F3108400090281947
:1034B000BDF800100180A41C05F80480641C2819C4
:1034C000BDF808100180A41C2819BDF80410018063
:1034D000A41C2E55641C3C70BDE8FE832DE9F04F02
:1034E0008DB00020049002900390C1480078FFF74F
:1034F0008FFF01280ED102AA04A90020FFF7BEFF0A
:1035000001200090BA48037802AA9DF8101001200B
:103510000BF07DF8B648007800EB4001B54800EBB1
:1035200041000079401CC1B2B148007800EB400274
:10353000B04800EB42000171AD49097801EB41024E
:10354000AC4901EB42004EF6602109F02FFF012843
:103550007DD1A748007800EB4001A64800EB410070
:1035600000790A2873DB0A21A148007800EB4002A9
:10357000A04800EB420001719B480068D0F87CB085
:10358000D0F880A09A4802780124002520462946D8
:1035900013F06EFE0BEA00020AEA010300214A4022
:1035A0004B401A437DD101219148007800EB400245
:1035B000904800EB420041718B480068D0F87CA035
:1035C000D0F880B08A480278012600273046394674
:1035D00013F04EFE2AEA000A2BEA010B824800682B
:1035E000C0F87CA0C0F880B07F480068D0F884B0F4
:1035F000D0F888A07E480278A0464FF000094046E7
:10360000494613F035FE2BEA00002AEA0101764A0A
:1036100012682C329065D16573480068D0F88CA090
:10362000D0F890B07248027801210020CDE90B015A
:1036300008460B9913F01CFE0A46C1430AEA010A28
:103640002BEA020B68480068C0F88CA000E071E02B
:10365000C0F890B064480068D0F894A0D0F898B052
:103660006348027801210020CDE909010846099943
:1036700013F0FEFD0A46C1430AEA010A2BEA020BD7
:1036800059480068C0F894A0C0F898B0564800683F
:10369000D0F89CA0D0F8A0B05548027801210020B5
:1036A00000E02CE0CDE907010846079913F0E0FDA2
:1036B0002AEA000A2BEA010B4B480068C0F89CA0DC
:1036C000C0F8A0B048480068D0F8A4A0D0F8A8B0CE
:1036D0004748027801210020CDE9050108460599F7
:1036E00013F0C6FD0A46C1430AEA010A2BEA020B9F
:1036F0003D480068C0F8A4A0C0F8A8B01AE03C4952
:10370000097801EB41023B4901EB4200002109F03D
:103710004DFE00213648007800EB4002354800EBB2
:10372000420001713248007800EB4002314800EB62
:10373000420041712E480078401C2D49087008460F
:103740000078302801D1002008700DB0BDE8F08F5E
:1037500070B505460E460024FEF7F7FD012803D19B
:10376000285D40F001002855601CC4B201F027FA22
:103770002855601CC4B201F0ADFF2855601CC4B2CE
:1037800002F023F82855601CC4B202F0A5F82855B1
:10379000601CC4B2347070BD1FB50020039001904E
:1037A000029003A901A8FFF7D3FF0320009012485D
:1037B000037801AA9DF80C1001200AF028FF0E489A
:1037C0000078401C0C49087008460078302801D168
:1037D000002008701FBD3EB5012500200190029019
:1037E00000240648047826E07000002074000020C1
:1037F00078000020A8520020790000207A000020E4
:10380000C4EB8411B64810F8110000F0010080B13B
:10381000B44804700078FFF7FBFD012808D1802030
:103820000090B048037801AA294601200AF0EFFE73
:1038300003E0601CC4B2302CE2DB00BFA948007872
:10384000401CA849087008460078302801D10020A3
:1038500008703EBDF0B5A1B0054600240026402109
:1038600011A813F0F8FD00271DB99F48006846888D
:103870000BE0681E81B201A800F090FC402201A973
:1038800011A813F08CFDBDF8586000242AE0FDF764
:1038900048FE28BB9548006890F8AF0000F0010092
:1038A000F0B993480078D8B904EB4401914800EB93
:1038B00041004079A0B98C480068001D00EB44002D
:1038C0000088B0420CD05EB187480068643000EBDD
:1038D000440000884FF6FF71884201D0012703E0C1
:1038E000601CC4B2302CD2DB00BF384621B0F0BD22
:1038F0002DE9F04107460E46154600243555641C57
:1039000000203055012D0DDB00F06BFE401CA8425D
:1039100008DD681E81B2032001F054FE012801D1A8
:10392000FE203055601CC4B200203055012D0DDB47
:1039300000F057FE401CA84208DD681E81B203203B
:1039400001F05AFE012801D1EE203055601CC4B2AE
:103950003C70BDE8F08100B5A3B00020229020901B
:103960002190402110A813F076FD634800780028CC
:1039700065D14FF4C871614809F018FD01285ED186
:1039800000215E4809F012FD5D4801780078401C76
:103990005B4A107005293BDB00201146087059482E
:1039A0000078FFF757FF012823D15648007840B927
:1039B000684600F0D2F84022694610A813F0EFFCE8
:1039C0000BE050480078401E81B2684600F0E6FBEC
:1039D0004022694610A813F0E2FC02208DF8400056
:1039E0002F2214A9684613F0DAFC10A80FC806F0BD
:1039F00085FC44480078401C4249087000F0F1FD05
:103A0000401C40490978884202DC00203D4908708A
:103A100000F0E7FD401C3B49097888420FDD39483A
:103A2000027820A922A8FFF763FFF420009036480F
:103A3000037820AA9DF8881001200AF0E8FD23B041
:103A400000BD90B0202108A813F005FDFFF7D4FCBD
:103A50004FF4FA6009F0C2FC00BF0A212B4809F0BC
:103A6000A5FC012812D10021284809F09FFC6846D6
:103A700002F0D5FD2022694608A813F090FC9DF8BD
:103A8000210008B9FFF767FFFFF728FD3221204822
:103A900009F08CFC012805D100211D4809F086FCA5
:103AA000FFF77AFE64211B4809F080FC012805D14C
:103AB0000021184809F07AFCFFF78DFE0AF078FF24
:103AC0000BF0A2F9052009F089FCC6E710B5052323
:103AD000114A0021AFF295000AF062FB10BD000010
:103AE000C85300207A0000207400002070000020DD
:103AF00034000020A85200207C000020800000201C
:103B000084000020850000207B0000208800002029
:103B1000900000208C000020D4840020FE487047D4
:103B200010B56021FC48001D13F073FC10BD014668
:103B3000F948001D00EB410000887047F64A121D4D
:103B400002EB410210807047F34A643202EB4102FB
:103B500010807047F0480088704710B504463F2237
:103B6000EE49204613F0D6FB10BD2DE9F04387B097
:103B70000025002005900690039004900024002664
:103B80000027804602908146019005A8011907226E
:103B90000D200AF0CEFA03A8011907220D200BF020
:103BA00031FE05A90819052109F09EFB804603A9ED
:103BB0000819052109F098FB814605A8065D03A8B0
:103BC000075D641C241D05A820440088029003A8FA
:103BD000204400880190A52E0BD1BDF80800804537
:103BE00007D1DDF81550072205A90D200BF0FAFDCD
:103BF0000EE0A52F0BD1BDF80400814507D1DDF8FB
:103C00000D50072203A90D200AF088FA00E00125D3
:103C1000284607B0BDE8F08300B5A1B0402111A847
:103C200013F019FCFFF7A1FFBB49088001A8FFF7BB
:103C300094FF402201A911A813F0B1FBBDF8580070
:103C4000B549488021B000BD30B595B04FF4C1747E
:103C50001822B3A10FA813F0A2FB254617200E903F
:103C600000200C900D900A900B90242101A813F0D5
:103C7000F2FB00200090A8480088A04206D117223D
:103C8000AD490FA813F01AFB002861D0A2480480A8
:103C900017220FA9A84813F03DFBA5208DF830008E
:103CA000CDF8315005210CA809F01EFB0090BDF89D
:103CB0000000ADF8350007220CA90D200BF092FD95
:103CC00007220CA90D200AF029FAA5208DF828005A
:103CD000BDF83800ADF8290003210AA809F004FB5B
:103CE0000090BDF80000ADF82B0005220AA91820AD
:103CF0000BF078FD05220AA918200AF00FFAA5207A
:103D00008DF80400BDF838208B490DF1050013F043
:103D100001FBBDF83800401C81B201A809F0E4FAAB
:103D2000009001A9BDF83800401C0844BDF80010FF
:103D30000180BDF83800C01C82B201A921200BF01F
:103D400051FDBDF83820D21C01A921200AF0E6F966
:103D500015B030BD1FB579A207CA01AB07C300205B
:103D60000090072101A809F0BFFA0090BDF80000FB
:103D7000ADF80B00092201A900200BF033FD1FBD97
:103D80007148007870472DE9F04186B0002004901A
:103D90000590029003900024002500260027019042
:103DA0008046009004A80119052218200AF0C1F9E4
:103DB00002A80119052218200BF024FD04A90819F6
:103DC000032109F091FA074602A90819032109F015
:103DD0008BFA804604A8055D02A8065D641CA41C3D
:103DE00004A820440088019002A820440088009084
:103DF000A52D0DD1BDF80400874209D15248BDF868
:103E000011100180052204A918200BF0EBFC12E030
:103E1000A52E0DD1BDF80000804509D14A48BDF856
:103E200009100180052202A918200AF077F902E0A2
:103E300000204549087006B0BDE8F08170B506461F
:103E40000D460024FFF79CFF0446002C06DD1E2CC7
:103E500004DC22463849304613F05CFA2C7070BD01
:103E60002DE9F047C4B0842123A813F0F4FA84218B
:103E700002A813F0F0FA002400260027A046002034
:103E800001908146009000258246FFF779FF0546A4
:103E9000002D71DD1E2D6FDCE81C1FFA80FA23A8AF
:103EA0000119524621200AF044F902A8011952468C
:103EB00021200BF0A7FC6A1C91B223AA101909F06B
:103EC00013FA80466A1C91B202AA101909F00CFA82
:103ED000814623A8065D02A8075D601CC4B2601974
:103EE000C4B223A820440088019002A8204400887E
:103EF0000090A52E2AD1BDF80400804526D12A467F
:103F00000DF18D010C4813F005FA524623A921202A
:103F10000BF068FC30E00000D884002054880020BA
:103F20004344475F4D445F425F42315F3230305F10
:103F30003338362E62696E0036880020A57A6C64AC
:103F4000120401000000000094000020A52F0FD1F2
:103F5000BDF8000081450BD12A460DF10901FA4850
:103F600013F0D8F9524602A921200AF0D7F803E04D
:103F70002946F54813F04DFA44B0BDE8F08730B556
:103F8000ADF5097D05460C464FF40372EF4906A8CE
:103F900013F005FA142101A813F05DFA1D2C08DABC
:103FA00004EBC40006AA02EB4001122201A813F0A0
:103FB000B1F9122201A9284613F0ACF90DF5097DDB
:103FC00030BD0FB430B595B0002011901290139011
:103FD00014900024109000250C900D900E900F90DE
:103FE00018A908A808F04EFE08A80FC8CDE90E23AE
:103FF000CDE90C0111A908190E220CA913F08AF9B8
:104000000E34214611A809F06FF9109011A8204430
:10401000BDF840100180A41C2F221CA9684613F093
:10402000BEF918A80FC806F067FC0546224611A97C
:1040300028460AF073F8A8B2224611A90BF0D2FB69
:1040400015B030BC5DF814FB0FB470B596B02A9D66
:1040500000201290139014901590002411900026C7
:104060000D900E900F9010909DF86900012848D097
:104070009DF86900002844D0C5EB8511B44A881822
:104080003F221AA913F046F92A461AA909A808F0EE
:1040900061FE09A80FC8CDE90F23CDE90D0112A9D2
:1040A00008190E220DA913F035F904F10E00C4B25F
:1040B000214612A809F018F9119012A82044BDF861
:1040C00044100180A01CC4B233221DA9684613F01D
:1040D00066F928461AA90EC906F03DFC0646224696
:1040E00012A930460AF01AF8B0B2224612A90BF013
:1040F00079FBC5EB8511964A88183F221AA913F05F
:1041000009F916B070BC5DF814FB0FB430B58DB072
:10411000209C002009900A900B900C90002508909C
:104120000490059006900790E2B210A9684608F046
:1041300011FE9DE80F00CDE90623CDE9040109A990
:1041400048190E2204A913F0E5F80E35294609A8EE
:1041500009F0CAF8089009A82844BDF82010018089
:10416000AD1C40F2263101EB04102A4609A909F0E2
:10417000D5FF40F2263101EB041188B22A4609A985
:104180000BF030FBC4EB8411714A88183F2210A950
:1041900013F0C0F80DB030BC5DF814FB70B50546E7
:1041A0000C46C4EB84106A4A81183F22284613F05B
:1041B000B1F870BDF0B5B1B000202D902E902F90C9
:1041C000309029902A902B902C9000262890002740
:1041D00027900025142122A813F03DF90024002087
:1041E0001E901F902090219000BFA4E000252DAAD2
:1041F000511940F2263202EB0410102209F099FF07
:1042000029AA511940F2263202EB041010220BF0B9
:10421000F9FA2DA948190E2109F066F8064629A9D0
:1042200048190E2109F060F807460E352DA82844DC
:104230000088289029A8284400882790BDF8A0006D
:1042400086421FD12DA80FC8CDE92023CDE91E013C
:10425000BDF88400ADF800000EA81EA90EC908F034
:10426000D3FDC4EB84113A4A88183F220EA913F0FB
:1042700051F840F2263101EB041010222DA90BF069
:10428000B1FA54E0BDF89C0087421FD129A80FC89D
:10429000CDE92023CDE91E01BDF88400ADF8000072
:1042A0000EA81EA90EC908F0AFFDC4EB8411284A60
:1042B00088183F220EA913F02DF840F2263101EBA9
:1042C0000410102229A909F029FF30E0214619A87D
:1042D000FFF755FE142219A922A813F060F8022056
:1042E000C4EB84111A4A11444870C4EB8411114480
:1042F000881C122222A913F00DF8BDF88800B0B175
:10430000C4EB8410124A104400F110012F226846B9
:104310000C9412F0FFFFC4EB84100D4A81183F2269
:104320000EA812F0F7FF0EA80FC8FFF7EEFE0AF076
:104330006BFD601CC4B20748B0F8CF00A0423FF745
:1043400055AF31B0F0BD000036880020A0840508CC
:1043500093880020D884002070B5B0B0402120A8F8
:1043600013F079F800201C901D901E901F9018905B
:1043700019901A901B900024002517900026169083
:1043800012901390149015901CA80119102240F25D
:10439000163009F0CEFE18A80119102240F216308E
:1043A0000BF030FA1CA908190E2108F09DFF0546F4
:1043B00018A908190E2108F097FF06460E341CA80C
:1043C00020440088179018A8204400881690BDF853
:1043D0005C0085421AD11CA80FC8CDE91423CDE991
:1043E0001201BDF85400ADF8000002A812A90EC9D0
:1043F00008F00AFD3F2202A9FE4812F08BFF1022AE
:104400001CA940F216300BF0EDF92DE0BDF8580074
:1044100086421AD118A80FC8CDE91423CDE912019C
:10442000BDF85400ADF8000002A812A90EC908F0AA
:10443000EBFC3F2202A9EF4812F06CFF102218A9F2
:1044400040F2163009F06AFE0EE001208DF881007E
:10445000C820ADF882002F2224A9684612F09FFFE1
:1044600020A80FC8FFF7ADFD30B070BD11B583B007
:104470000020029001900024BDF80C00DE49A1F854
:10448000CF0002A82044BDF80C100180A41C02211A
:1044900002A808F029FF019002A82044BDF80410EA
:1044A0000180A41C042202A940F2F12009F036FE8A
:1044B000042202A940F2F1200BF094F91FBD10B5BF
:1044C000A2B0402112A812F0C6FF002414210DA8AA
:1044D00012F0C1FF02208DF8490000BF1DE0214607
:1044E00008A8FFF74CFD142208A90DA812F057FFE9
:1044F00012220DA90DF14A0012F00CFFE0B22F229A
:1045000016A90C90684612F04AFF12A80FC8FFF7D0
:104510009BFD0AF079FC601C84B21D2CDFDB22B00D
:1045200010BD70B586B00020059004900390002463
:10453000002502900026019004A80119042240F2EF
:10454000F12009F0F6FD03A80119042240F2F12040
:104550000BF058F904A90819022108F0C5FE054618
:1045600003A90819022108F0BFFE0646A41C04A8EE
:1045700020440088029003A8204400880190BDF8E0
:104580000800854208D104980590042204A940F24D
:10459000F1200BF027F913E0BDF80400864208D1A2
:1045A00003980590042203A940F2F12009F0B6FD1A
:1045B00006E01D200590FFF782FF1D20FFF756FF44
:1045C000BDF814001D2803D01D200590FFF74EFFF5
:1045D000BDF814008849A1F8CF00BDF8140006B05A
:1045E00070BD8548B0F8CF0070470FB470B5A0B06B
:1045F0006FF001050024FFF7F4FF0646402110A8E4
:1046000012F029FF1D2E1ADB651E00BF14E02146A3
:104610006846FFF7C3FD4022694610A812F0BFFEAE
:1046200012220DF192010DF1420012F047FE08B97D
:1046300025B203E0601C84B2B442E8DB06E0FFF779
:104640003EFF1D20FFF712FF6FF00105A81C48B9BF
:104650002F2228A9684612F0A2FE24A80FC8FFF74F
:10466000C4FF0546284620B070BC5DF814FB11B5A8
:1046700083B0002001900290009000245E480399CE
:10468000C0F8CB1001A801195B48D0F8CB00086036
:10469000241D214601A808F027FE009001A820440F
:1046A000BDF800100180A41C062201A940F2E650CA
:1046B00009F034FD062201A940F2E6500BF092F811
:1046C0001FBD70B588B04D48006807900020059068
:1046D000069003900490002400250290002601908B
:1046E000062205A940F2E65009F023FD062203A99F
:1046F00040F2E6500BF086F8042105A808F0F4FD1E
:104700000546042103A808F0EFFD0646241D05A870
:1047100020440088029003A8204400880190BDF83E
:10472000080085420AD134480599C0F8CB1006220A
:1047300005A940F2E6500BF055F811E0BDF8040071
:1047400086420AD12C480399C0F8CB10062203A94F
:1047500040F2E65009F0E2FC02E00798FFF787FF1D
:1047600008B070BD08B52448D0F8CB00009008BD53
:104770007CB5054600200190009000241E4880F87A
:10478000C45001A801191C4890F8C4000870641CAA
:10479000214601A808F0A8FD009001A82044BDF81A
:1047A00000100180A41C224601A940F2EC5009F03F
:1047B000B5FC224601A940F2EC500BF013F87CBD89
:1047C0002DE9FF415F250020039002900024002680
:1047D000019000270090032203A940F2EC5009F059
:1047E000A8FC032202A940F2EC500BF00BF80121C7
:1047F00003A805E054880020D8840020AC86050872
:1048000008F072FD0646012102A808F06DFD07467A
:10481000641C03A820440088019002A8204400885A
:104820000090BDF8040086420BD1FE489DF80C10A4
:1048300080F8C410032203A940F2EC500AF0D2FF22
:1048400012E0BDF8000087420BD1F6489DF8081031
:1048500080F8C410032202A940F2EC5009F05EFC7B
:1048600002E02846FFF784FFBDE8FF81ED4890F89D
:10487000C40070477CB505460020019000900024DC
:10488000E848A0F8C55001A80119E648B0F8C500ED
:104890000880A41C214601A808F026FD009001A86C
:1048A0002044BDF800100180A41C224601A940F25A
:1048B000EF5009F033FC224601A940F2EF500AF014
:1048C00091FF7CBD2DE9FF414FF416750020039048
:1048D000029000240026019000270090042203A9E2
:1048E00040F2EF5009F025FC042202A940F2EF50FB
:1048F0000AF088FF022103A808F0F6FC0646022110
:1049000002A808F0F1FC0746A41C03A82044008874
:10491000019002A8204400880090BDF8040086425F
:104920000BD1C048BDF80C10A0F8C510042203A993
:1049300040F2EF500AF056FF12E0BDF80000874247
:104940000BD1B848BDF80810A0F8C510042202A980
:1049500040F2EF5009F0E2FB02E02846FFF78AFF41
:10496000BDE8FF81AF48B0F8C50070477CB505468B
:104970000020019000900024AA48A0F8C75001A888
:104980000119A848B0F8C7000880A41C214601A856
:1049900008F0AAFC009001A82044BDF80010018096
:1049A000A41C224601A940F2F35009F0B7FB2246AD
:1049B00001A940F2F3500AF015FF7CBD2DE9FF413B
:1049C0004FF44875002003900290002400260190C7
:1049D0000027009003A80119042240F2F35009F0C7
:1049E000A8FB02A80119042240F2F3500AF00AFFC2
:1049F00003A90819022108F077FC064602A9081944
:104A0000022108F071FC0746A41C03A8204400887A
:104A1000019002A8204400880090BDF8040086425E
:104A20000BD18048BDF80C10A0F8C710042203A9D0
:104A300040F2F3500AF0D6FE12E0BDF800008742C3
:104A40000BD17848BDF80810A0F8C710042202A9BD
:104A500040F2F35009F062FB02E02846FFF786FFC0
:104A6000BDE8FF816F48B0F8C70070477CB50546C8
:104A700000200190009000246A48A0F8C95001A8C5
:104A800001196848B0F8C9000880A41C214601A893
:104A900008F02AFC009001A82044BDF80010018015
:104AA000A41C224601A940F2F75009F037FB224628
:104AB00001A940F2F7500AF095FE7CBD2DE9FF41B7
:104AC0004FF42F75002003900290002400260190DF
:104AD0000027009003A80119042240F2F75009F0C2
:104AE00028FB02A80119042240F2F7500AF08AFEBE
:104AF00003A90819022108F0F7FB064602A90819C4
:104B0000022108F0F1FB0746A41C03A820440088FA
:104B1000019002A8204400880090BDF8040086425D
:104B20000BD14048BDF80C10A0F8C910042203A90D
:104B300040F2F7500AF056FE12E0BDF8000087423E
:104B40000BD13848BDF80810A0F8C910042202A9FA
:104B500040F2F75009F0E2FA02E02846FFF786FF3C
:104B6000BDE8FF812F48B0F8C90070473EB5054643
:104B7000002001900290009000242A4880F85A53A7
:104B800001A80119274890F85A030870641C2146AF
:104B900001A808F0A9FB009001A82044BDF800106E
:104BA0000180A41C224601A940F2FB5009F0B6FA8C
:104BB000224601A940F2FB500AF014FE3EBD1948FE
:104BC00090F85A037047F0B587B00825002005908B
:104BD0000690039004900024002602900027019084
:104BE00005A80119052240F2FB5009F0A2FA03A81A
:104BF0000119052240F2FB500AF004FE05A908192C
:104C0000012108F071FB064603A90819012108F0EB
:104C10006BFB0746641C05A820440088029003A88B
:104C2000204401E0D884002000880190BDF80800ED
:104C300086420BD1F9489DF8141080F85A130522CA
:104C400005A940F2FB500AF0CDFD12E0BDF80400CA
:104C500087420BD1F1489DF80C1080F85A130522B9
:104C600003A940F2FB5009F059FA02E02846FFF789
:104C70007DFF07B0F0BD0FB410B5A2B0842101A82C
:104C800012F0E9FB002000900024802224A9E348D0
:104C9000D13012F03FFB01A908198022DF49D13140
:104CA00012F038FB04F18000C4B2214601A808F0DC
:104CB0001BFB009001A82044BDF800100180A01C3F
:104CC000C4B2224601A9B72009F028FA224601A958
:104CD000B7200AF087FD22B010BC5DF814FB70B558
:104CE000ADF5007D8022CE4960A812F058FB8421EA
:104CF0003FA812F0B0FB84211EA812F0ACFB0024E8
:104D0000002500201D9000261C903FA8011982223A
:104D1000B72009F00EFA1EA801198222B7200AF066
:104D200071FD3FA90819802108F0DEFA05461EA989
:104D30000819802108F0D8FA064604F18000C4B2B0
:104D40003FA8204400881D901EA8204400881C9085
:104D5000BDF8740085420BD180223FA9AF48D13005
:104D600012F0D8FA82223FA9B7200AF03BFD18E0E2
:104D7000BDF8700086420BD180221EA9A748D13011
:104D800012F0C8FA82221EA9B72009F0C7F908E07C
:104D9000702264A9684612F002FB60A80FC8FFF7F2
:104DA0006AFF0DF5007D70BD10B5044680229B4959
:104DB000D131204612F0AEFA10BD1FB586B01421D5
:104DC00001A812F048FB002000900024102206A940
:104DD000944812F09FFA01A908191022914912F083
:104DE00099FA1034214601A808F07EFA009001A833
:104DF0002044BDF800100180A41C224601A940F205
:104E0000391009F08BF9224601A940F239100AF055
:104E1000E9FC0AB010BD70B594B083A30FCB10AC01
:104E20000FC400200C900D900E900F90142107A835
:104E300012F011FB142102A812F00DFB0024002532
:104E4000002001900026009007A80119122240F2CC
:104E5000391009F06EF902A80119122240F2391036
:104E60000AF0D0FC07A90819102108F03DFA054600
:104E700002A90819102108F037FA0646103407A8CD
:104E800020440088019002A8204400880090BDF8CA
:104E9000040085420BD1102207A9624812F03AFAA9
:104EA000122207A940F239100AF09CFC19E0BDF863
:104EB000000086420BD1102202A95A4812F02AFAA9
:104EC000122202A940F2391009F028F909E010A8CD
:104ED0000FC8CDE90E23CDE90C010CA80FC8FFF7D0
:104EE0006CFF14B070BD10B5044610224D49204629
:104EF00012F010FA10BD08B5484890F86101009012
:104F00009DF80010084608BD11B583B0002002903E
:104F10000190002441489DF80C1080F8611102A80E
:104F200001193E4890F861010870641C214602A8EE
:104F300008F0DAF9019002A82044BDF804100180BD
:104F4000A41C224602A9B42009F0E8F8224602A9CE
:104F5000B4200AF047FC1FBD70B586B00020059054
:104F6000049003900024002502900026019004A8DC
:104F700001190322B42009F0DCF803A80119032267
:104F8000B4200AF03FFC04A90819012108F0ACF98B
:104F9000054603A90819012108F0A6F90646641C74
:104FA00004A820440088029003A8204400880190AF
:104FB000BDF8080085420AD118489DF8101080F805
:104FC0006111032204A9B4200AF00CFC13E0BDF81F
:104FD000040086420AD111489DF80C1080F8611136
:104FE000032203A9B42009F099F804E000200590F9
:104FF0000598FFF789FF094890F86101012801D160
:1050000003F04FF806B070BD10B5044640220549C4
:105010001131204612F07EF910BD0000D884002026
:10502000B0860508298600204731313532313030CD
:10503000303030303030303130B59BB0054624212F
:1050400012A812F008FA0024002011904022FE4914
:1050500001A812F05FF92022294601A812F05AF99E
:1050600012A90819202201A912F054F9203421466E
:1050700012A808F039F9119012A82044BDF8441084
:105080000180A41C224612A940F24B1009F046F8F8
:10509000224612A940F24B100AF0A4FB402201A9BB
:1050A000E94812F037F91BB030BD70B59CB024212F
:1050B00013A812F0D0F924210AA812F0CCF9002488
:1050C000002500200990002608902022DF4968462C
:1050D00012F065F913A80119222240F24B1009F0D1
:1050E00028F80AA80119222240F24B100AF08AFB84
:1050F00013A90819202108F0F7F805460AA908198C
:10510000202108F0F1F80646203413A82044008836
:1051100009900AA8204400880890BDF82400854220
:105120000BD1202213A9C84812F0F4F8222213A9A7
:1051300040F24B100AF056FB12E0BDF82000864208
:105140000BD120220AA9C04812F0E4F822220AA9B1
:1051500040F24B1008F0E2FF02E06846FFF76CFFF8
:105160001CB070BD30B59BB00546242112A812F0CA
:1051700072F90024002011904022B34901A812F0D6
:10518000C9F82022294609A812F0C4F812A9081962
:10519000202209A912F0BEF82034214612A808F0F6
:1051A000A3F8119012A82044BDF844100180A41C5B
:1051B000224612A940F26D1008F0B0FF224612A953
:1051C00040F26D100AF00EFB402201A99E4812F039
:1051D000A1F81BB030BD70B59CB0242113A812F00B
:1051E0003AF924210AA812F036F9002400250020FB
:1051F000099000260890202294492031684612F038
:10520000CEF813A80119222240F26D1008F091FF88
:105210000AA80119222240F26D100AF0F3FA13A92C
:105220000819202108F060F805460AA9081920216C
:1052300008F05AF80646203413A820440088099044
:105240000AA8204400880890BDF8240085420CD1AB
:10525000202213A97C48203012F05CF8222213A9E6
:1052600040F26D100AF0BEFA13E0BDF8200086424D
:105270000CD120220AA97448203012F04BF82222C7
:105280000AA940F26D1008F049FF02E06846FFF7F6
:1052900069FF1CB070BD77B583B006461446002088
:1052A000029000250190032E02D0042E09D107E0C0
:1052B000BDF810106448983000EB4400018000E015
:1052C00000BF00BFBDF81000ADF80800A81CC5B2B3
:1052D000294602A808F008F8019002A82844BDF861
:1052E00004100180A81CC5B2032E02D0042E13D1D5
:1052F00011E040F2412101EB84002A4602A908F0A6
:105300000DFF40F2412101EB840188B22A4602A937
:105310000AF068FA00E000BF00BF06B070BD77B5C4
:1053200083B0064614460020029000250190032E0B
:1053300002D0042E09D107E0BDF9101042484030D8
:1053400000EB4400018000E000BF00BFBDF9100089
:10535000401C20B9224600213046FFF79CFFBDF8D3
:105360001000ADF80800A81CC5B2294602A807F035
:10537000BBFF019002A82844BDF804100180A81CBE
:10538000C5B2032E02D0042E13D111E040F29111C8
:1053900001EB84002A4602A908F0C0FE40F29111F8
:1053A00001EB840188B22A4602A90AF01BFA00E048
:1053B00000BF00BF06B070BD02464FF0FF30032AA9
:1053C00002D0042A08D106E01F4B403303EB41030F
:1053D000B3F9000000E000BF00BF70472DE9FF41B6
:1053E00000200390029000250026002701900090E5
:1053F000002400BF5AE0002540F2911101EB840027
:10540000042203A908F095FE40F2911101EB8401FA
:1054100088B2042202A90AF0F5F9022103A807F0D4
:1054200063FF0646022102A807F05EFF0746AD1C97
:1054300003A828440088019002A82844008800900E
:10544000BDF80400864203E03A8600203087050854
:105450000FD1FE4800EB4400BDF80C10018040F273
:10546000911101EB840188B2042203A90AF0BAF970
:1054700018E0BDF8000087420ED1F44800EB44006C
:10548000BDF80810018040F2911101EB8400042264
:1054900002A908F043FE05E022464FF0FF31032049
:1054A000FFF73DFF09F0B0FC601C84B2FFF799F8EC
:1054B000A042A0DCBDE8FF810246032A02D0042AF4
:1054C00008D105E0E148583000EB41000088704702
:1054D0000020FCE70020FAE72DE9FF4100200390BF
:1054E000029000250026002701900090002400BFB4
:1054F00056E0002540F2412101EB8400042203A97B
:1055000008F017FE40F2412101EB840188B2042229
:1055100002A90AF077F9022103A807F0E5FE064682
:10552000022102A807F0E0FE0746AD1C03A82844AC
:105530000088019002A8284400880090BDF804006B
:10554000864210D1C148583000EB4400BDF80C1021
:10555000018040F2412101EB840188B2042203A9B9
:105560000AF040F918E0BDF8000087420FD1B748B3
:10557000583000EB4400BDF80810018040F2412192
:1055800001EB8400042202A908F0C8FD04E02246D1
:1055900000210320FFF77FFE09F036FC601C84B277
:1055A000FFF71FF8A042A4DCBDE8FF81032802D06A
:1055B000042805D103E0A54BB033995400E000BFA7
:1055C00000BF70470246032A02D0042A06D103E036
:1055D0009E48B030405C70470020FCE70020FAE7AE
:1055E000032802D0042805D103E0984BDC339954FA
:1055F00000E000BF00BF70470246032A02D0042A21
:1056000006D103E09148DC30405C70470020FCE7A5
:105610000020FAE7032802D0042806D104E08C4BCE
:1056200003EB4203198000E000BF00BF7047024651
:10563000032A02D0042A07D104E0854800EB410088
:10564000008870470020FCE70020FAE7032802D01A
:10565000042807D105E07E4B583303EB4203198041
:1056600000E000BF00BF70470246032A02D0042AB0
:1056700008D105E07648583000EB410000887047BB
:105680000020FCE70020FAE77CB5054600200190E9
:10569000009000246F4880F85B5301A801196D4801
:1056A00090F85B030870641C214601A807F01CFEFB
:1056B000009001A82044BDF800100180A41C2246DF
:1056C00001A9600208F02AFD224601A960020AF041
:1056D00089F87CBD5F4890F95B0370472DE9FF4175
:1056E0003C25002003900290002400260190002712
:1056F000009003A801190322500208F01AFD02A825
:105700000119032250020AF07DF803A908190121AA
:1057100007F0EAFD064602A90819012107F0E4FD99
:105720000746641C03A820440088019002A8204476
:1057300000880090BDF8040086420AD145489DF8D3
:105740000C1080F85B13032203A950020AF04AF8F8
:1057500011E0BDF8000087420AD13E489DF80810CC
:1057600080F85B13032202A9500208F0D7FC02E084
:105770002846FFF789FFBDE8FF817CB5054600207C
:10578000019000900024334880F85C5301A801196F
:10579000304890F85C030870641C214601A807F0AB
:1057A000A3FD009001A82044BDF800100180A41CB6
:1057B000224601A940F2036008F0B0FC224601A98C
:1057C00040F203600AF00EF87CBD224890F95C03B9
:1057D00070472DE9FF410F2500200390029000241F
:1057E000002601900027009003A80119032240F22F
:1057F000036008F09EFC02A80119032240F2036036
:105800000AF000F803A90819012107F06DFD06460A
:1058100002A90819012107F067FD0746641C03A8C7
:1058200020440088019002A8204400880090BDF820
:105830000400864213D107489DF80C1080F85C13D1
:10584000032203A940F2036006E000007A860020EC
:1058500082870020D884002009F0C4FF12E0BDF840
:10586000000087420BD16D489DF8081080F85C134A
:10587000032202A940F2036008F050FC02E028462F
:10588000FFF77BFFBDE8FF817CB505460020019056
:1058900000900024614880F85D5301A801195F4819
:1058A00090F85D030870641C214601A807F01CFDF8
:1058B000009001A82044BDF800100180A41C2246DD
:1058C00001A940F2066008F029FC224601A940F235
:1058D000066009F087FF7CBD504890F95D03704772
:1058E0002DE9FF41052500200390029000240026A9
:1058F00001900027009003A80119032240F20660DE
:1059000008F017FC02A80119032240F2066009F012
:1059100079FF03A90819012107F0E6FC064602A950
:105920000819012107F0E0FC0746641C03A8204485
:105930000088019002A8204400880090BDF804006F
:1059400086420BD135489DF80C1080F85D13032278
:1059500003A940F2066009F045FF12E0BDF800001F
:1059600087420BD12D489DF8081080F85D13032263
:1059700002A940F2066008F0D1FB02E02846FFF7DA
:1059800083FFBDE8FF8170B50024002500BF0AE059
:10599000002503E009F038FA681C85B2B5F57A7F76
:1059A000F8DB601C84B2B4F57A6FF1DB70BD10B522
:1059B000FFF7E9FF07F094FBFFF7CEFAFEF7B1FD22
:1059C000FEF7E1F9FEF74CFAFEF7C6FCFEF7F2FB34
:1059D000FEF722F9FEF738F9FFF700FDFFF77CFD2F
:1059E00006F0D1FBFEF76DFEFEF7EAFEFEF76AFF5A
:1059F000FEF7E4FFFFF762F8FFF7E5F8FFF76EFE4A
:105A0000FFF7E7FEFFF76CFFFFF769F9FFF703FA0F
:105A1000FFF74BFBFFF7DFFB10BD0000D884002031
:105A20002DE9F05F81460E4617464FF0000816F844
:105A30000800012811D1BF483A4601240025D0E9C9
:105A400004BA2046294611F013FC4BEA00024AEA48
:105A50000103B848C0E9042300BF00BFBDE8F09FC0
:105A60002DE9F84F8946144600200090009819F857
:105A70000000012802D0022827D111E0AD482246BB
:105A800001250026D0E906BA2846314611F0F0FB80
:105A90004BEA00024AEA0103A648C0E9062314E0E3
:105AA000A448224601274FF00008D0E906AB38464B
:105AB000414611F0DDFB0A46C1430AEA010A2BEA1E
:105AC000020B9C48C0E906AB00BF00BFBDE8F88FE1
:105AD0002DE9F74F84B014460020009095482246E7
