:020000040804EE
:10000000A06B0120010305080903050885B9040850
:100010000D0305080F030508110305080000000083
:1000200000000000000000000000000013030508AD
:10003000150305080000000033E904084BEA040832
:100040001B0305081B0305081B0305081B03050804
:100050001B0305081B0305081B0305081B030508F4
:100060001B0305081B0305081B0305081B030508E4
:100070001B0305081B0305085DCE04081B030508C8
:100080001B03050875BC04081B0305081B030508B2
:1000900005C004081B0305081B0305081B0305080E
:1000A0001B0305081B0305081B0305081B030508A4
:1000B0001B0305081B0305081B0305081B03050894
:1000C0001B0305081B0305081B0305081B03050884
:1000D0001B0305081B03050869BD040853CF04086A
:1000E0001B0305081B0305081B0305081B03050864
:1000F0001B0305081B0305081B0305081B03050854
:100100001B0305081B0305081B0305081B03050843
:100110001B0305081B0305081B0305081B03050833
:100120001B0305081B0305081B0305081B03050823
:100130001B0305081B0305081B0305081B03050813
:10014000B7DB04081B0305081B0305081B03050890
:100150001B0305081B0305081B0305081B030508F3
:100160001B0305081B0305081B0305081B030508E3
:100170001B0305081B0305081B0305081B030508D3
:100180001B03050800F002F800F05AF80AA090E8F6
:10019000000C82448344AAF10107DA4501D100F042
:1001A0004FF8AFF2090EBAE80F0013F0010F18BFB5
:1001B000FB1A43F001031847B45C0100D45C010052
:1001C0000A444FF0000C10F8013B13F0070408BF7D
:1001D00010F8014B1D1108BF10F8015B641E05D01B
:1001E00010F8016B641E01F8016BF9D113F0080FD0
:1001F0001EBF10F8014BAD1C0C1B09D16D1E58BF62
:1002000001F801CBFAD505E014F8016B01F8016B98
:100210006D1EF9D59142D6D370470000002300240B
:1002200000250026103A28BF78C1FBD8520728BF06
:1002300030C148BF0B6070471FB51FBD10B510BD62
:1002400014F03FF91146FFF7F7FF00F028F814F01B
:100250005DF903B4FFF7F2FF03BC14F065F9000089
:1002600010B50BF0B8FB0BF0BDFB10BD00F08AFA27
:1002700000F010FF01F0ECF908F0A6F808F079F8AA
:1002800002F024FB02F0E6FD08F095FF04F0E5FD26
:1002900004F01DFA02E032200AF06EFDFBE70024B4
:1002A0000EF026FB0446FFF7DBFF0BF0D9FB0A2319
:1002B000084A0021AFF24B000BF0B4FB20460EF0D1
:1002C0001BFB0BF0C7FB02E00A200AF055FDFBE721
:1002D00070470000201B0020F94870477CB5054698
:1002E000002400200190F7A00068009001A9284692
:1002F0000AF0F9FD044630220421F1481E3014F0C2
:100300008CF8C4F10402EE491E315018224601A9AE
:1003100014F00CF8EA480099C0F81A107CBD10B52A
:1003200086B0E94A07CA03AB07C3E8A103C9CDE910
:10033000010102F0BBFD044641F25721E04814F0F0
:1003400096F81022E349DE480A3013F0EFFF0A2244
:1003500003A9DB4814F02FF8D9480199C0F82210FE
:10036000BDF80810C1842046FFF7B8FF06B010BDE5
:1003700000B589B0002005900690079008900AF01B
:1003800060FB01A803F0F6FD01A80FC8CDE9072323
:10039000CDE90501102205A9C9480A3013F0C6FFAE
:1003A00009B000BD01460020092902DB392900DC23
:1003B000012070470146012070477CB505460C4678
:1003C00000200190C0480C3000680090207801287F
:1003D00002D0022808D104E00120019006F033FB8E
:1003E00002E00020019000BF00BF6078022803D126
:1003F000009800F0E3F900BF00BF0020B649487044
:10040000019803F0C9FD7CBD7047F8B506460C465F
:10041000AD481030006800900025605D012804D0D0
:10042000022803D0FE280ED104E00CE0009800F072
:10043000C5F908E0A24890F8AE0020F02001A048DD
:1004400080F8AE1000BF00BF681CC5B2605D012817
:1004500002D0022813D109E0994890F8280020F032
:100460000100401C964981F8280008E0944890F863
:10047000280020F00100924981F8280000BF00BF49
:10048000F8BD38B504460D468F481430006800901A
:10049000009800F093F938BD2DE9FE4305460E465D
:1004A000894818300068029000200190002781469A
:1004B00080460024009082218148DE3013F0B5FF91
:1004C00055E04FF00009301900880190002745E001
:1004D00007EB4700814931F81000BDF8041088424D
:1004E0003AD14FF001097648B0F8DE10E030084408
:1004F000BDF804100180A01CC4B2A81E85B27048CB
:10050000B0F8DE00801C6E49A1F8DE0016F8048009
:10051000601CC4B2681E85B20846B0F8DE20E03028
:100520001318311907EB47006C4A02EB4000D0F872
:1005300002C06A464046E04704EB0800C4B2A5EB9F
:10054000080085B25E48B0F8DE009DF8001008444F
:100550005B49A1F8DE0005E0781CC7B2604800786E
:100560008742B5DB00BFB9F1000F00D101E0022DD9
:10057000A7D200BF029800F021F9BDE8FE8338B58C
:1005800005460C4650481C300068009020788DF8D5
:100590000300009800F012F938BD38B504460D4646
:1005A0004948203000680090009800F007F938BDF5
:1005B0000122494B1A70704773B50D46002400BFE5
:1005C00014E09DF8000004EB8401464A515C884227
:1005D0000AD1BDF8010004EB840113461944D1F897
:1005E00001202946904705E0601CC4B23E480078CF
:1005F0008442E6DB00BF7CBD2DE9F04186B00746B2
:100600000E4600200390049005903C4635880290E9
:100610000190B6F800806FE0B4F8010002902078F5
:10062000682864D1BDF80800FFF7BCFE00285ED042
:10063000BDF80800854259DBBDF80800801E81B274
:1006400020460AF058FBBDF80810891E615C8842FC
:100650002FD1BDF80800401E205C162829D1206843
:100660000390A088ADF81000A0798DF81200BDF8B5
:1006700010000190BDF80800801E205C8DF813006A
:100680009DF81200FFF796FE48B1DDF80F00E11D5E
:100690000090FFF791FF0020039004900590BDF8B3
:1006A00008000444BDF80800281A85B20020029012
:1006B00022E0641C681E85B2002002901CE016E057
:1006C000242B002030323030085405084344522D8A
:1006D00055310000F96F00200C000020745305080C
:1006E00000000020E05305080100002006E0641C23
:1006F000681E85B200200290032D8DDA00BF2A46C5
:100700002146384613F012FE3580A8EB0501781912
:1007100013F08BFE06B0BDE8F081ADF5816D0024CD
:1007200000200190FFF7FBFD4FF47A600AF024FBF4
:1007300000BF0020019002A8021901AB0221012094
:100740000BF0ACF8BDF80400204484B2B4F5806F1F
:1007500000D90024BDF8040040B93CB102AD0194B9
:1007600001A92846FFF748FFBDF804400BF062FDE1
:10077000FFF7FEFD08F058FF0BF088FF0A200AF093
:10078000FBFAD6E710B50623034A0021AFF2750045
:100790000BF048F910BD0000202B0020FE487047E8
:1007A00010B5FD4800210180817000F061FFFB4918
:1007B000086002F065FBFA49086010BD31B50024FD
:1007C00004E0601CC4B20A200AF0D6FAF54840786A
:1007D00008B1642CF5DBF3480099016038BDF1489D
:1007E000407870472DE9F04106460D4690460024BA
:1007F00000BF1022EA480168F131EB4813F096FD82
:1008000028191022E84913F091FD10342819E649FF
:100810000A39D1F81A100160241D2919DF4800682F
:10082000D0F852010860241D2819DF490A39D1F88F
:100830001E100160241D2919D8480068D0F85601FF
:100840000860241D2819D8490A39D1F822200260ED
:10085000C98C8180A41D2819D3490A390A6802600D
:100860004A684260098901810A340CF005FF4FF49F
:100870007A7100FB01F728190760241DF01CB48071
:10088000BDE8F0812DE9F04105460E4617460024EB
:1008900030191022C44913F049FD1034E81CAC8013
:1008A000BDE8F0812DE9F04105460E4617460024CB
:1008B00030198A22BC49223113F038FD8A34E81CF1
:1008C000AC80BDE8F0812DE9F04106460D461746A3
:1008D000002428192822B449AC3113F027FD28340C
:1008E0002919B1480A38408D0880A41C2819AC4940
:1008F0000968B1F86F100180A41CF01CB480BDE839
:10090000F08170B504460D461646A7480A38B0F87F
:10091000DE10E01CA180A288A349D631284613F03E
:1009200005FD70BD2DE9F04107460D461646002431
:100930002E55641C302E04DB02202855601C84B226
:10094000FBE101202855601C84B206EB860000EB19
:10095000C6019248006800F5A87010F8310000F058
:10096000010020B902202855601C84B2E5E1012075
:100970002855601C84B2291906EB860000EBC602DC
:100980008648006800F5A87000EBC200B0F80B00C4
:100990000880A01C84B2291906EB860000EBC60271
:1009A0007E48006800F5A87000EBC200B0F81100A6
:1009B0000880A01C84B2291906EB860000EBC60251
:1009C0007648006800F5A87000EBC200B0F813008C
:1009D0000880A01C84B206EB860000EBC6016F48BD
:1009E000006800F5A87000EBC10090F84A00285597
:1009F000601C84B206EB860000EBC6016748006805
:100A000000F5A87000EBC10090F860002855601C4C
:100A100084B2291906EB860000EBC6025F48006825
:100A200000F5A87000EBC200B0F850000880A01CD0
:100A300084B206EB860000EBC6015848006800F55A
:100A4000A87000EBC10090F852002855601C84B2D9
:100A500006EB860000EBC6015048006800F5A87060
:100A600000EBC10090F839002855601C84B22919A8
:100A700006EB860000EBC6024848006800F5A87047
:100A800000EBC200B0F84B000880A01C84B206EB5B
:100A9000860202EBC603414A126802F5A87202EB15
:100AA000C30202F119012819202213F03FFC04F1BE
:100AB000200084B206EB860202EBC603374A1268B6
:100AC00002F5A87202EBC30202F13A0128191022C2
:100AD00013F02CFC04F1100084B2291906EB8600F7
:100AE00000EBC6022D48006800F5A87000EBC200BC
:100AF000B0F858000880A01C84B2291906EB8600C3
:100B000000EBC6022548006800F5A87000EBC200A3
:100B1000B0F85A000880A01C84B2291906EB8600A0
:100B200000EBC6021D48006800F5A87000EBC2008B
:100B3000B0F85C000880A01C84B2291906EB86007E
:100B400000EBC6021548006800F5A87000EBC20073
:100B5000B0F817000880A01C84B2291906EB8600A3
:100B600000EBC6020D48006800F5A87000EBC2005B
:100B7000B0F815000880A01C84B2291906EB860085
:100B800000EBC6020548006800F5A87000EBC20043
:100B9000B0F86500088009E00C0000200400002087
:100BA000080000200F0000202E2B0020A01C84B283
:100BB00006EB860000EBC601F848006800F5A87057
:100BC00000EBC10090F854002855601C84B206EB7D
:100BD000860000EBC601F148006800F5A87000EB44
:100BE000C10090F855002855601C84B206EB8600C1
:100BF00000EBC601E948006800F5A87000EBC100F1
:100C000090F856002855601C84B206EB860000EB75
:100C1000C601E248006800F5A87000EBC10090F83A
:100C200057002855601C84B206EB860000EBC60115
:100C3000DA48006800F5A87000EBC10090F85E008B
:100C40002855601C84B206EB860000EBC601D34831
:100C5000006800F5A87000EBC10090F84F0028551F
:100C6000601C84B2291906EB860000EBC602CB4853
:100C7000006800F5A87000EBC200B0F861000880C1
:100C8000A01C84B2291906EB860000EBC602C348FB
:100C9000006800F5A87000EBC200B0F8630008809F
:100CA000A01C84B206EB860000EBC601BB480068BE
:100CB00000F5A87000EBC10090F85F002855601C9B
:100CC00084B206EB860000EBC601B448006800F56C
:100CD000A87000EBC10090F867002855601C84B232
:100CE00006EB860000EBC601AC48006800F5A87072
:100CF00000EBC10090F84D002855601C84B206EB53
:100D0000860000EBC601A548006800F5A87000EB5E
:100D1000C10090F84E002855601C84B206EB860096
:100D200000EBC6019D48006800F5A87000EBC1000B
:100D300090F853002855601C84B2F81CBC80BDE8B4
:100D4000F0812DE9F041A0B007460D469046002401
:100D50000026684603F05FF8684605F0B7FD0646D2
:100D60002E55641C28193246694613F0DFFA3444C4
:100D700010A805F0ABFD06462E55641C2819324616
:100D800010A913F0D3FA34442819102284490968B1
:100D9000F13113F0CBFA1034F81CBC8020B0BDE860
:100DA000F081F0B504460B460021002000BF45E06D
:100DB00001EB810505EBC106784D2D6805F5A87599
:100DC00015F8365005F001057DB301EB810505EB03
:100DD000C106724D2D6805F5A87505EBC60595F899
:100DE0004A501D54451CA8B21E1801EB810505EBA5
:100DF000C1076A4D2D6805F5A87505EBC705B5F85F
:100E00000D503580851CA8B21E1801EB810505EB3D
:100E1000C107624D2D6805F5A87505EBC705B5F846
:100E20000B503580851CA8B206E0FFE71D18002690
:100E30002E602E71451DA8B24D1CE9B23029B7DBDA
:100E4000E51CA080F0BD08B55648006800905648E3
:100E5000407801280DD141F28831544809F074FFDF
:100E6000012806D10021514809F06EFF0098FFF7D4
:100E7000A5FC08BD08B54B48001D006800904A4815
:100E8000807801280DD141F28831494809F05CFF92
:100E9000012806D10021464809F056FF0098FFF7C7
:100EA0008DFC08BD08B53F480830006800904148F7
:100EB000007801280AD100203E4908700FF0F9F9A6
:100EC0003D4908600FF0F5F93C49086044F620619F
:100ED000394809F039FF012818D18A2238493948A0
:100EE00013F0F8F990B14FF47A71344809F02CFFFF
:100EF00001280BD10021314809F026FF8A22304910
:100F0000304813F058FA0098FFF758FC08BD08B5B0
:100F100024480C30006800902348007898B941F2CA
:100F20007071294809F010FF012802D02748007885
:100F300048B90021244809F007FF0098FFF73EFC5C
:100F400001202249087008BD2DE9F04106460F46F0
:100F50001546002468202855641CB0880930A6F87E
:100F600001002819B6F801100180A41C2819D6F830
:100F700003100160241DB2882819394613F0D6F9F0
:100F800030792044C4B22146284609F0B4FE2855E1
:100F9000601CC4B216202855BDE8F0810400002072
:100FA00008000020545405080C0000201C000020FC
:100FB0002000002024000020140000201800002041
:100FC000502B00207C450020280000202C00002011
:100FD000ADF5047D4FF4807144A813F048FA4FF446
:100FE000807104A813F043FA00200190029003904E
:100FF0000024FFF7D5FB4FF47A6009F0BDFE00BF77
:1010000029480078012834D100242DE02648407872
:1010100004EB8401254A515C884223D104EB84000F
:101020001146085C8DF807001F4881788DF80A107A
:10103000C27804EB84001D490844D0F8013044A96B
:1010400001A8984704AA44A901A8FFF77DFF0DF164
:10105000050304AA022101200AF010FC1248002115
:10106000016005E0601CC4B2114800788442CDDB09
:1010700000BF01200F49087008460078012801D1FF
:10108000FFF710FF0BF0D6F80BF000FB0A2009F079
:1010900073FEB5E710B50723074A0021AFF2CF0072
:1010A0000AF0C0FC10BD00000F0000202C54050801
:1010B000130000200C0000207845002010B5FFF739
:1010C0000BF9FD49086010BD7CB5002402F054FC0A
:1010D000019000200090BDF806000A2190FBF1F07D
:1010E00085B2BDF8040090FBF1F086B26A4629464D
:1010F00030460AF087FA0446BDF90010EE48006851
:101100004185214601200BF02BFAEB48006890F84E
:10111000280064F3C300E849096881F82800E6481C
:10112000006890F8AD0064F34510E349096881F860
:10113000AD007CBD10B5E048006890F8AD00C0F38C
:101140004000002842D1DC48006890F8AD0000F073
:101150000100D8BBD848006890F8AE00C0F300107A
:10116000A0BBD5480068416B806B002359405840B4
:1011700001432BD1D0480068416D806D59405840E3
:10118000014323D1CC48006890F8AD00C0F3800043
:10119000E0B9C948006890F8AD00C0F3C000A8B934
:1011A000C548006890F8AD000121B1EBD01F0DD00B
:1011B000C148006890F8AE0000F0010030B9BE48A8
:1011C000006890F8AE00C0F3400078B1012104201F
:1011D0000BF0C6F9B848006890F8AD0020F0100098
:1011E0001030B549096881F8AD000DE000210420F8
:1011F0000BF0B6F9B048006890F8AD0020F010018F
:10120000AD48006880F8AD1010BD10B54FF4FA710C
:10121000AA4809F099FD012810D10021A74809F03A
:1012200093FDA748007808B9012000E00020A449F8
:1012300008700846017805200BF092F910BD10B532
:10124000FFF742FFFFF776FFFFF7DFFF10BD10B596
:1012500001200BF0E1F918B39A48B0F900100088AA
:10126000401C00B2974A108096293CDB962011461C
:1012700008809148006890F8280020F00400001DC4
:101280008D49096881F828008B48006890F8AD0006
:1012900020F00200801C8849096881F8AD0022E036
:1012A0008848B0F900100088401E00B2854A1080BE
:1012B00011F1960F17DC6FF09500114608807E48FB
:1012C000006890F8280020F004007B49096881F844
:1012D00028007948006890F8AD0020F002017648B7
:1012E000006880F8AD1010BD10B500200BF094F927
:1012F000C0B1754890F900100078401C40B2724AA5
:101300001070052926DB0520114608706A48006820
:1013100090F8AD0020F00100401C6749096881F891
:10132000AD0017E0684890F900100078401E40B208
:10133000654A107011F1050F0CDCFB201146087096
:101340005D48006890F8AD0020F001015A4800683F
:1013500080F8AD1010BD10B502200BF05DF9C0B1E2
:101360005A4890F900100078401C40B2574A10705B
:10137000052926DB0520114608704F48006890F8C3
:10138000AE0020F0400140314B48006880F8AE10BC
:1013900017E04E4890F900100078401E40B24B4ACA
:1013A000107011F1050F0CDCFB201146087042484B
:1013B000006890F8AE0020F040013F48006880F8D7
:1013C000AE1010BD10B500203B49096891F8AD1072
:1013D000C1F34001002942D13749096891F8AD10A5
:1013E00001F00101D9BB3449096891F8AE10C1F38D
:1013F0000011A1BB30490A68516B926B0024614017
:10140000624011432BD12C4909684A6D896D6240B5
:1014100061400A4323D12849096891F8AD10C1F30E
:101420008001E1B92449096891F8AD10C1F3C00108
:10143000A9B92149096891F8AD100122B2EBD11F79
:101440000DD01D49096891F8AE1001F0010131B9C4
:101450001949096891F8AE10C1F3400119B1012092
:1014600001211B4A117010BD10B5FFF7F0FEFFF708
:101470003BFFFFF770FFFFF7A5FF10BD0E480068A8
:10148000416F806F4FF6FF72504070EA01012CD11E
:101490000948006890F8AF0000F00100D0B9064894
:1014A000006890F8280020F00200801C02490968BA
:1014B00081F8280023E000003000002038000020E0
:1014C0003C0000203E0000204000002041000020A1
:1014D000340000206348006890F8280020F00200E3
:1014E0006049096881F8280009E05E48006890F8C2
:1014F000280020F002005B49096881F82800704745
:1015000010B502F0EBFB57490968B1F92A1088427F
:101510000BDC5448006890F8AE0020F01001103148
:101520005048006880F8AE1012E002F0D7FB323865
:101530004C490968B1F92A10884209DD4948006818
:1015400090F8AE0020F010014648006880F8AE1018
:1015500010BD10B50020434909684A6D896D00240B
:10156000624061400A4350D13E4909684A6B896B29
:10157000624061400A4348D13A49096891F8AE1087
:10158000C1F30011002940D136490A68D16E126FAB
:1015900061406240114338D13249096891F8AD1079
:1015A000C1F3400189BB2F49096891F8AD1001F0E2
:1015B000010151BB2B490968B6310A6A496A624088
:1015C00061400A4321D127490968CA6D096E002389
:1015D0005A4059400A4318D1224909684A6E896E17
:1015E000624061400A4310D11E49096891F82810F1
:1015F000C1F3400149B91C49097831B91949096851
:1016000091F8AE10C1F3801101B1012010BD10B5E9
:10161000FFF734FFFFF774FF10BDFFF74FFD4FF4E6
:10162000FA7009F0A9FB00BFFFF709FEFFF7EFFF13
:10163000FFF71AFF03F063FC08F013F808F08AF8CC
:101640000AF0F8FD0BF022F80A2009F095FBEBE711
:1016500010B50823054A0021AFF241000AF0E2F973
:1016600010BD00003000002030010020044A00209E
:10167000FE48704710B541F2D041FC4812F0F7FE29
:10168000FEF72AFEFA49086010BD70B50346002037
:10169000092B34D2DFE803F03305060708090A0BEB
:1016A0000C0000BF00BF00BF00BF00BF00BF00BFF5
:1016B00002EB820404EBC205EE4C04EBC5040D18EA
:1016C0002D88A4F81150841CE0B202EB820404EBD4
:1016D000C205E84C04EBC5040D182D88A4F813507E
:1016E000841CE0B20D5C02EB820404EBC206E14C08
:1016F00004EBC60484F84A50441CE0B200E000BF8A
:1017000000BF70BD1CB5002000900190002400BFF8
:1017100040E004EB840000EBC401D64830F831000F
:1017200040F2CE31084040B904EB4401CF4830309C
:1017300000EB41004079012806D19DF80300401CD0
:10174000C0B28DF8030023E004EB840000EBC40179
:10175000C84810F8310000F0010030B99DF80000D1
:10176000401CC0B28DF8000012E002F06EF904EBEC
:10177000840101EBC402BF4901EBC20191F84A1098
:10178000884205DC9DF80200401CC0B28DF80200C2
:10179000601CC4B2302CBCDB9DF803009DF8001027
:1017A00008449DF802100844C0F13000C0B28DF822
:1017B000010030208DF80400AD48006890F8AF00BB
:1017C00000F0010038B100200090019030208DF829
:1017D00003008DF80400A6480068009940F8B11F86
:1017E0009DF8041001711CBD2DE9FC5F0024002050
:1017F00000909F48006890F8AF0000F0010018B119
:1018000000219D4809F0A0FA002471E004EB440196
:101810009648303000EB4100407901283ED1944891
:10182000006890F8AF0000F00100E0B94EF66021CA
:10183000914809F089FA01284BD18D480068D0F809
:1018400074B0D0F878A022460125002628463146FB
:1018500012F01AFD4BEA00024AEA010384480068CC
:101860004267836735E082480068D0F874A0D0F8FA
:1018700078B0224601274FF000083846414612F062
:1018800003FD0A46C1430AEA010A2BEA020B784823
:101890000068C0F874A0C0F878B01AE07448006816
:1018A000D0F874A0D0F878B022464FF0010900209B
:1018B00001904846019912F0E7FC0A46C1430AEA42
:1018C000010A2BEA020B6A480068C0F874A0C0F84D
:1018D00078B004EB840000EBC401664810F83100D6
:1018E0000121B1EBD01F01D101200090601CC4B2D6
:1018F000302C8BDB5E480068416F806F00225140C6
:10190000504001430BD05A48006890F8AE0020F0D8
:10191000080108315648006880F8AE1009E05448C4
:10192000006890F8AE0020F008015148006880F887
:10193000AE104F480099006890F8AE2061F3820223
:101940004B48006880F8AE20BDE8FC9F2DE9F04FC1
:10195000B1B004460020059003900490029004EB7F
:10196000840000EBC401434810F8310000F001008E
:10197000B0B13F480068D0F82CB0D0F830A0224673
:10198000012500262846314612F07EFC4BEA000273
:101990004AEA010A36480068C262C0F830A025E071
:1019A00033480068D0F82CA0D0F830B02246012788
:1019B0004FF000083846414612F066FC0A46C14323
:1019C0000AEA010A2BEA020B29480068C0F82CA099
:1019D000C0F830B004EB840101EBC402254901EBEF
:1019E000C20101F11100572112F01FFD04EB840028
:1019F00000EBC4011F4810F83100C0F34000B8B13B
:101A00001B480068D0F834B0D0F838A022464FF018
:101A10000109002006904846069912F035FC4BEA71
:101A200000034AEA010212480068436382631AE035
:101A30000F480068D0F834A0D0F838B02246012111
:101A40000020CDE907010846079912F01DFC0A465F
:101A5000C1430AEA010A2BEA020B05480068C0F8F4
:101A600034A0C0F838B004EB840007E0085200202E
:101A700044000020585300204800002000EBC4011F
:101A8000FE4810F83100C0F38000C8B1FC4800687F
:101A9000D0F854A0D0F858B0224601210020CDE95A
:101AA00009010846099912F0EFFB4AEA000A4BEADD
:101AB000010BF3480068C0F854A0C0F858B01AE011
:101AC000EF480068D0F854A0D0F858B02246012161
:101AD0000020CDE90B0108460B9912F0D5FB0A4610
:101AE000C1430AEA010A2BEA020BE5480068C0F884
:101AF00054A0C0F858B004EB840000EBC401DF48E8
:101B000010F83100C0F3C000C8B1DD480068D0F85B
:101B1000D6A0D0F8DAB0224601210020CDE90D018F
:101B200008460D9912F0B0FB4AEA000A4BEA010B95
:101B3000D3480068C0F8D6A0C0F8DAB018E0D048A2
:101B40000068D0F8D6A0D0F8DAB0224601210020F3
:101B5000CDE90F0108460F9912F096FB2AEA000022
:101B60002BEA010BC6490968C1F8D600C1F8DAB002
:101B700004EB840000EBC401C04810F83100C0F34E
:101B80000010C8B1BE480068D0F8B6A0D0F8BAB00E
:101B9000224601210020CDE911010846119912F0D9
:101BA00073FB4AEA000A4BEA010BB5480068C0F82B
:101BB000B6A0C0F8BAB01AE0B1480068D0F8B6A034
:101BC000D0F8BAB0224601210020CDE91301084621
:101BD000139912F059FB0A46C1430AEA010A2BEA9B
:101BE000020BA7480068C0F8B6A0C0F8BAB004EB72
:101BF000840000EBC401A14810F83100C0F380104C
:101C0000C8B19F480068D0F8C6A0D0F8CAB0224634
:101C100001210020CDE915010846159912F034FB89
:101C20004AEA000A4BEA010B95480068C0F8C6A0D2
:101C3000C0F8CAB01AE092480068D0F8C6A0D0F840
:101C4000CAB0224601210020CDE9170108461799A4
:101C500012F01AFB0A46C1430AEA010A2BEA020BF8
:101C600087480068C0F8C6A0C0F8CAB004EB84007A
:101C700000EBC401814810F831000121B1EBD01F05
:101C800018D17F480068D0F8CEA0D0F8D2B0224654
:101C90000020CDE919010846199912F0F5FA4AEA2F
:101CA000000A4BEA010B76480068C0F8CEA0C0F8E5
:101CB000D2B018E072480068D0F8CEA0D0F8D2B008
:101CC000224601210020CDE91B0108461B9912F094
:101CD000DBFA2AEA00002BEA010B69490968C1F81E
:101CE000CE00C1F8D2B004EB840000EBC40163481D
:101CF00000EBC100407800F00100C0B1604800680E
:101D0000D0F85CB0D0F860A0224601210020CDE9D7
:101D10001D0108461D9912F0B7FA4BEA00024AEA83
:101D2000010A57480068C265C0F860A017E054482F
:101D30000068D0F85CA0D0F860B0224601210020F5
:101D4000CDE91F0108461F9912F09EFA2AEA000009
:101D50002BEA010B4A490968C865C1F860B004EB79
:101D6000840000EBC401454800EBC1004078C0F39B
:101D70004000C8B142480068D0F83CA0D0F840B05C
:101D8000224601210020CDE921010846219912F0C7
:101D90007BFA4AEA000A4BEA010B39480068C0F8AE
:101DA0003CA0C0F840B01AE035480068D0F83CA02C
:101DB000D0F840B0224601210020CDE92301084699
:101DC000239912F061FA0A46C1430AEA010A2BEA92
:101DD000020B2B480068C0F83CA0C0F840B004EBF0
:101DE000840000EBC401254800EBC1004078C0F33B
:101DF0000010C8B122480068D0F864A0D0F868B0DC
:101E0000224601210020CDE925010846259912F03E
:101E10003BFA4AEA000A4BEA010B19480068C0F88D
:101E200064A0C0F868B017E015480068D0F864A056
:101E3000D0F868B0224601210020CDE927010846EC
:101E4000279912F021FA2AEA00002BEA010B0C492B
:101E500009684866C1F868B004EB840000EBC4016F
:101E6000064800EBC1004078C0F34010E8B10448D8
:101E70000068D0F844B0D0F848A003E058530020E0
:101E800044000020224601210020CDE92901084616
:101E9000299912F0F9F94BEA00024AEA010AFE48D0
:101EA00000684264C0F848A018E0FB480068D0F819
:101EB00044A0D0F848B0224601210020CDE92B01F2
:101EC00008462B9912F0E0F9C2430AEA020A2BEA0B
:101ED0000100F1490968C1F844A0886404EB84005A
:101EE00000EBC401ED4800EBC1004078C0F3801066
:101EF000C0B1E9480068D0F84CB0D0F850A02246F4
:101F000001210020CDE92D0108462D9912F0BCF9E0
:101F10004BEA00024AEA010ADF480068C264C0F8DE
:101F200050A01AE0DC480068D0F84CA0D0F850B0BF
:101F3000224601210020CDE92F0108462F9912F0F9
:101F4000A3F90A46C1430AEA010A2BEA020BD24866
:101F50000068C0F84CA0C0F850B004EB840000EB5F
:101F6000C401CE4800EBC10040780121B1EBD01F85
:101F700017D103AA02A9FE2000F0CCFC01202346C1
:101F800003AA00909DF8081009F083FFC24800687A
:101F900090F8AE0020F020012031BF48006880F8A2
:101FA000AE1031B0BDE8F08F2DE9FE4F0E4614465D
:101FB000002504EB840000EBC401B84810F83100A0
:101FC000C00900287ED104EB840000EBC401B348B3
:101FD00000EBC100711909880180A81CC5B204EB8F
:101FE000840000EBC401AD4810F8310000F001009E
:101FF00050B1705DAA490855681CC5B27119A84A4C
:10200000105D2246FFF741FBA3480068D0F89CA072
:10201000D0F8A0B0224601274FF0000838464146CC
:1020200012F032F90AEA00000BEA010B00225040DC
:102030008BEA020B50EA0B0056D004EB840000EB55
:10204000C401964800EBC1004078C0F3800048B955
:1020500004EB840000EBC401904810F8310000F05C
:10206000010080BB8C480068D0F89CA0D0F8A0B0DC
:1020700022464FF00109002000904846009912F0D6
:1020800003F90A46C1430AEA010A2BEA020B824815
:102090000068C0F89CA0C0F8A0B004EB840000EB7E
:1020A000C4017E4800EBC1004078C0F3C00050B1CD
:1020B00079480068D0F8A4A0D0F8A8B02246012141
:1020C000002001E013E00FE0CDE90101084601998D
:1020D00012F0DAF84AEA000A4BEA010B6E4800688F
:1020E000C0F8A4A0C0F8A8B02046FFF72FFCBDE8B8
:1020F000FE8F10B50020684909684A6B896B00247F
:10210000624061400A4307D1634909684A6D896D9D
:10211000624061400A4300D0012010BD2DE9F74F15
:1021200088B014460025002005900120049000206E
:10213000029003900998405D05906D1C6D1C0598F8
:10214000012806D0022805D0032804D0042804D191
:1021500002E002E001E000E000BF00BF5148015D85
:102160000598401E012282401143C8B24D490855CE
:102170000846005D0F2856D100200855FFF7B9FF2B
:10218000012803D102208DF8080044E0424800688D
:10219000D0F89CB0D0F8A0A02246012600273046F7
:1021A000394612F071F84BEA00024AEA01033A4854
:1021B00000682C300267436737480068D0F8A4A055
:1021C000D0F8A8B02246B0464FF000094046494634
:1021D00012F05AF80A46C1430AEA010A2BEA020B36
:1021E0002D480068C0F8A4A0C0F8A8B0224601217C
:1021F0000020CDE906010846069912F045F82A4A62
:10220000D2E9003223EA000022EA0101264A03C291
:1022100001208DF808000220234602AA0090012028
:10222000049909F036FE0BB0BDE8F08F2DE9F84FA8
:102230000E4614460025705D00F0010080B104EBED
:10224000840000EBC401154810F8310020F00100B3
:10225000401C04EB840101EBC402104901F8320078
:10226000681CC5B204EB840000EBC4010B4810F8F5
:10227000310000F0010080B3715D04EB840000EBDD
:10228000C402064800EBC2008172681CC5B204EBB0
:10229000840000EBC40109E04400002058530020F2
:1022A00008520020D866002038010020FE4800EBCC
:1022B000C10071190988A0F80B10A81CC5B204EB65
:1022C000840000EBC401F84800EBC10071190988D3
:1022D000A0F80D10A81CC5B20DE0FFE704EB8400C8
:1022E00000EBC401F04800EBC1000021C0F80A1067
:1022F0008173681DC5B201F017FC04EB840101EB8A
:10230000C402E94901EBC201B1F80D10884216DCA4
:10231000E6480068D0F86CB0D0F870A022460127DB
:102320004FF000083846414611F0AEFF4BEA00027C
:102330004AEA0103DD480068C26603671AE0DB4829
:102340000068D0F86CA0D0F870B022464FF00109B8
:10235000002000904846009911F096FF0A46C143BC
:102360000AEA010A2BEA020BD0480068C0F86CA008
:10237000C0F870B004EB840000EBC401CA4800EB65
:10238000C10071190988A0F80F1000BFBDE8F88FCF
:102390002DE9F04106460F4615460024A04605EB00
:1023A000850000EBC501C04810F8310020F00100A5
:1023B000401C05EB850101EBC502BB4901F8320069
:1023C000112F7BD2DFE807F07A09477B7C7D7E7F87
:1023D000809B9C9DB9E1FEFDFC0005EB850000EBB8
:1023E000C501B14800EBC10031190988A0F81110EE
:1023F000A01CC4B205EB850000EBC501AA4800EBA8
:10240000C10031190988A0F81310A01CC4B2315DB5
:1024100005EB850000EBC502A34800EBC20080F885
:102420004A10601CC4B2315D05EB850000EBC502AB
:102430009D4800EBC20080F86010601CC4B205EB40
:10244000850000EBC501984800EBC10090F86000E2
:102450009749485573E105EB850000EBC5019248AB
:1024600000EBC10031190988A0F85010A01CC4B2BB
:10247000315D05EB850000EBC5028B4800EBC20027
:1024800080F85210601CC4B2315D05EB850000EB92
:10249000C502854800EBC20080F83910601CC4B248
:1024A00005EB850000EBC5017F4800EBC100311949
:1024B0000988A0F84B10A01CC4B240E13EE100BF67
:1024C00000BF00BF00BF00BF082F01D0062000E002
:1024D0000220804605EB850202EBC503724A02EB3F
:1024E000C3021932FB1E03EB430302EB4300311915
:1024F000424611F01BFF04EB0800C4B21FE100BF0D
:1025000000BF0B2F01D0062000E00420804605EB21
:10251000850202EBC503644A02EBC3023A32A7F11B
:10252000090303EB430302EB43003119424611F068
:10253000FDFE04EB0800C4B201E105EB850000EBF1
:10254000C501594800EBC10031190988A0F858109D
:10255000A01CC4B205EB850000EBC501524800EB9E
:10256000C10031190988A0F85A10A01CC4B205EBAB
:10257000850000EBC5014C4800EBC100311909880A
:10258000A0F85C10A01CC4B2D9E005EB850000EBFC
:10259000C501454800EBC10031190988A0F81710A2
:1025A000A01CC4B205EB850000EBC5013E4800EB62
:1025B000C10031190988A0F81510A01CC4B202E0AE
:1025C00097E05CE00DE005EB850000EBC5013648C7
:1025D00000EBC10031190988A0F86510A01CC4B235
:1025E000ADE0305D41B205EB850000EBC5022E4841
:1025F00000EBC20080F85410601CC4B2305D41B2E0
:1026000005EB850000EBC502274800EBC20080F80F
:102610005510601CC4B2305D41B205EB850000EB83
:10262000C502214800EBC20080F85610601CC4B2FD
:10263000305D41B205EB850000EBC5021A4800EBA6
:10264000C20080F85710601CC4B2305D41B205EB87
:10265000850000EBC502144800EBC20080F85E1054
:10266000601CC4B2315D05EB850000EBC5020E486D
:1026700000EBC20080F84F10601CC4B25FE005EBB5
:10268000850000EBC501084800EBC100311909883D
:10269000A0F86110A01CC4B205EB850000EBC501D9
:1026A000014800EBC10005E0585300204400002021
:1026B0000852002031190988A0F86310A01CC4B288
:1026C000315D05EB850000EBC502854800EBC200DB
:1026D00080F85F10601CC4B2315D05EB850000EB33
:1026E000C5027F4800EBC20080F86710601CC4B2CE
:1026F00025E0315D05EB850000EBC502784800EB75
:10270000C20080F84D10601CC4B2315D05EB85003D
:1027100000EBC502724800EBC20080F84E10601C4E
:10272000C4B2315D05EB850000EBC5026C4800EBDF
:10273000C20080F85310601CC4B200E000BF00BFAC
:10274000BDE8F0812DE9F04104460E4617461D46CE
:10275000092C13D2DFE804F01205060708090A0B5A
:102760000C0000BF00BF00BF00BF00BF00BF00BF24
:102770002A4639463046FFF70BFE0CE005EB850193
:1027800001EBC502564901EBC20101F111005721CD
:1027900011F04BFE00BF00BFBDE8F0812DE9F04114
:1027A00080460D461646002700242F5D641C641CDD
:1027B00029194C4A905D33463A46FFF7C3FFBDE8FE
:1027C000F0817CB506460C4600BF0020019046A073
:1027D0000068009001A9304608F085FB054604EB2F
:1027E000840101EBC4023E4901EBC201881D302285
:1027F000042111F012FE04EB840101EBC4023849FC
:1028000001EBC201891DC5F1040288182A4601A9FD
:1028100011F08CFD04EB840000EBC401304800EBA8
:10282000C1000099C0F802107CBD2DE9F843814633
:102830000E4614464FF000080020009000250027A7
:10284000775D6D1C701900880090AD1C27B921467A
:10285000BDF80000FFF7B5FF24480078B84204D166
:10286000BDF80000224921F81400204600F011FBB9
:102870008046BDF80000804504D02146BDF8000028
:1028800000F00EFBBDF8001007EB47021948006886
:1028900000F2771000EB421000EB44000180BDE82D
:1028A000F883FEF7E7FE4FF4FA6008F065FA00BF20
:1028B00008F000F9FEF798FFFEF724FF09F0BAFCD4
:1028C00009F0E4FE0A2008F057FAF1E710B50423F6
:1028D000094A0021AFF2350009F0A4F810BD00004C
:1028E000585300200852002030323030820000203F
:1028F000F08B0020440000200452002010B5FDF7AA
:10290000EBFCFE49086000F0BBFAFD49086000F0EE
:10291000B9FA10BD2DE9FE4306460F4615460024C0
:1029200001F093F8804601F06CF9029001F0FCF898
:10293000019000200090F1480068B0F8AD004DF221
:102940008F31084000902819BDF800100180A41CA8
:1029500005F80480641C2819BDF808100180A41C27
:102960002819BDF804100180A41C2E55641C3C706D
:10297000BDE8FE832DE9F04F87B00020049002905F
:102980000390DE480068D0F87CB0D0F880A0DD4825
:102990000278012400252046294611F075FC0BEA37
:1029A00000020AEA010300214A404B401A4325D1A4
:1029B000D2480068D0F88CB0D0F890A0D148027806
:1029C000012600273046394611F05EFC0BEA000272
:1029D0000AEA010300214A404B401A430ED102AAE1
:1029E00004A90020FFF796FF01200090C548037856
:1029F00002AA9DF81010012009F04BFAC148007896
:102A000000EB4001C04800EB41000079401CC1B21E
:102A1000BC48007800EB4002BB4800EB420001716B
:102A2000B849097801EB4102B74901EB42004EF683
:102A3000602108F089F901284FD1B248007800EBF5
:102A40004001B14800EB410000790A2845DB0A212A
:102A5000AC48007800EB4002AB4800EB420001714B
:102A6000A6480068D0F87CB0D0F880A0A5480278CD
:102A70004FF001084FF000094046494611F004FCB0
:102A80000BEA00020AEA010300214A404B401A43C4
:102A900023D19A480068D0F88CB0D0F890A099481B
:102AA000027801210020CDE905010846059911F0C1
:102AB000EBFB0BEA00020AEA010A00214A408AEA1B
:102AC000010A52EA0A0208D101218E48007800EB7F
:102AD00040028D4800EB420041718A480078401C5A
:102AE0008849087008460078302801D10020087015
:102AF00007B0BDE8F08F2DE9FE4F4FF00108002030
:102B0000019002907D480068D0F87CA0D0F88090B9
:102B10007E480278012400252046294611F0B4FBA6
:102B20000AEA000209EA010300214A404B401A4325
:102B30001FD172480068D0F88CA0D0F890907348EC
:102B40000278012600273046394611F09DFB0AEA3B
:102B5000000209EA010300214A404B401A4308D110
:102B6000032000906948037801AA4146012009F03A
:102B700090F966480078401C64490870084600785F
:102B8000302801D100200870BDE8FE8F2DE9FE4FEE
:102B90004FF0010900200190029000245C48047865
:102BA00046E004EB840000EBC4015A4810F8310001
:102BB00000F00100C8B35648047050480068D0F8CF
:102BC0007CB0D0F880A05248027801250026284623
:102BD000314611F059FB0BEA00020AEA0103002119
:102BE0004A404B401A431FD144480068D0F88CB08B
:102BF000D0F890A0464802780127884638464146DA
:102C000011F042FB0BEA00020AEA010300214A40EC
:102C10004B401A4308D1802000903D48037801AA18
:102C20004946012009F035F904E0FFE7601CC4B211
:102C3000302CB6DB00BF36480078401C34490870A1
:102C400008460078302801D100200870BDE8FE8FCA
:102C5000F0B5A1B0054600240026402111A811F0CE
:102C600006FC00271DB92648006846880BE0681E50
:102C700081B201A800F0FDFB402201A911A811F0CA
:102C80009AFBBDF85860002416E0FEF79BFB88B95C
:102C900004EB44011C4800EB4100407950B918484E
:102CA0000068001D00EB44000088B04202D00EB165
:102CB000012703E0601CC4B2302CE6DB00BF3846BD
:102CC00021B0F0BD0A7001230370704700B5A3B0B6
:102CD0000020229020902190402110A811F0C7FBE5
:102CE0000D480078002878D14FF4C8710B4808F0DF
:102CF0002BF8012871D10021084811E04C00002078
:102D000050000020540000203852002055000020C0
:102D10005600002058530020580000205C0000207E
:102D200008F012F8504801780078401C4E4A1070A4
:102D300005293BDB0020114608704C480078FFF75E
:102D400087FF012823D14948007840B9684600F040
:102D5000B0F84022694610A811F02DFB0BE0434863
:102D60000078401E81B2684600F083FB402269462D
:102D700010A811F020FB02208DF840002F2214A98A
:102D8000684611F018FB10A80FC805F07CFF374803
:102D90000078401C3549087000F03FFD401C334965
:102DA0000978884202DC00203049087000F035FDC7
:102DB000401C2E49097888420FDD2C48027820A952
:102DC00022A8FFF77FFFF42000902948037820AA6B
:102DD0009DF88810012009F05CF823B000BD90B088
:102DE000202108A811F043FBFFF788FD4FF4FA609B
:102DF00007F0C2FF00BF0A211E4807F0A5FF012807
:102E000014D100211B4807F09FFF684602F051F8DB
:102E10002022694608A811F0CEFA9DF8210008B9D1
:102E2000FFF754FFFFF7A6FDFFF765FE6421124888
:102E300007F08AFF012805D100210F4807F084FF21
:102E4000FFF7A4FE09F0F6F909F020FC052007F0D1
:102E500093FFD0E710B50523084A0021AFF28100A7
:102E600008F0E0FD10BD00006000002061000020BF
:102E7000570000206400002068000020046F00203C
:102E8000FB48704710B56021F948001D11F0CDFADC
:102E900010BD0146F648001D00EB41000088704758
:102EA000F34A121D02EB410210807047F04800887F
:102EB000704710B504463F22EE49204611F036FA1D
:102EC00010BD2DE9F04387B0002500200590069045
:102ED000039004900024002600278046029081463B
:102EE000019005A8011907220D2008F069FD03A82B
:102EF000011907220D200AF0C7F805A908190521B4
:102F000007F0C0FE804603A90819052107F0BAFEA4
:102F1000814605A8065D03A8075D641C241D05A85D
:102F200020440088029003A8204400880190A52E28
:102F30000BD1BDF80800804507D1DDF815500722F8
:102F400005A90D200AF090F80EE0A52F0BD1BDF8D1
:102F50000400814507D1DDF80D50072203A90D209B
:102F600008F023FD00E00125284607B0BDE8F08306
:102F700000B5A1B0402111A811F079FAFFF7A1FF27
:102F8000BB49088001A8FFF794FF402201A911A8BE
:102F900011F011FABDF85800B549488021B000BDC4
:102FA00030B595B040F26F141822B3A10FA811F0FC
:102FB00002FA254617200E9000200C900D900A90E2
:102FC0000B90242101A811F052FA00200090A8488B
:102FD0000088A04206D11722AD490FA811F07AF956
:102FE000002861D0A248048017220FA9A84811F038
:102FF0009DF9A5208DF83000CDF8315005210CA8A1
:1030000007F040FE0090BDF80000ADF83500072243
:103010000CA90D200AF028F807220CA90D2008F0B1
:10302000C4FCA5208DF82800BDF83800ADF82900B3
:1030300003210AA807F026FE0090BDF80000ADF8B5
:103040002B0005220AA918200AF00EF805220AA969
:10305000182008F0AAFCA5208DF80400BDF838203F
:103060008B490DF1050011F061F9BDF83800401CE5
:1030700081B201A807F006FE009001A9BDF8380052
:10308000401C0844BDF800100180BDF83800C01C89
:1030900082B201A9212009F0E7FFBDF83820D21C37
:1030A00001A9212008F081FC15B030BD1FB579A21F
:1030B00007CA01AB07C300200090072101A807F051
:1030C000E1FD0090BDF80000ADF80B00092201A958
:1030D000002009F0C9FF1FBD7148007870472DE935
:1030E000F04186B0002004900590029003900024E7
:1030F00000250026002701908046009004A80119B1
:103100000522182008F05CFC02A8011905221820ED
:1031100009F0BAFF04A90819032107F0B3FD074617
:1031200002A90819032107F0ADFD804604A8055D3A
:1031300002A8065D641CA41C04A820440088019019
:1031400002A8204400880090A52D0DD1BDF80400F0
:10315000874209D15248BDF811100180052204A907
:10316000182009F081FF12E0A52E0DD1BDF8000056
:10317000804509D14A48BDF809100180052202A9FD
:10318000182008F012FC02E000204549087006B043
:10319000BDE8F08170B506460D460024FFF79CFFA0
:1031A0000446002C06DD1E2C04DC2246384930463D
:1031B00011F0BCF82C7070BD2DE9F047C4B084212B
:1031C00023A811F054F9842102A811F050F9002429
:1031D00000260027A046002001908146009000258F
:1031E0008246FFF779FF0546002D71DD1E2D6FDC4D
:1031F000E81C1FFA80FA23A801195246212008F082
:10320000DFFB02A801195246212009F03DFF6A1C8C
:1032100091B223AA101907F035FD80466A1C91B2BD
:1032200002AA101907F02EFD814623A8065D02A808
:10323000075D601CC4B26019C4B223A82044008892
:10324000019002A8204400880090A52E2AD1BDF844
:103250000400804526D12A460DF18D010C4811F05D
:1032600065F8524623A9212009F0FEFE30E0000057
:10327000086F0020687000204344475F4D445F4260
:103280005F42315F3230305F3336372E62696E0015
:103290004A700020A57A6C6412040100000000004E
:1032A0006C000020A52F0FD1BDF8000081450BD187
:1032B0002A460DF10901FA4811F038F8524602A9E0
:1032C000212008F072FB03E02946F54811F0ADF823
:1032D00044B0BDE8F08730B5EDB005460C464FF47C
:1032E000D072F04905A811F066F81421684611F073
:1032F000BEF8172C08DA04EBC40005AA02EB400163
:103300001222684611F012F812226946284611F07E
:103310000DF86DB030BD0FB430B59FB044210EA88C
:1033200011F0A5F8002400200D9000250EA9081921
:103330003F2222A910F0FAFF3F3421460EA807F0E1
:10334000A1FC0D900EA82044BDF834100180A41CEF
:103350002F2226A9684611F02EF822A80FC805F0E2
:103360007FFF054622460EA9284608F01EFBA8B29C
:1033700022460EA909F078FE1FB030BC5DF814FBA0
:103380000FB470B592B0269D442101A811F06FF8DA
:1033900000240020009000269DF8590002282AD120
:1033A000C5EB8511C04A88183F2216A910F0BEFF50
:1033B00001A908193F2216A910F0B8FF04F13F0037
:1033C000C4B2214601A807F05DFC009001A820448A
:1033D000BDF800100180A01CC4B2284605F06FFFA4
:1033E0000646224601A9304608F0DFFAB0B222466E
:1033F00001A909F039FE12B070BC5DF814FB0FB4DE
:1034000030B593B0269D442102A811F030F8002475
:103410000020019002A908193F2216A910F086FF8A
:103420003F34214602A807F02DFC019002A8204459
:10343000BDF804100180A41C05EB851101F2F11008
:10344000224602A908F0B1FA05EB851101F2F1114B
:1034500088B2224602A909F007FEC5EB8511924AFF
:1034600088183F2216A910F061FF13B030BC5DF838
:1034700014FB70B505460C46C4EB84108A4A8118CB
:103480003F22284610F052FF70BDF0B5C7B044216E
:1034900036A810F0ECFF442125A810F0E8FF002624
:1034A0000020249000272390002514211EA810F04E
:1034B000DEFF002400BF86E0002536AA511904EB88
:1034C000841202F2F110412208F07AFA25AA511969
:1034D00004EB841202F2F110412209F0D5FD36A965
:1034E00048193F2107F0CEFB064625A948193F2180
:1034F00007F0C8FB07463F3536A8284400882490CB
:1035000025A8284400882390BDF89000864210D159
:10351000C4EB8411644A88183F2236A910F006FFD4
:1035200004EB841101F2F110412236A909F09CFD4F
:1035300045E0BDF88C00874210D1C4EB84115A4A93
:1035400088183F2225A910F0F1FE04EB841101F246
:10355000F110412225A908F028FA30E0214619A8E7
:10356000FFF7B9FE142219A91EA810F024FF0220AB
:10357000C4EB84114C4A11444870C4EB84111144CB
:10358000881C12221EA910F0D1FEBDF87800B0B13F
:10359000C4EB8410444A104400F110012F22684605
:1035A0000C9410F0C3FEC4EB84103F4A81183F22F4
:1035B0000EA810F0BBFE0EA80FC8FFF720FF09F001
:1035C00065F8601CC4B23948B0F86F00A0423FF7FC
:1035D00073AF47B0F0BD70B5C0B0402130A810F057
:1035E00046FF44211FA810F042FF44210EA810F00E
:1035F0003EFF0024002500200D9000260C901FA8FF
:10360000011941224FF4D87008F0DAF90EA8011917
:1036100041224FF4D87009F037FD1FA908193F2146
:1036200007F030FB05460EA908193F2107F02AFBD9
:1036300006463F341FA8204400880D900EA8204461
:1036400000880C90BDF8340085420BD13F221FA9A1
:10365000174810F06BFE41221FA94FF4D87009F0F3
:1036600003FD1BE0BDF8300086420BD13F220EA9BE
:103670000F4810F05BFE41220EA94FF4D87008F0FD
:1036800094F90BE001208DF8C1002F2234A968467F
:1036900010F091FE30A80FC8FFF73DFE40B070BD9E
:1036A0004A70002064540508A7700020086F0020AD
:1036B0006870002011B583B00020029001900024B2
:1036C000BDF80C00FE49A1F86F0002A82044BDF827
:1036D0000C100180A41C022102A807F0D3FA01906B
:1036E00002A82044BDF804100180A41C042202A9F1
:1036F00040F28F1008F059F9042202A940F28F100D
:1037000009F0B2FC1FBD10B5A2B0402112A810F004
:10371000AEFE002414210DA810F0A9FE02208DF8A1
:10372000490000BF1DE0214608A8FFF7D4FD142280
:1037300008A90DA810F03FFE12220DA90DF14A00B4
:1037400010F0F4FDE0B22F2216A90C90684610F09C
:1037500032FE12A80FC8FFF713FE08F097FF601C97
:1037600084B2172CDFDB22B010BD70B586B000200C
:1037700005900490039000240025029000260190FB
:1037800004A80119042240F28F1008F019F903A8C7
:103790000119042240F28F1009F076FC04A90819DF
:1037A000022107F06FFA054603A90819022107F064
:1037B00069FA0646A41C04A820440088029003A8C5
:1037C000204400880190BDF80800854208D1049883
:1037D0000590042204A940F28F1009F045FC13E083
:1037E000BDF80400864208D103980590042203A97D
:1037F00040F28F1008F0D9F806E017200590FFF787
:1038000082FF1720FFF756FFBDF81400AC49A1F85E
:103810006F00BDF8140006B070BDA948B0F86F0085
:1038200070470FB470B5A0B06FF001050024FFF72A
:10383000F4FF0646402110A810F019FE172E1ADBDF
:10384000651E00BF14E021466846FFF712FE4022C5
:10385000694610A810F0AFFD12220DF192010DF192
:10386000420010F037FD08B925B203E0601C84B2B5
:10387000B442E8DB06E0FFF746FF1720FFF71AFF28
:103880006FF00105A81C48B92F2228A9684610F03E
:1038900092FD24A80FC8FFF7C4FF0546284620B0B4
:1038A00070BC5DF814FB11B583B00020019002904C
:1038B0000090002482480399C0F86B1001A82044AE
:1038C0007F49D1F86B100160241D214601A807F043
:1038D000D9F9009001A82044BDF800100180A41C73
:1038E000062201A940F61D5009F0BEFB1FBD70B5B0
:1038F00088B07448006807900020059006900390F7
:10390000049000240025029000260190062203A9BD
:1039100040F61D5009F0B8FB042105A807F0B2F9E4
:103920000546042103A807F0ADF90646241D05A8A5
:1039300020440088029003A8204400880190BDF82C
:10394000080085420AD15E480599C0F86B1006222E
:1039500005A940F61D5009F087FB0BE0BDF80400F7
:10396000864204D156480399C0F86B1002E00798CC
:10397000FFF799FF08B070BD08B55148D0F86B004B
:10398000009008BD7CB50546002001900090002401
:103990004B4880F8645001A8494991F864100155DA
:1039A000641C214607F06EF9009001A82044BDF880
:1039B00000100180A41C224601A940F6235009F002
:1039C00053FB7CBD2DE9FF415F2500200390029051
:1039D00000240026019000270090032202A940F64F
:1039E000235009F051FB012103A807F04BF90646CB
:1039F000012102A807F046F90746641C03A82044E9
:103A00000088019002A8204400880090BDF80400BE
:103A100086420BD12A489DF80C1080F864100322CE
:103A200003A940F6235009F01FFB0CE0BDF800008D
:103A3000874205D122489DF8081080F8641002E002
:103A40002846FFF79FFFBDE8FF811D4890F86400FE
:103A500070477CB50546002001900090002418486E
:103A6000A0F8655001A820441549B1F865100180FF
:103A7000A41C214601A807F005F9009001A82044E4
:103A8000BDF800100180A41C224601A940F6265072
:103A900009F0EAFA7CBD2DE9FF414FF416750020CC
:103AA0000390029000240026019000270090042239
:103AB00002A940F6265009F0E7FA022103A803E024
:103AC000086F00200456050807F0DCF806460221BE
:103AD00002A807F0D7F80746A41C03A820440088D2
:103AE000019002A8204400880090BDF8040086429E
:103AF0000BD1FE48BDF80C10A0F86510042203A9F4
:103B000040F6265009F0B0FA0CE0BDF800008742FC
:103B100005D1F648BDF80810A0F8651002E0284667
:103B2000FFF797FFBDE8FF81F048B0F865007047E8
:103B30007CB505460020019000900024EB48A0F8D9
:103B4000675001A82044E949B1F867100180A41C1E
:103B5000214601A807F096F8009001A82044BDF87E
:103B600000100180A41C224601A940F62A5009F049
:103B70007BFA7CBD2DE9FF414FF44875002003908E
:103B800002900024002601900027009002A801194D
:103B9000042240F62A5009F077FA03A908190221F5
:103BA00007F070F8064602A90819022107F06AF822
:103BB0000746A41C03A820440088019002A82044C2
:103BC00000880090BDF8040086420BD1C748BDF8BC
:103BD0000C10A0F86710042203A940F62A5009F03F
:103BE00043FA0CE0BDF80000874205D1BF48BDF89C
:103BF0000810A0F8671002E02846FFF799FFBDE81B
:103C0000FF81BA48B0F8670070477CB505460020D0
:103C1000019000900024B548A0F8695001A8204404
:103C2000B249B1F869100180A41C214601A807F02F
:103C300029F8009001A82044BDF800100180A41CC0
:103C4000224601A940F62E5009F00EFA7CBD2DE95E
:103C5000FF414FF42F7500200390029000240026AE
:103C600001900027009002A80119042240F62E506E
:103C700009F00AFA03A90819022107F003F8064619
:103C800002A90819022106F0FDFF0746A41C03A89B
:103C900020440088019002A8204400880090BDF8CC
:103CA000040086420BD19148BDF80C10A0F86910B1
:103CB000042203A940F62E5009F0D6F90CE0BDF815
:103CC0000000874205D18948BDF80810A0F86910A6
:103CD00002E02846FFF799FFBDE8FF818348B0F86E
:103CE000690070470FB410B5A2B0842101A810F08C
:103CF000BEFB002000900024802224A97B48713064
:103D000010F014FB01A9081980227849713110F0D4
:103D10000DFB04F18000C4B2214601A806F0B2FFF9
:103D2000009001A82044BDF800100180A01CC4B27E
:103D3000224601A9B72007F038FE224601A9B72084
:103D400009F092F922B010BC5DF814FB70B5ADF526
:103D5000007D8022664960A810F02DFB84213FA8D9
:103D600010F085FB84211EA810F081FB00240025A3
:103D700000201D9000261C903FA801198222B72028
:103D800007F01EFE1EA801198222B72009F07CF957
:103D90003FA90819802106F075FF05461EA90819DC
:103DA000802106F06FFF064604F18000C4B23FA8F0
:103DB000204400881D901EA8204400881C90BDF857
:103DC000740085420BD180223FA94848713010F021
:103DD000ADFA82223FA9B72009F046F918E0BDF8F4
:103DE000700086420BD180221EA94048713010F02D
:103DF0009DFA82221EA9B72007F0D7FD08E07022A5
:103E000064A9684610F0D7FA60A80FC8FFF76AFFE8
:103E10000DF5007D70BD10B5044680223349713127
:103E2000204610F083FA10BD1FB586B0142101A8FA
:103E300010F01DFB002000900024102206A92B4842
:103E4000F13010F073FA01A9081910222749F13155
:103E500010F06CFA1034214601A806F013FF009010
:103E600001A82044BDF800100180A41C224601A92D
:103E700040F2391007F099FD224601A940F23910AD
:103E800009F0F2F80AB010BD70B594B019A30FCBC9
:103E900010AC0FC400200C900D900E900F901421C8
:103EA00007A810F0E4FA142102A810F0E0FA0024A8
:103EB0000025002001900026009007A80119122279
:103EC00040F2391007F07CFD02A80119122240F2DD
:103ED000391009F0D9F807A90819102106F0D2FE07
:103EE000054602A9081910210CE00000086F002007
:103EF00008560508473131353231303030303030F6
:103F00003030303106F0BEFE0646103407A820449B
:103F10000088019002A8204400880090BDF80400A9
:103F200085420BD1102207A9FA4810F0FFF912229E
:103F300007A940F2391009F097F819E0BDF8000020
:103F400086420BD1102202A9F24810F0EFF912229A
:103F500002A940F2391007F028FD09E010A80FC8A7
:103F6000CDE90E23CDE90C010CA80FC8FFF75CFFCB
:103F700014B070BD10B504461022E649204610F07A
:103F8000D5F910BD08B5E348F13890F8010100906B
:103F90009DF80010084608BD11B583B000200290BE
:103FA00001900024DB48F1389DF80C1080F80111D5
:103FB00002A80119D748F13890F801010870641C73
:103FC000214602A806F05EFE019002A82044BDF83A
:103FD00004100180A41C224602A9B42007F0E5FCCD
:103FE000224602A9B42009F03FF81FBD70B586B083
:103FF00000200590049003900024002502900026E4
:10400000019004A801190322B42007F0D9FC03A8E9
:1040100001190322B42009F037F804A90819012175
:1040200006F030FE054603A90819012106F02AFE14
:104030000646641C04A820440088029003A820447B
:1040400000880190BDF8080085420BD1B148F138D5
:104050009DF8101080F80111032204A9B42009F082
:1040600003F814E0BDF8040086420BD1A948F138EA
:104070009DF80C1080F80111032203A9B42007F069
:1040800094FC04E0002005900598FFF785FFA14807
:10409000F13890F80101012801D102F0D4FC06B0FA
:1040A00070BD10B5044640229A491131204610F0E7
:1040B0003DF910BD30B59BB00546242112A810F083
:1040C000D6F900240020119040229249113101A814
:1040D00010F02CF92022294601A810F027F912A986
:1040E0000819202201A910F021F92034214612A834
:1040F00006F0C8FD119012A82044BDF844100180BC
:10410000A41C224612A940F24B1007F04EFC224696
:1041100012A940F24B1008F0A7FF402201A97D48E8
:10412000113010F003F91BB030BD70B59CB02421E4
:1041300013A810F09CF924210AA810F098F9002483
:104140000025002009900026089020227249684628
:1041500010F031F913A80119222240F24B1007F098
:104160002FFC0AA80119222240F24B1008F08CFF04
:1041700013A90819202106F085FD05460AA908198A
:10418000202106F07FFD0646203413A82044008835
:1041900009900AA8204400880890BDF824008542B0
:1041A0000CD1202213A95B48113010F0BFF8222255
:1041B00013A940F24B1008F057FF13E0BDF82000A0
:1041C00086420CD120220AA95248113010F0AEF8D4
:1041D00022220AA940F24B1007F0E7FB02E06846F2
:1041E000FFF768FF1CB070BD30B59BB005462421B9
:1041F00012A810F03CF900240020119040224549FB
:10420000113101A810F092F82022294609A810F0D7
:104210008DF812A90819202209A910F087F8203476
:10422000214612A806F02EFD119012A82044BDF8D8
:1042300044100180A41C224612A940F26D1007F020
:10424000B4FB224612A940F26D1008F00DFF402287
:1042500001A93048113010F069F81BB030BD70B5BD
:104260009CB0242113A810F002F924210AA810F010
:10427000FEF8002400250020099000260890202246
:1042800025492031684610F096F813A8011922221A
:1042900040F26D1007F094FB0AA80119222240F2A7
:1042A0006D1008F0F1FE13A90819202106F0EAFCB0
:1042B00005460AA90819202106F0E4FC0646203428
:1042C00013A82044008809900AA820440088089078
:1042D000BDF8240085420CD1202213A90D483130AD
:1042E00010F024F8222213A940F26D1008F0BCFE51
:1042F00017E0BDF82000864210D120220AA9054807
:10430000313010F013F822220AA940F26D1007F0A4
:104310004CFB06E0F96F0020885605086846FFF759
:1043200063FF1CB070BD70B50024002500BF0AE01B
:10433000002503E008F0AAF9681C85B2B5F57A7F7C
:10434000F8DB601C84B2B4F57A6FF1DB70BD10B598
:10435000FFF7E9FFFFF74AFEFFF707FAFEF7BFFE98
:10436000FEF72AFFFFF737F9FFF78FF8FEF700FE99
:10437000FEF716FE05F0CDFEFFF7B9FAFFF722FBB8
:10438000FFF789FBFFF7F6FBFFF761FCFFF7DEFCA9
:10439000FFF77AFDFFF7C9FEFFF761FF10BD0000D0
:1043A0002DE9F05F81460E4617464FF0000816F8DB
:1043B0000800012811D1CA483A4601240025D0E955
:1043C00004BA204629460FF05FFF4BEA00024AEA92
:1043D0000103C348C0E9042300BF00BFBDE8F09F4C
:1043E0002DE9F84F8946144600200090009819F8EE
:1043F0000000012802D0022827D111E0B848224647
:1044000001250026D0E906BA284631460FF03CFFC8
:104410004BEA00024AEA0103B148C0E9062314E06E
:10442000AF48224601274FF00008D0E906AB3846D6
:1044300041460FF029FF0A46C1430AEA010A2BEA66
:10444000020BA748C0E906AB00BF00BFBDE8F88F6C
:104450002DE9F74F84B0144600200090A048224672
:1044600001250026D0E908BA284631460FF00CFF96
:104470004BEA00024AEA01039948C0E9082300997F
:104480000598405CF92850D00CDCF6284AD004DCB2
:10449000012810D0022860D124E0F72843D0F82862
:1044A0005BD141E0FA2841D0FB2840D0FC283FD026
:1044B000FD2852D13DE08A48224601274FF00008EE
:1044C000D0E90ABA384641460FF0DEFE4BEA000258
:1044D0004AEA010A8248C0E90A2A0021814A116099
:1044E00051603AE07E4822464FF00109D0E90CBA0B
:1044F00000200190484601990FF0C6FE4BEA0002E9
:104500004AEA010A7648C0E90C2AD0E90C10754B3A
:10451000D3E9002CD343194020EA0C00704AC2E9C9
:104520000C101AE000BF00BF00BF00BF00BF00BFFB
:1045300000BF224601210020CDE902010846029970
:104540000FF0A2FE674AD2E9003218431143654AD0
:1045500003C2204600F02CFC00BF00BF6049D1E937
:1045600004015F4BD3E908235040594008430AD166
:104570005B4890F85000012805D102205849087086
:10458000012000F027FA5648D0E90A10544BD3E92D
:104590000C2351405840014307D1514890F8500036
:1045A000022802D103204E49087007B0BDE8F08F01
:1045B0002DE9FF5F0D461646002400200290019071
:1045C0000090281900880290A41C285D0190641CAA
:1045D000285D0090641C0098062868D2DFE800F08F
:1045E00067034C4D4E0400BF3D48D0E90E10002338
:1045F00059405840014302D100203B4908703848D7
:10460000324601274FF00008D0E90EBA384641463D
:104610000FF03AFE4BEA00024AEA01033048C0E9D3
:104620000E23D0E90A102E4AD2E90E3259405040EA
:10463000014320D12C480078E8B901202A490870AC
:104640000020274981F85C000846B0F85400401C5F
:10465000A1F8540000F05AFA01280CD12049087042
:10466000002081F8480002211D4880F850100021E8
:104670004C3006F069FB1AE000BF00BF1848324614
:104680004FF00109D0E90EAB002003904846039992
:104690000FF0FAFD0A46C1430AEA010A2BEA020BAF
:1046A0000F48C0E90EAB304600F082FB00BF00BFF0
:1046B000BDE8FF9F41F2707006F05EFB00BF06F0A0
:1046C000F9F907F0E3FF042006F056FBF7E710B511
:1046D0000C23064A0021AFF2230007F0A3F910BD16
:1046E000808B00207000002078000020788300205C
:1046F00010B57021FB480FF0BAFEFBF7EDFDFA494B
:1047000008600020F949087010BD0020F8490870C1
:104710007047F7480078401CF5490870704770B53D
:1047200088B006460D460024684600F0C2FB012012
:104730002855641C06202855641C9DF80000285547
:10474000641C9DF801002855641C2819BDF802104E
:104750000180A41C2819BDF804100180A41C347029
:1047600008B070BD70B588B006460D460024684696
:1047700000F09FFB02202855641C06202855641C6D
:104780002919DDF806200A60BDF80A008880A41DFA
:10479000347008B070BD70B588B006460D46002470
:1047A000684600F086FB03202855641C0620285527
:1047B000641C2919039A0A60BDF810008880A41DA2
:1047C000347008B070BD70B588B006460D46002440
:1047D000684600F06EFB04202855641C2855641CB4
:1047E0002919DDF812200A60BDF816008880A41D82
:1047F000347008B070BD1FB501200390BD4903C9D6
:10480000CDE90101B748007800285AD1B54890F8A1
:1048100040000A2855D8C321B248443006F094FA23
:1048200001285CD10021AF48443006F08DFAF02019
:104830000090B148037801AA9DF80C10012007F000
:1048400028FB01A903A8FFF76AFFF1200090AA48FE
:10485000037801AA9DF80C10012007F01AFB01A9AA
:1048600003A8FFF77FFFF1200090A348037801AA77
:104870009DF80C10012007F00CFB01A903A8FFF71D
:104880008AFFF12000909C48037801AA9DF80C1043
:10489000012007F0FEFA01A903A8FFF794FFF12019
:1048A00000909548037801AA9DF80C10012007F0AC
:1048B000F0FA8C4890F84000401C8A4981F840008A
:1048C0000DE08848007850B9012086490870012120
:1048D000844880F8501000214C3006F035FA1FBD96
:1048E00070B592B006460D460024684600F0E1FA25
:1048F0002022694608A80FF05EFDDDF83A0010900E
:10490000BDF83E00ADF84400764890F850002855B8
:10491000641C281910990160241D2819119901603F
:10492000A41C347012B070BD70B588B004460D463A
:104930001646684600F0BDFA9DF8010001281DD119
:10494000012E02D0022E18D10BE067480068C46720
:10495000C0F880500022644909682C318A65CA6514
:104960000BE0002260480068C267C0F880205E4803
:1049700000682C308465C56500BF21E09DF801000A
:1049800002281DD1012E02D0022E18D10BE056486C
:1049900000682C30046645660022534800682C30BD
:1049A0008266C2660BE000224F4800682C30026627
:1049B00042664D4800682C308466C56600BF00BF63
:1049C000012E05D14A4801784748006880F8AC10AC
:1049D00008B070BD10B588B00446684600F069FAAA
:1049E0004048A0F85440042180F85610DDF8162005
:1049F000601E02EB800104223A48573007F0B1FFF5
:104A000008B010BD1FB500200390019002903548FA
:104A100090F85000012803D14FF47A7037490860AC
:104A2000304890F85000022803D14FF47A7033498F
:104A300008602C48007801283BD12A4890F84800AB
:104A4000032836DA2748D0E90610002251405040AA
:104A500001432ED02948016822484C3006F074F9F1
:104A6000012852D100211F484C3006F06DF901A9F0
:104A700003A8FFF735FFF22000902148037801AA30
:104A80009DF80C10012007F004FA164890F8480031
:104A9000401C144981F84800084690F8500001284D
:104AA00033D108460122D0E906311846FFF73CFF12
:104AB0002BE00C480078012827D10A4890F85000D4
:104AC00001281FD10748D0E90A1000235940584057
:104AD000014317D00220034908700120FFF77AFF35
:104AE00013E00000808B00207C000020810000206B
:104AF00080000020C85605088300002088000020A0
:104B0000840000200320D94908701FBD70B592B001
:104B10000025684600F0CDF92022694608A80FF06C
:104B20004AFCDDF83A001090BDF83E00ADF84400B4
:104B3000109C002604F0030000B1012606EB94004F
:104B40008400CA48B0F85400401EB4EB800F00D176
:104B50000125284612B070BD10B5024600200B1882
:104B6000C24CB4F854401C80801CC04B93F85630A3
:104B70000B54401C0C18BD4BD3F857302360001D5C
:104B8000107010BD08B5B9480078022861D10A211B
:104B9000B648603006F0D8F801285AD10021B34851
:104BA000603006F0D1F80020B04981F85C0008467A
:104BB00090F85C0058B9B1F85400FFF70BFFAC490E
:104BC000AC48FFF7C9FF0021A84A9163D163A74809
:104BD00090F85C1090F85C00401CA44A82F85C00DD
:104BE000052914DB0020114681F85C00D1E90E0193
:104BF000C2E90A01FFF78AFF012808D19B49087022
:104C0000002081F848000221984880F85010F320D5
:104C1000009099480378964A96480178012007F059
:104C200038F99248B0F85400401C9049A1F854005B
:104C3000FFF76CFF01280CD18C490870002081F827
:104C400048000221894880F8501000214C3006F0BD
:104C50007BF808BDF0B5A1B0044600250026402130
:104C600011A80FF004FC002714B9844846880BE013
:104C7000601E81B201A8FEF7FCFB402201A911A829
:104C80000FF099FBBDF85860002509E07C4830F82A
:104C90001500B04202D00EB1012703E0681CC5B276
:104CA000302DF3DB00BF384621B0F0BD10B5A8B001
:104CB000012027900020259026901DA800F0F9F8EB
:104CC00040210DA80FF0D3FB6848007803286DD170
:104CD00064216648683006F037F8012866D1002163
:104CE0006248683006F030F8604890F8641090F838
:104CF0006400401C5D4A82F864000A2925D31046EE
:104D00000222D0E90C311846FFF70EFE5D4800780C
:104D1000032804DA5C480078FFF79CFF68B9FF209D
:104D2000524908709DF87500012803D141F288307E
:104D300006F022F800F0AEF803E0FFF7D9FCFFF729
:104D4000E8FC41F2707006F017F89DF87500012834
:104D500003D100204C49087018E0BDF87800ADF888
:104D6000360010220DF17A010EA80FF0DFFA2F2283
:104D700011A968460FF01FFB0DA80FC8FEF751FDE3
:104D80004149087008460078401C08703E48027887
:104D900025A927A8FDF796FFF42000903B4803784B
:104DA00025AA9DF89C10012007F073F828B010BDCB
:104DB00030B595B00546002400201390149001A84A
:104DC00000F077F8202201A909A80FF0F4FADDF825
:104DD0003E001190BDF84200ADF84800FD2013A937
:104DE0000855641C13A8204411990160241D13A8C0
:104DF000204412990160A41CF2202B4613AA2146DC
:104E00000090012007F045F815B030BD90B020218A
:104E100008A80FF02CFBFFF76BFCFFF776FC41F2C4
:104E2000707005F0A9FF00BF684600F042F820222C
:104E3000694608A80FF0BFFA9DF8210038B1FFF7C6
:104E4000DAFCFFF7DFFDFFF79DFEFFF72FFF07F00E
:104E50001DFC052005F090FFE6E710B50D230C4A78
:104E60000021AFF2570006F0DDFD10BD808B002061
:104E70008E0000208D0000208C000020086F002094
:104E8000F08B00208000002082000020960000208F
:104E90007C8B002010B5202126480FF0C6FAFFF7C2
:104EA00034FC10BD10B5244806F0B8F8FFF7F2FF47
:104EB00010BD10B5044620221E49491E20460FF0A1
:104EC00035FA10BD0FB410B51B4806F0E6F80446DD
:104ED0001A4901EB4411481C20210FF0A6FA17498A
:104EE00001EB4410202202A90FF020FA134800EB36
:104EF0004411114806F0A0F810BC5DF814FB10B581
:104F00000C48401E4078A0B90B4806F0C6F80028AF
:104F10000FDD094806F0A2F8044620222146054884
:104F2000401E0FF003FAFFF7E3FBFFF7EEFBFFF77E
:104F3000F0FB10BD8D900020508C0020CC8C002008
:104F400010B5FBF7C9F9FE490860FCF791FBFD4974
:104F5000086010BDFC48008870470146FB4801808E
:104F600001207047F9490988091200F8011BF74927
:104F7000097800F8011B704700B502465A201070EE
:104F800001205070901CFFF7EDFF00BD30B50446C6
:104F90000D4623460CB9002030BD842018808220A5
:104FA00098700220D870181DFFF7E6FF0120F3E784
:104FB00002460B4611460AB90020704714200880AB
:104FC000832088700120C87000BFF6E770B50646E0
:104FD0000C461546A54204DD291B301920220FF08E
:104FE0001CFA70BD70B588B0054600240026D8496B
:104FF00003C9CDE90601D649083103C9CDE9040149
:10500000D349103103C9CDE90201002001902919CB
:10501000CB4A126892F8B10005F065FF0646A41C61
:105020002919C74A126892F8B20005F05CFF0646DB
:10503000A41C2919C24A126892F8B30005F053FF64
:105040000646A41CA41CBE48006890F8280000F086
:10505000010008B106A800E007A8019028190199ED
:1050600009680160201DC4B2B548006890F82800A6
:10507000C0F3400008B104A800E005A80190281979
:10508000019909680160201DC4B2AD48006890F81C
:105090002800C0F3800008B104A800E005A8019032
:1050A0002819019909680160201DC4B2A44800684C
:1050B00090F82800C0F3C00008B102A800E003A8DF
:1050C00001902819019909680160201DC4B22819AE
:1050D00010229B4909680A310FF028F904F11000E9
:1050E000C4B22919964A1268B2F92A000A2205F0B8
:1050F00003FF0646281904223146FFF767FF201DEB
:10510000C4B2204608B070BD70B505460E462C46A8
:105110000DB9002070BD4FF4805020808220A07017
:10512000201DFFF75FFF4008E0700120F2E72DE946
:10513000F04F97B080460C460126002700200390D0
:1051400018258146029001908246294640460FF07C
:105150006CF97B480068D0F874B0806F22460490E8
:10516000584604990FF0A3F83040394000235840C6
:105170005940084302D000200390DBE170480068EA
:10518000C16FD0F880002246CDE905010846059997
:105190000FF08DF800EA060201EA07004FF0000C5C
:1051A00082EA0C0280EA0C00024302D00420039041
:1051B000C0E1634800682C30016E406E2246CDE9A4
:1051C0000701084607990FF072F800EA060201EAA3
:1051D00007004FF0000C82EA0C0280EA0C00024348
:1051E00002D008200390A5E1554800682C30016FDB
:1051F000406F2246CDE90901084609990FF057F89A
:1052000030403940002358405940084302D005201F
:1052100003908FE14A480068B630016A406A22462E
:10522000CDE90B0108460B990FF041F830403940A9
:10523000002358405940084302D00620039079E1EA
:105240003F480068416D806D2246CDE90D0108465A
:105250000D990FF02CF83040394000235840594048
:10526000084302D00A20039064E135480068C16D0C
:10527000006E2246CDE90F0108460F990FF017F88E
:1052800030403940002358405940084302D00B2099
:1052900003904FE12A480068416E806E2246CDE9B6
:1052A0001101084611990FF002F8304039400023EF
:1052B00058405940084302D0072003903AE1204863
:1052C0000068416B806B2246CDE9130108461399B3
:1052D0000EF0EDFF3040394000235840594008435C
:1052E00002D00C20039025E115480068C16E006FC4
:1052F0002246CDE91501084615990EF0D8FF304039
:105300003940002358405940084302D00D200390F3
:1053100010E104EB840000EBC4010A48006800F5CA
:10532000A87010F8310000F0010000287ED004EBD6
:10533000840000EBC4010348006800F5A87009E090
:10534000980000209C000020A2000020A000002067
:10535000D456050800EBC10090F84A00142802DC7E
:105360000120039014E0FEF770FB04EB840101EBD5
:10537000C402FE49096801F5A87101EBC20191F868
:105380004A10884202DD0220039001E003200390CE
:105390000025002229466D1C08F801202A466D1CB4
:1053A000039908F8021008EB050104EB840202EBF4
:1053B000C403EE4A126802F5A87202EBC302B2F807
:1053C00011004FF47A7205F097FD814608EB050055
:1053D00006224946FFF7FAFDAD1D04EB840000EB01
:1053E000C401E248006800F5A87000EBC100B0F805
:1053F00013001FFA80FA04EB840000EBC401DB48C1
:10540000006800F5A87000EBC100B0F91300002897
:1054100004DA6FEA0A00401C1FFA80FA08EB050163
:105420004FF47A72504605F067FD00E080E0814657
:1054300008EB050006224946FFF7C8FDA81DC5B2C6
:1054400008EB050104EB840202EBC403C74A1268AF
:1054500002F5A87202EBC30292F84A0005F043FD80
:10546000814608EB050004224946FFF7AFFD281DE1
:10547000C5B204EB840000EBC401BC48006800F531
:10548000A87000EBC100B0F80D0041F26F718842C6
:105490000BDD04EB840000EBC402B448006800F5A7
:1054A000A87000EBC200A0F80D1004EB840000EB24
:1054B000C401AE48006800F5A87000EBC100B0F868
:1054C0000D003C2190FBF1F0C0B2029004EB84008F
:1054D00000EBC401A548006800F5A87000EBC1000E
:1054E000B0F80D003C2190FBF1F201FB1200C0B2BC
:1054F000019008EB0501029805F0F5FC814605EBEB
:105500000900C5B23A2008F80500681CC5B208EBCE
:105510000501019805F0E7FC814605EB0900C5B2DD
:1055200008EB050006224946FFF750FD182501E06B
:1055300009200390002088F80000039888F80100F3
:10554000284617B0BDE8F08F2DE9F04704460D4618
:10555000E8064FEA1069681CC0064FEA106A002688
:105560000027A0464F4609E0A046B04439464046D1
:10557000FFF7DDFD3044C6B2781CC7B25745F3DBF8
:105580003046BDE8F08770B505460E462C460DB98D
:10559000002070BD4FF4045000EB062020808220D4
:1055A000A0703146201DFFF7CFFF4008E0700120BA
:1055B000EFE76F480088704700206D49088070470A
:1055C00070B505460E462C460DB9002070BD4FF44F
:1055D000A85020808220A0700120E070204602F0B8
:1055E00091FF0120F2E702460B4611460AB900205E
:1055F00070474FF4A8500880832088700120C8703D
:1056000000BFF5E75A484088704700205849488055
:10561000704770B505460E462C460DB9002070BD8A
:1056200041F2105020808220A0700120E0702046BE
:1056300002F068FF0120F2E702460B4611460AB964
:105640000020704741F210500880832088700120AC
:10565000C87000BFF5E70021417802784270017000
:1056600070472DE9F041C4B005460E46402241493D
:1056700034A80EF0A0FEB4223E49403107A80EF037
:105680009AFE00200690142101A80EF0F0FE0024DE
:1056900000BF0027002000902022862128460EF01F
:1056A000BCFE2022142101A80EF0B7FE2919701C9F
:1056B00005F019FC8046281902224146FFF786FCB6
:1056C000A41C29192C48006802680A6042684A60D4
:1056D000008908810A3428191022274909680A31EB
:1056E0000EF024FE1034281923490968D1F81A1045
:1056F0000160241D291906EB860000EBC6021B4839
:10570000006800F5A87000EBC200D0F80200086045
:10571000241D281918490968D1F81E100160201DA0
:10572000C4B2291906EB860000EBC6020F480068D8
:1057300000F5A87000EBC200D0F806000860201D3C
:10574000C4B2291906EB860202EBC603074A1268A7
:1057500002F5A87202EBC302B2F90F000A2205F0AB
:10576000CBFB804628190622414607E09C0000201A
:10577000A4000020EC56050898000020FFF726FC46
:10578000A01DC4B206EB860000EBC601FE4800680F
:1057900000F5A87010F8310000F0010040B9822433
:1057A000A4F13201202205F132000EF036FE52E162
:1057B000291906EB860202EBC603F34A126802F5CA
:1057C000A87202EBC302B2F80B0005F08CFB804616
:1057D000281904224146FFF7F9FB201DC4B22919FC
:1057E00006EB860202EBC603E74A126802F5A872CE
:1057F00002EBC302B2F80D0005F075FB80462819D4
:1058000004224146FFF7E2FB201DC4B2291906EB32
:10581000860202EBC603DC4A126802F5A87202EBAC
:10582000C30292F84A0005F05EFB80462819042264
:105830004146FFF7CBFB201DC4B2291906EB8602B7
:1058400002EBC603D04A126802F5A87202EBC3024B
:1058500092F85F0005F047FB804628190C2241466C
:10586000FFF7B4FB04F10C00C4B206EB860202EBB6
:10587000C603C54A126802F5A87202EBC30202F120
:105880003A01281910220EF051FD04F11000C4B2A3
:1058900006EB860000EBC601BB48006800F5A87067
:1058A00000EBC10090F8600009281ED2DFE800F08C
:1058B0001D05080B0E1114171A0034A8069017E0E6
:1058C00036A8069014E038A8069011E03AA8069091
:1058D0000EE03CA806900BE03EA8069008E040A829
:1058E000069005E042A8069002E001A8069000BFDD
:1058F00000BF281906990A6802604968416004F1EE
:105900000800C4B206EB860000EBC6019E480068A2
:1059100000F5A87000EBC100B0F861000090684687
:10592000FFF799FEBDF80000C0B2BDF80010090AEB
:1059300001EBC10202EB011100EB81072919384686
:1059400005F0D1FA8046281904224146FFF73EFBB4
:10595000201DC4B206EB860000EBC6018A48006831
:1059600000F5A87000EBC100B0F863000090684635
:10597000FFF771FEBDF80000C0B2BDF80010090AC3
:1059800001EBC10202EB011100EB81072919384636
:1059900005F0A9FA8046281904224146FFF716FBB4
:1059A000201DC4B2291906EB860202EBC603764A13
:1059B000126802F5A87202EBC302B2F8650005F0A6
:1059C00092FA8046281908224146FFF7FFFA04F1AF
:1059D0000800C4B206EB860000EBC6016A48006806
:1059E00000F5A87000EBC10090F86700122825D2DE
:1059F000DFE800F024090C0F1215181B24242424BE
:105A0000242424241E2107A806901AE00CA806903E
:105A100017E011A8069014E016A8069011E01BA844
:105A200006900EE020A806900BE025A8069008E05E
:105A30002AA8069005E02FA8069002E001A806908B
:105A400000BF00BF2819142206990EF06FFC04F164
:105A50001400C4B200BF204644B0BDE8F0812DE977
:105A6000F04FC5B005460E465422484930A80EF006
:105A7000A2FC4822454954311EA80EF09CFC542239
:105A800042499C3109A80EF096FC41A103C9CDE919
:105A900007014FF000084FF0010B00200690002492
:105AA0008146142101A80EF0E2FC0027A246202224
:105AB000142101A80EF0B1FC06EB860000EBC60134
:105AC0003148006800F5A87010F8310000F00100BE
:105AD00028B95024214628460EF0A7FCD6E106EB53
