:020000040804EE
:10000000A06B0120C5010508CD01050839B8040819
:10001000D1010508D3010508D5010508000000003D
:10002000000000000000000000000000D7010508EB
:10003000D901050800000000DFE70408F7E804081C
:10004000DF010508DF010508DF010508DF010508FC
:10005000DF010508DF010508DF010508DF010508EC
:10006000DF010508DF010508DF010508DF010508DC
:10007000DF010508DF010508F1CC0408DF010508F0
:10008000DF01050821BB0408DF010508DF010508C1
:1000900099BE0408DF010508DF010508DF01050836
:1000A000DF010508DF010508DF010508DF0105089C
:1000B000DF010508DF010508DF010508DF0105088C
:1000C000DF010508DF010508DF010508DF0105087C
:1000D000DF010508DF0105080FBC0408E7CD0408AF
:1000E000DF010508DF010508DF010508DF0105085C
:1000F000DF010508DF010508DF010508DF0105084C
:10010000DF010508DF010508DF010508DF0105083B
:10011000DF010508DF010508DF010508DF0105082B
:10012000DF010508DF010508DF010508DF0105081B
:10013000DF010508DF010508DF010508DF0105080B
:100140004BDA0408DF010508DF010508DF010508B7
:10015000DF010508DF010508DF010508DF010508EB
:10016000DF010508DF010508DF010508DF010508DB
:10017000DF010508DF010508DF010508DF010508CB
:10018000DF01050800F002F800F05AF80AA090E834
:10019000000C82448344AAF10107DA4501D100F042
:1001A0004FF8AFF2090EBAE80F0013F0010F18BFB5
:1001B000FB1A43F001031847705B0100905B0100DC
:1001C0000A444FF0000C10F8013B13F0070408BF7D
:1001D00010F8014B1D1108BF10F8015B641E05D01B
:1001E00010F8016B641E01F8016BF9D113F0080FD0
:1001F0001EBF10F8014BAD1C0C1B09D16D1E58BF62
:1002000001F801CBFAD505E014F8016B01F8016B98
:100210006D1EF9D59142D6D370470000002300240B
:1002200000250026103A28BF78C1FBD8520728BF06
:1002300030C148BF0B6070471FB51FBD10B510BD62
:1002400014F0A1F81146FFF7F7FF00F028F814F0BA
:10025000BFF803B4FFF7F2FF03BC14F0C3F80000CB
:1002600010B50BF012FB0BF017FB10BD00F088FA75
:1002700000F0FFFE01F0DAF908F048F808F01BF88A
:1002800002F0E4FA02F0A6FD08F037FF04F0A3FD47
:1002900004F0DAF902E032200AF0EEFCFBE7002479
:1002A0000EF07CFA0446FFF7DBFF0BF033FB0A236A
:1002B000084A0021AFF24B000BF00EFB20460EF077
:1002C00071FA0BF021FB02E00A200AF0D5FCFBE7F3
:1002D00070470000201B0020F84870477CB5054699
:1002E000002400200190F6A00068009001A9284693
:1002F0000AF079FD044630220421F0481E3013F044
:10030000EEFFC4F10402ED491E315018224601A946
:1003100013F06EFFE9480099C0F81A107CBD10B5C3
:1003200086B0E84A07CA03AB07C3E7A103C9CDE912
:10033000010102F07BFD044641F25721DF4813F032
:10034000F8FF1022E249DD480A3013F051FF0A227B
:1003500003A9DA4813F091FFD8480199C0F8221098
:10036000BDF80810C1842046FFF7B8FF06B010BDE5
:1003700000B589B0002005900690079008900AF01B
:10038000E1FA01A803F0B2FD01A80FC8CDE90723E7
:10039000CDE90501102205A9C8480A3013F028FF4D
:1003A00009B000BD01460020092902DB392900DC23
:1003B000012070470146012070477CB505460C4678
:1003C00000200190BF480C30006800902078012880
:1003D00002D0022808D104E00120019006F0DDFAE5
:1003E00002E00020019000BF00BF6078022803D126
:1003F000009800F0E1F900BF00BF0020B549487047
:10040000019803F085FD7CBD7047F8B506460C46A3
:10041000AC481030006800900025605D012804D0D1
:10042000022803D0FE280ED104E00CE0009800F072
:10043000C3F908E0A14890F8AE0020F020019F48E1
:1004400080F8AE1000BF00BF6D1C605D012802D0B7
:10045000022813D109E0994890F8280020F0010003
:10046000401C964981F8280008E0944890F828003C
:1004700020F00100914981F8280000BF00BFF8BDBD
:1004800038B504460D468F48143000680090009837
:1004900000F092F938BD2DE9FE4305460E46894825
:1004A00018300068029000200190002781468046A5
:1004B0000024009082218148DE3013F018FF55E0BF
:1004C0004FF00009301900880190002745E007EB44
:1004D0004700814931F81000BDF8041088423AD134
:1004E0004FF001097548B0F8DE10E0300844BDF85F
:1004F00004100180A01CC4B2A81E85B26F48B0F8D9
:10050000DE00801C6D49A1F8DE0016F80480601C36
:10051000C4B2681E85B20846B0F8DE20E030131879
:10052000311907EB47006C4A02EB4000D0F802C0DB
:100530006A464046E04704EB0800C4B2A5EB080059
:1005400085B25E48B0F8DE009DF8001008445B49B3
:10055000A1F8DE0005E0781CC7B260480078874249
:10056000B5DB00BFB9F1000F00D101E0022DA7D229
:1005700000BF029800F020F9BDE8FE8338B50546BB
:100580000C4650481C300068009020788DF803001D
:10059000009800F011F938BD38B504460D464948B9
:1005A000203000680090009800F006F938BD012264
:1005B000484B1A70704773B50D46002400BF14E015
:1005C0009DF8000004EB8401454A515C88420AD141
:1005D000BDF8010004EB840113461944D1F8012051
:1005E0002946904705E0601CC4B23E48007884422A
:1005F000E6DB00BF7CBD2DE9F04186B007460E4624
:1006000000200390049005903C46358802900190AC
:10061000B6F800806EE0B4F80100029020786828F7
:1006200063D1BDF80800FFF7BDFE00285DD0BDF81E
:100630000800854258DBBDF80800801E81B22046C4
:100640000AF0D9FABDF80810891E615C88422FD1E2
:10065000BDF80800401E205C162829D120680390B0
:10066000A088ADF81000A0798DF81200BDF8100038
:100670000190BDF80800801E205C8DF813009DF8E5
:100680001200FFF797FE48B1DDF80F00E11D009062
:10069000FFF791FF0020039004900590BDF808003B
:1006A0000444BDF80800281A85B20020029021E019
:1006B000641C681E85B2002002901BE0242B0020E1
:1006C00030323030C45205084344522D55310000B9
:1006D0000C7B00202900002030520508000000207B
:1006E0009C5205080100002006E0641C681E85B2CB
:1006F00000200290032D8EDA00BF2A46214638469C
:1007000013F076FD3580A8EB0501781913F0EFFDA5
:1007100006B0BDE8F081ADF5816D002400200190A8
:10072000FFF7FDFD4FF47A600AF0A6FA00BF002043
:10073000019002A8021901AB022101200BF008F878
:10074000BDF80400204484B2B4F5806F00D90024C1
:10075000BDF8040040B93CB102AD019401A928469E
:10076000FFF749FFBDF804400BF0B1FCFFF700FEB6
:1007700008F0ECFE0BF0D6FE0A200AF07DFAD6E770
:1007800010B50623034A0021AFF275000BF0A4F860
:1007900010BD0000202B0020FE48704710B5FD481A
:1007A00000210180817000F051FFFB49086002F0D8
:1007B00027FBFA49086010BD31B5002404E0601C35
:1007C000C4B20A200AF058FAF548407808B1642CFF
:1007D000F5DBF3480099016038BDF1484078704777
:1007E0002DE9F04106460D469046002400BF102238
:1007F000EA480168F131EB4813F0FAFC281910229D
:10080000E84913F0F5FC10342819E6490A39D1F803
:100810001A100160241D2919DF480068D0F8520120
:100820000860241D2819DF490A39D1F81E1001601B
:10083000241D2919D8480068D0F856010860241DE5
:100840002819D8490A39D1F822200260C98C818040
:10085000A41D2819D3490A390A6802604A6842600F
:10086000098901810A340CF051FE4FF47A7100FBC2
:1008700001F728190760241DF01CB480BDE8F08141
:100880002DE9F04105460E46174600243019102286
:10089000C44913F0ADFC1034E81CAC80BDE8F08115
:1008A0002DE9F04105460E461746002430198A22EC
:1008B000BC49223113F09CFC8A34E81CAC80BDE8B2
:1008C000F0812DE9F04106460D461746002428190F
:1008D0002822B449AC3113F08BFC28342919B148D3
:1008E0000A38408D0880A41C2819AC490968B1F861
:1008F0006F100180A41CF01CB480BDE8F08170B5BD
:1009000004460D461646A7480A38B0F8DE10E01C2B
:10091000A180A288A349D631284613F069FC70BD96
:100920002DE9F04107460D46164600242E55641C5D
:10093000302E03DB02202855641CEBE101202855F2
:10094000641C06EB860000EBC6019348006800F5C6
:10095000A87010F8310010F0010F03D102202855C3
:10096000641CD7E101202855641C291906EB860078
:1009700000EBC6028848006800F5A87000EBC200D2
:10098000B0F80B000880A41C291906EB860000EBC8
:10099000C6028148006800F5A87000EBC200B0F8FC
:1009A00011000880A41C291906EB860000EBC60282
:1009B0007948006800F5A87000EBC200B0F8130099
:1009C0000880A41C06EB860000EBC6017248006894
:1009D00000F5A87000EBC10090F84A002855641C8F
:1009E00006EB860000EBC6016B48006800F5A870B6
:1009F00000EBC10090F860002855641C291906EB33
:100A0000860000EBC6026448006800F5A87000EBA1
:100A1000C200B0F850000880A41C06EB860000EB72
:100A2000C6015D48006800F5A87000EBC10090F8B1
:100A300052002855641C06EB860000EBC6015648A0
:100A4000006800F5A87000EBC10090F83900285547
:100A5000641C291906EB860000EBC6024E480068AC
:100A600000F5A87000EBC200B0F84B000880A41C91
:100A700006EB860202EBC603474A126802F5A8722B
:100A800002EBC30202F119012819202213F0B0FB76
:100A9000203406EB860202EBC6033F4A126802F5D9
:100AA000A87202EBC30202F13A012819102213F0D6
:100AB0009FFB1034291906EB860000EBC60236486E
:100AC000006800F5A87000EBC200B0F8580008807C
:100AD000A41C291906EB860000EBC6022E4800680C
:100AE00000F5A87000EBC200B0F85A000880A01C06
:100AF00084B2291906EB860000EBC602264800687E
:100B000000F5A87000EBC200B0F85C000880A01CE3
:100B100084B2291906EB860000EBC6021E48006865
:100B200000F5A87000EBC200B0F817000880A01C08
:100B300084B2291906EB860000EBC602164800684D
:100B400000F5A87000EBC200B0F815000880A01CEA
:100B500084B2291906EB860000EBC6020E48006835
:100B600000F5A87000EBC200B0F865000880A01C7A
:100B700084B206EB860000EBC6010748006800F56A
:100B8000A87000EBC10090F854002855601C84B296
:100B90000AE00000290000200400002008000020D6
:100BA0002C0000202E2B002006EB860000EBC60157
:100BB000FE48006800F5A87000EBC10090F85500F1
:100BC0002855601C84B206EB860000EBC601F7488E
:100BD000006800F5A87000EBC10090F85600285599
:100BE000601C84B206EB860000EBC601EF4800688B
:100BF00000F5A87000EBC10090F857002855601C64
:100C000084B206EB860000EBC601E848006800F5F8
:100C1000A87000EBC10090F85E002855601C84B2FB
:100C200006EB860000EBC601E048006800F5A870FE
:100C300000EBC10090F84F002855601C84B22919C0
:100C400006EB860000EBC602D848006800F5A870E5
:100C500000EBC200B0F861000880A01C84B2291922
:100C600006EB860000EBC602D048006800F5A870CD
:100C700000EBC200B0F863000880A01C84B206EB51
:100C8000860000EBC601C948006800F5A87000EBBB
:100C9000C10090F85F002855601C84B206EB860006
:100CA00000EBC601C148006800F5A87000EBC10068
:100CB00090F867002855601C84B206EB860000EBB4
:100CC000C601BA48006800F5A87000EBC10090F8B2
:100CD0004D002855601C84B206EB860000EBC6016F
:100CE000B248006800F5A87000EBC10090F84E0013
:100CF0002855601C84B206EB860000EBC601AB48A9
:100D0000006800F5A87000EBC10090F8530028556A
:100D1000601C84B2F81CBC80BDE8F0812DE9F04174
:100D2000A0B007460D46904600240026684603F012
:100D30002EF8684605F074FD06462E55641C2819E9
:100D40003246694613F054FA344410A805F068FDA1
:100D500006462E55641C2819324610A913F048FA8D
:100D600034442819102292490968F13113F040FAED
:100D70001034F81CBC8020B0BDE8F081F0B504460A
:100D80000B460021002000BF44E001EB810505EB8C
:100D9000C106864D2D6805F5A87515F8365015F075
:100DA000010F2FD001EB810505EBC1067F4D2D68AA
:100DB00005F5A87505EBC60595F84A501D54451C68
:100DC000A8B21E1801EB810505EBC107774D2D6810
:100DD00005F5A87505EBC705B5F80D503580851CE0
:100DE000A8B21E1801EB810505EBC1076F4D2D68F8
:100DF00005F5A87505EBC705B5F80B503580851CC2
:100E0000A8B205E01D1800262E602E71451DA8B25F
:100E10004D1CE9B23029B8DBE51CA080F0BD08B557
:100E20006448006800906448407801280DD141F280
:100E30008831624809F008FF012806D100215F4887
:100E400009F002FF0098FFF7B7FC08BD08B5594844
:100E5000001D006800905848807801280DD141F2AB
:100E60008831574809F0F0FE012806D10021544886
:100E700009F0EAFE0098FFF79FFC08BD08B54D4851
:100E80000830006800904F48007801280AD10020FF
:100E90004C4908700FF06FF94B4908600FF06BF97F
:100EA0004A49086044F62061474809F0CDFE012810
:100EB00018D18A224649474813F06EF990B14FF491
:100EC0007A71424809F0C0FE01280BD100213F4849
:100ED00009F0BAFE8A223E493E4813F089F900988B
:100EE000FFF76AFC08BD08B532480C300068009076
:100EF0003148007898B941F27071374809F0A4FE82
:100F0000012802D03548007848B90021324809F05C
:100F10009BFE0098FFF750FC01203049087008BD87
:100F20002DE9F04106460F46154600246820285555
:100F3000641CB0880930A6F801002819B6F8011021
:100F40000180A41C2819D6F803100160241DB28862
:100F50002819394613F04CF930792044C4B221469F
:100F6000284609F048FE2855601CC4B216202855B2
:100F7000BDE8F081ADF5047D4FF4807144A813F015
:100F8000D8F94FF4807104A813F0D3F90020019030
:100F9000029003900024FFF701FC4FF47A6009F0FF
:100FA0006BFE00BF0E48007801281BE00400002003
:100FB0000800002010530508290000201800002018
:100FC0001C00002020000020100000201400002041
:100FD000502B00207C450020240000202800002009
:100FE0002C00002034D100242DE02648407804EB6A
:100FF0008401254A515C884223D104EB84001146C8
:10100000085C8DF807001F4881788DF80A10C278B7
:1010100004EB84001C490844D0F8013044A901A81D
:10102000984704AA44A901A8FFF77AFF0DF1050328
:1010300004AA022101200AF07BFB12480021016072
:1010400005E0601CC4B2114800788442CDDB00BFCB
:1010500001200F49087008460078012801D1FFF7E8
:101060000DFF0BF034F80BF05DFA0A2009F004FED6
:1010700098E710B50723074A0021AFF207100AF0DE
:101080002BFC10BD2C000020E85205080C000020AD
:10109000290000207845002010B5FFF71DF9FD4913
:1010A000086010BD7CB5002402F022FC01900020F5
:1010B0000090BDF806000A2190FBF1F085B2BDF862
:1010C000040090FBF1F086B26A46294630460AF0E9
:1010D000F3F90446BDF90010EE4800684185214649
:1010E00001200BF089F9EB48006890F8280064F3C0
:1010F000C300E849096881F82800E648006890F8CC
:10110000AD0064F34510E349096881F8AD007CBD8A
:1011100010B5E048006890F8AD00C0F3400000282A
:1011200042D1DC48006890F8AD0010F0010F3BD1CF
:10113000D848006890F8AE00C0F30010A0BBD548B6
:101140000068416B806B00235940584001432BD10C
:10115000D0480068416D806D59405840014323D10B
:10116000CC48006890F8AD00C0F38000E0B9C948F1
:10117000006890F8AD00C0F3C000A8B9C548006889
:1011800090F8AD000121B1EBD01F0DD0C14800682F
:1011900090F8AE0010F0010F06D1BE48006890F83C
:1011A000AE00C0F3400078B1012104200BF024F917
:1011B000B848006890F8AD0020F010001030B54934
:1011C000096881F8AD000DE0002104200BF014F94E
:1011D000B048006890F8AD0020F01001AD480068FC
:1011E00080F8AD1010BD10B54FF4FA71AA4809F09F
:1011F0002BFD012810D10021A74809F025FDA748A3
:10120000007808B9012000E00020A44908700846D1
:10121000017805200BF0F0F810BD10B5FFF742FF84
:10122000FFF776FFFFF7DFFF10BD10B501200BF0D1
:101230003FF918B39A48B0F900100088401C00B27A
:10124000974A108096293CDB9620114608809148E9
:10125000006890F8280020F00400001D8D490968FE
:1012600081F828008B48006890F8AD0020F002005B
:10127000801C8849096881F8AD0022E08848B0F9EF
:1012800000100088401E00B2854A108011F1960FB0
:1012900017DC6FF09500114608807E48006890F8D2
:1012A000280020F004007B49096881F8280079486B
:1012B000006890F8AD0020F002017648006880F8E0
:1012C000AD1010BD10B500200BF0F2F8C0B175489C
:1012D00090F900100078401C40B2724A1070052945
:1012E00026DB0520114608706A48006890F8AD00BA
:1012F00020F00100401C6749096881F8AD0017E043
:10130000684890F900100078401E40B2654A10709D
:1013100011F1050F0CDCFB20114608705D480068D8
:1013200090F8AD0020F001015A48006880F8AD1037
:1013300010BD10B502200BF0BBF8C0B15A4890F9AF
:1013400000100078401C40B2574A1070052926DB77
:101350000520114608704F48006890F8AE0020F054
:10136000400140314B48006880F8AE1017E04E480D
:1013700090F900100078401E40B24B4A107011F1F5
:10138000050F0CDCFB20114608704248006890F8FD
:10139000AE0020F040013F48006880F8AE1010BD5C
:1013A00010B500203B49096891F8AD10C1F3400128
:1013B000002942D13749096891F8AD1011F0010FA9
:1013C0003BD13449096891F8AE10C1F30011A1BBBB
:1013D00030490A68516B926B0024614062401143AE
:1013E0002BD12C4909684A6D896D624061400A43DE
:1013F00023D12849096891F8AD10C1F38001E1B902
:101400002449096891F8AD10C1F3C001A9B9214977
:10141000096891F8AD100122B2EBD11F0DD01D4922
:10142000096891F8AE1011F0010F06D11949096849
:1014300091F8AE10C1F3400119B1012001211B4AFE
:10144000117010BD10B5FFF7F0FEFFF73BFFFFF77F
:1014500070FFFFF7A5FF10BD0E480068416F806F59
:101460004FF6FF72504070EA01012CD10948006824
:1014700090F8AF0010F0010F1AD10648006890F8FC
:10148000280020F00200801C0249096881F8280029
:1014900023E0000030000020380000203C00002045
:1014A0003E000020400000204100002034000020C9
:1014B0006348006890F8280020F00200604909683D
:1014C00081F8280009E05E48006890F8280020F0C4
:1014D00002005B49096881F82800704710B502F0E6
:1014E000B9FB57490968B1F92A1088420BDC544806
:1014F000006890F8AE0020F01001103150480068EC
:1015000080F8AE1012E002F0A5FB32384C490968B1
:10151000B1F92A10884209DD4948006890F8AE0008
:1015200020F010014648006880F8AE1010BD10B5DC
:101530000020434909684A6D896D0024624061407A
:101540000A4350D13E4909684A6B896B6240614049
:101550000A4348D13A49096891F8AE10C1F3001125
:10156000002940D136490A68D16E126F614062404D
:10157000114338D13249096891F8AD10C1F34001E7
:1015800089BB2F49096891F8AD1011F0010F2AD1DC
:101590002B490968B6310A6A496A624061400A43C8
:1015A00021D127490968CA6D096E00235A40594064
:1015B0000A4318D1224909684A6E896E6240614027
:1015C0000A4310D11E49096891F82810C1F340015F
:1015D00049B91C49097831B91949096891F8AE101F
:1015E000C1F3801101B1012010BD10B5FFF734FF28
:1015F000FFF774FF10BDFFF74FFD4FF4FA7009F0CD
:101600003BFB00BFFFF709FEFFF7EFFFFFF71AFFF5
:1016100003F033FC07F0B7FF08F02EF80AF057FD8F
:101620000AF080FF0A2009F027FBEBE710B508233A
:10163000054A0021AFF241000AF04EF910BD00004A
:10164000300000206C010020044A0020FE48704752
:1016500010B541F2D041FC4812F06BFEFEF73CFEA3
:10166000FA49086010BD70B504460020092C31D23B
:10167000DFE804F03005060708090A0B0C0000BF7C
:1016800000BF00BF00BF00BF00BF00BF02EB82036E
:1016900003EBC205EE4B03EBC5030D182D88A3F831
:1016A0001150801C02EB820303EBC205E84B03EBF5
:1016B000C5030D182D88A3F81350801C0D5C02EB98
:1016C000820303EBC206E24B03EBC60383F84A50E6
:1016D000401C00E000BF00BF70BD1CB500200090A2
:1016E0000190002400BF40E004EB840000EBC40143
:1016F000D74830F8310040F2CE31084208D104EB2F
:101700004401D148303000EB41004079012806D136
:101710009DF80300401CC0B28DF8030023E004EBE9
:10172000840000EBC401CA4810F8310010F0010F2A
:1017300006D19DF80000401CC0B28DF8000012E0F8
:1017400002F03FF904EB840101EBC402C04901EB54
:10175000C20191F84A10884205DC9DF80200401C45
:10176000C0B28DF80200601CC4B2302CBCDB9DF806
:1017700003009DF8001008449DF802100844C0F1D1
:101780003000C0B28DF8010030208DF80400AF4861
:10179000006890F8AF0010F0010F07D00020009013
:1017A000019030208DF803008DF80400A7480068F0
:1017B000009940F8B11F9DF8041001711CBD2DE97E
:1017C000FC5F002400200090A048006890F8AF0063
:1017D00010F0010F03D000219E4809F035FA0024D3
:1017E00071E004EB44019848303000EB410040794F
:1017F00001283ED19548006890F8AF0010F0010F25
:101800001CD14EF66021934809F01EFA01284BD1F5
:101810008E480068D0F874B0D0F878A02246012530
:1018200000262846314612F091FC4BEA00024AEAB3
:101830000103864800684267836735E08348006893
:10184000D0F874A0D0F878B0224601274FF00008F5
:101850003846414612F07AFC0A46C1430AEA010AB8
:101860002BEA020B79480068C0F874A0C0F878B081
:101870001AE076480068D0F874A0D0F878B0224614
:101880004FF00109002001904846019912F05EFCDA
:101890000A46C1430AEA010A2BEA020B6B480068B8
:1018A000C0F874A0C0F878B004EB840000EBC40169
:1018B000674810F831000121B1EBD01F01D10120A0
:1018C0000090601CC4B2302C8BDB60480068416F14
:1018D000806F00225140504001430BD05B480068AC
:1018E00090F8AE0020F0080108315848006880F8F0
:1018F000AE1009E05548006890F8AE0020F00801ED
:101900005248006880F8AE1050480099006890F87E
:10191000AE2061F382024D48006880F8AE20BDE839
:10192000FC9F2DE9F04FB1B00446002005900390D4
:101930000490029004EB840000EBC401444810F8CA
:10194000310010F0010F16D040480068D0F82CB0DC
:10195000D0F830A02246012500262846314612F054
:10196000F5FB4BEA00024AEA010A38480068C26205
:10197000C0F830A025E035480068D0F82CA0D0F899
:1019800030B0224601274FF000083846414612F099
:10199000DDFB0A46C1430AEA010A2BEA020B2B4887
:1019A0000068C0F82CA0C0F830B004EB840101EB53
:1019B000C402274901EBC20101F11100572112F0C5
:1019C00096FC04EB840000EBC401214810F83100C0
:1019D000C0F34000B8B11D480068D0F834B0D0F86A
:1019E00038A022464FF0010900200690484606998B
:1019F00012F0ACFB4BEA00034AEA0102134800680C
:101A0000436382631AE011480068D0F834A0D0F82C
:101A100038B0224601210020CDE907010846079988
:101A200012F094FB0A46C1430AEA010A2BEA020BB0
:101A300006480068C0F834A0C0F838B004EB840051
:101A400000EBC401024807E03852002044000020A7
:101A5000885300204800002010F83100C0F38000B7
:101A6000C8B1FE480068D0F854A0D0F858B022465B
:101A700001210020CDE909010846099912F066FB11
:101A80004AEA000A4BEA010BF4480068C0F854A087
:101A9000C0F858B01AE0F1480068D0F854A0D0F867
:101AA00058B0224601210020CDE90B0108460B99D0
:101AB00012F04CFB0A46C1430AEA010A2BEA020B68
:101AC000E6480068C0F854A0C0F858B004EB8400A1
:101AD00000EBC401E24810F83100C0F3C000C8B107
:101AE000DE480068D0F8D6A0D0F8DAB0224601214E
:101AF0000020CDE90D0108460D9912F027FB4AEAB6
:101B0000000A4BEA010BD5480068C0F8D6A0C0F81F
:101B1000DAB018E0D1480068D0F8D6A0D0F8DAB032
:101B2000224601210020CDE90F0108460F9912F04D
:101B30000DFB2AEA00002BEA010BC8490968C1F82D
:101B4000D600C1F8DAB004EB840000EBC401C4484D
:101B500010F83100C0F30010C8B1C0480068D0F8D8
:101B6000B6A0D0F8BAB0224601210020CDE911017B
:101B70000846119912F0EAFA4AEA000A4BEA010B08
:101B8000B6480068C0F8B6A0C0F8BAB01AE0B348CA
:101B90000068D0F8B6A0D0F8BAB0224601210020E3
:101BA000CDE913010846139912F0D0FA0A46C14351
:101BB0000AEA010A2BEA020BA8480068C0F8B6A09E
:101BC000C0F8BAB004EB840000EBC401A44810F8DC
:101BD0003100C0F38010C8B1A0480068D0F8C6A09A
:101BE000D0F8CAB0224601210020CDE915010846EF
:101BF000159912F0ABFA4AEA000A4BEA010B974832
:101C00000068C0F8C6A0C0F8CAB01AE093480068DF
:101C1000D0F8C6A0D0F8CAB0224601210020CDE9F4
:101C200017010846179912F091FA0A46C1430AEAC9
:101C3000010A2BEA020B89480068C0F8C6A0C0F868
:101C4000CAB004EB840000EBC401854810F83100F1
:101C50000121B1EBD01F18D180480068D0F8CEA088
:101C6000D0F8D2B022460020CDE9190108461999D2
:101C700012F06CFA4AEA000A4BEA010B7748006856
:101C8000C0F8CEA0C0F8D2B018E074480068D0F810
:101C9000CEA0D0F8D2B0224601210020CDE91B0110
:101CA00008461B9912F052FA2AEA00002BEA010BAF
:101CB0006A490968C1F8CE00C1F8D2B004EB8400CB
:101CC00000EBC401664800EBC100407810F0010F42
:101CD00018D062480068D0F85CB0D0F860A0224606
:101CE00001210020CDE91D0108461D9912F02EFAB0
:101CF0004BEA00024AEA010A58480068C265C0F887
:101D000060A017E055480068D0F85CA0D0F860B03B
:101D1000224601210020CDE91F0108461F9912F03B
:101D200015FA2AEA00002BEA010B4C490968C8653C
:101D3000C1F860B004EB840000EBC401484800EB3C
:101D4000C1004078C0F34000C8B144480068D0F8F2
:101D50003CA0D0F840B0224601210020CDE921016D
:101D60000846219912F0F2F94AEA000A4BEA010BFF
:101D70003A480068C0F83CA0C0F840B01AE03748C4
:101D80000068D0F83CA0D0F840B0224601210020E5
:101D9000CDE923010846239912F0D8F90A46C14338
:101DA0000AEA010A2BEA020B2C480068C0F83CA0A2
:101DB000C0F840B004EB840000EBC401284800EBFD
:101DC000C1004078C0F30010C8B124480068D0F8C2
:101DD00064A0D0F868B0224601210020CDE9250199
:101DE0000846259912F0B2F94AEA000A4BEA010BBB
:101DF0001A480068C0F864A0C0F868B017E0174837
:101E00000068D0F864A0D0F868B022460121002014
:101E1000CDE927010846279912F098F92AEA00002F
:101E20002BEA010B0D4909684866C1F868B004EB5C
:101E3000840000EBC4010A4800EBC1004078C0F305
:101E40004010E8B105480068D0F844B0D0F848A088
:101E5000224601210020CDE9290103E044000020B1
:101E6000885300200846299912F070F94BEA0002C5
:101E70004AEA010AFE4800684264C0F848A018E037
:101E8000FB480068D0F844A0D0F848B022460121B1
:101E90000020CDE92B0108462B9912F057F9C243D7
:101EA0000AEA020A2BEA0100F1490968C1F844A0D4
:101EB000886404EB840000EBC401EE4800EBC10031
:101EC0004078C0F38010C0B1E9480068D0F84CB049
:101ED000D0F850A0224601210020CDE92D0108466E
:101EE0002D9912F033F94BEA00024AEA010AE04860
:101EF0000068C264C0F850A01AE0DD480068D0F85D
:101F00004CA0D0F850B0224601210020CDE92F018D
:101F100008462F9912F01AF90A46C1430AEA010A43
:101F20002BEA020BD2480068C0F84CA0C0F850B0B1
:101F300004EB840000EBC401CE4800EBC100407804
:101F40000121B1EBD01F17D103AA02A9FE2000F096
:101F5000A1FC0120234603AA00909DF8081009F077
:101F6000E2FEC348006890F8AE0020F02001203166
:101F7000BF48006880F8AE1031B0BDE8F08F2DE9A1
:101F8000FE4F0E461446002504EB840000EBC4010E
:101F9000B84810F83100C0097ED104EB840000EB92
:101FA000C401B44800EBC100711909880180AD1C5F
:101FB00004EB840000EBC401AE4810F8310010F0CF
:101FC000010F09D0705DAC4908556D1C7119AA4A02
:101FD000105D2246FFF747FBA5480068D0F89CB08B
:101FE000D0F8A0A0224601274FF00008384641460D
:101FF00012F0ACF80BEA00020AEA010A00214A409A
:102000008AEA010A52EA0A0255D004EB840000EB86
:10201000C401984800EBC1004078C0F3800048B983
:1020200004EB840000EBC401924810F8310010F07A
:10203000010F40D18E480068D0F89CA0D0F8A0B025
:1020400022464FF00109002000904846009912F006
:102050007DF80A46C1430AEA010A2BEA020B8448CA
:102060000068C0F89CA0C0F8A0B004EB840000EBAE
:10207000C401804800EBC1004078C0F3C000D0B17B
:102080007B480068D0F8A4A0D0F8A8B0224601216F
:102090000020CDE9010100E010E00846019912F0AE
:1020A00055F84AEA000A4BEA010B71480068C0F88B
:1020B000A4A0C0F8A8B02046FFF733FCBDE8FE8F0F
:1020C00010B500206A4909684A6B896B0024624098
:1020D00061400A4307D1664909684A6D896D6240CB
:1020E00061400A4300D0012010BD2DE9F74F88B0B0
:1020F0001446002500200590012004900020029045
:1021000003900998405D05906D1C6D1C0598012891
:1021100006D0022805D0032804D0042804D102E008
:1021200002E001E000E000BF00BF5448015D0598F7
:10213000401E012282401143C8B25049085508464A
:10214000005D0F2856D100200855FFF7B9FF012880
:1021500003D102208DF8080044E045480068D0F81B
:102160009CB0D0F8A0A02246012600273046394670
:1021700011F0ECFF4BEA00024AEA01033C48006818
:102180002C30026743673A480068D0F8A4A0D0F822
:10219000A8B02246B0464FF000094046494611F02B
:1021A000D5FF0A46C1430AEA010A2BEA020B30486E
:1021B0000068C0F8A4A0C0F8A8B022460121002001
:1021C000CDE906010846069911F0C0FF2C4AD2E974
:1021D000003223EA000022EA0101294A03C2012059
:1021E0008DF808000220234602AA009001200499DD
:1021F00009F099FD0BB0BDE8F08F2DE9F84F0E46C0
:1022000014460025705D10F0010F10D004EB84001F
:1022100000EBC401174810F8310020F00101491CFF
:1022200004EB840000EBC402124800F832106D1C6D
:1022300004EB840000EBC4010E4810F8310010F0EC
:10224000010F2DD0715D04EB840000EBC40209483E
:1022500000EBC20081726D1C04EB840000EBC40132
:10226000044800EBC10071190988A0F80B1009E0BF
:1022700044000020885300203852002008520020DB
:1022800070010020AD1C04EB840000EBC401F74892
:1022900000EBC10071190988A0F80D10AD1C0BE00E
:1022A00004EB840000EBC401F04800EBC100002106
:1022B000C0F80A1081736D1D01F0F2FB04EB84017C
:1022C00001EBC402E94901EBC201B1F80D108842EB
:1022D00016DCE7480068D0F86CB0D0F870A0224651
:1022E00001274FF000083846414611F02FFF4BEA16
:1022F00000024AEA0103DE480068C26603671AE08A
:10230000DB480068D0F86CA0D0F870B022464FF0DF
:102310000109002000904846009911F017FF0A4675
:10232000C1430AEA010A2BEA020BD1480068C0F84F
:102330006CA0C0F870B004EB840000EBC401CB4883
:1023400000EBC10071190988A0F80F1000BFBDE8AB
:10235000F88F2DE9F04106460F4615460024A046A9
:1023600005EB850000EBC501C04810F8310020F0F6
:102370000100401C05EB850101EBC502BB4901F8DA
:102380003200112F73D2DFE807F0720943737475BE
:10239000767778919293ADD2FAF8F70005EB850045
:1023A00000EBC501B14800EBC10031190988A0F864
:1023B0001110A41C05EB850000EBC501AB4800EB38
:1023C000C10031190988A0F81310A41C315D05EB78
:1023D000850000EBC502A54800EBC20080F84A105A
:1023E000641C315D05EB850000EBC5029F4800EBE6
:1023F000C20080F86010641C05EB850000EBC5018D
:102400009A4800EBC10090F860009A49485556E19F
:1024100005EB850000EBC501944800EBC1003119C4
:102420000988A0F85010A41C315D05EB850000EB75
:10243000C5028E4800EBC20080F85210641C315D6A
:1024400005EB850000EBC502884800EBC20080F870
:102450003910641C05EB850000EBC501834800EBD7
:10246000C10031190988A0F84B10A41C27E125E10F
:1024700000BF00BF00BF00BF00BF082F01D0062073
:1024800000E00220804605EB850202EBC503774A97
:1024900002EBC3021932FB1E03EB430302EB4300C2
:1024A0003119424611F0A4FE444408E100BF00BFC8
:1024B0000B2F01D0062000E00420804605EB8502AA
:1024C00002EBC503694A02EBC3023A32A7F10903E2
:1024D00003EB430302EB43003119424611F088FE3F
:1024E0004444ECE005EB850000EBC5015F4800EBE0
:1024F000C10031190988A0F85810A41C05EB85000B
:1025000000EBC501594800EBC10031190988A0F85A
:102510005A10A41C05EB850000EBC501534800EBE5
:10252000C10031190988A0F85C10A41CC7E005EBB4
:10253000850000EBC5014D4800EBC1003119098849
:10254000A0F81710A41C05EB850000EBC501474857
:1025500000EBC10031190988A0F81510A41C05EB87
:10256000850000EBC501414800EBC1003119098825
:10257000A0F86510A41CA2E07EE048E0FFE7305D13
:1025800041B205EB850000EBC502384800EBC20004
:1025900080F85410641C305D41B205EB850000EBFF
:1025A000C502324800EBC20080F85510641C305D53
:1025B00041B205EB850000EBC5022C4800EBC200E0
:1025C00080F85610641C305D41B205EB850000EBCD
:1025D000C502264800EBC20080F85710641C305D2D
:1025E00041B205EB850000EBC502204800EBC200BC
:1025F00080F85E10641C315D05EB850000EBC502C0
:102600001A4800EBC20080F84F10641C57E005EB3D
:10261000850000EBC501154800EBC10031190988A0
:10262000A0F86110A41C05EB850000EBC5010F4864
:1026300000EBC10031190988A0F86310A41C315DBA
:1026400005EB850000EBC502084800EBC20080F8EE
:102650005F10641C315D05EB850000EBC50203488B
:1026600000EBC20080F86710641C28E0885300204B
:102670004400002038520020315D05EB850000EB5E
:10268000C502774800EBC20080F84D10641C315D34
:1026900005EB850000EBC502714800EBC20080F835
:1026A0004E10641C315D05EB850000EBC5026C48E3
:1026B00000EBC20080F85310641C00E000BF00BFB4
:1026C000BDE8F0812DE9F04104460E4617461D464F
:1026D000092C13D2DFE804F01205060708090A0BDB
:1026E0000C0000BF00BF00BF00BF00BF00BF00BFA5
:1026F0002A4639463046FFF72CFE0CE005EB8501F3
:1027000001EBC502564901EBC20101F1110057214D
:1027100011F0EDFD00BF00BFBDE8F0812DE9F041F3
:1027200080460D461646002700242F5D641C641C5D
:1027300029194C4A905D33463A46FFF7C3FFBDE87E
:10274000F0817CB506460C4600BF0020019046A0F3
:102750000068009001A9304608F045FB054604EBEF
:10276000840101EBC4023E4901EBC201881D302205
:10277000042111F0B4FD04EB840101EBC4023849DB
:1027800001EBC201891DC5F1040288182A4601A97E
:1027900011F02EFD04EB840000EBC401304800EB87
:1027A000C1000099C0F802107CBD2DE9F8438146B4
:1027B0000E4614464FF00008002000900025002728
:1027C000775D6D1C701900880090AD1C27B92146FB
:1027D000BDF80000FFF7B5FF24480078B84204D1E7
:1027E000BDF80000224921F81400204600F011FB3A
:1027F0008046BDF80000804504D02146BDF80000A9
:1028000000F00EFBBDF8001007EB47021948006806
:1028100000F2771000EB421000EB44000180BDE8AD
:10282000F883FEF715FF4FF4FA6008F025FA00BFB1
:1028300008F0C0F8FEF7C3FFFEF74FFF09F047FCB2
:1028400009F070FE0A2008F017FAF1E710B504232A
:10285000094A0021AFF2350009F03EF810BD000032
:10286000885300203852002030323030950000204C
:10287000F08B0020440000200452002010B5FDF72A
:102880002BFDFE49086000F0BBFAFD49086000F02E
:10289000B9FA10BD2DE9FE4306460F461546002441
:1028A00001F08FF8804601F068F9029001F0F8F825
:1028B000019000200090F1480068B0F8AD004DF2A2
:1028C0008F31084000902819BDF800100180A41C29
:1028D00005F80480641C2819BDF808100180A41CA8
:1028E0002819BDF804100180A41C2E55641C3C70EE
:1028F000BDE8FE832DE9F04F87B0002004900290E0
:102900000390DE480068D0F87CB0D0F880A0DD48A5
:102910000278012400252046294611F017FC0BEA15
:1029200000020AEA010300214A404B401A4325D124
:10293000D2480068D0F88CB0D0F890A0D148027886
:10294000012600273046394611F000FC0BEA000250
:102950000AEA010300214A404B401A430ED102AA61
:1029600004A90020FFF796FF01200090C5480378D6
:1029700002AA9DF81010012009F0D5F9C14800788D
:1029800000EB4001C04800EB41000079401CC1B29F
:10299000BC48007800EB4002BB4800EB42000171EC
:1029A000B849097801EB4102B74901EB42004EF604
:1029B000602108F049F901284FD1B248007800EBB6
:1029C0004001B14800EB410000790A2845DB0A21AB
:1029D000AC48007800EB4002AB4800EB42000171CC
:1029E000A6480068D0F87CB0D0F880A0A54802784E
:1029F0004FF001084FF000094046494611F0A6FB90
:102A00000BEA00020AEA010300214A404B401A4344
:102A100023D19A480068D0F88CB0D0F890A099489B
:102A2000027801210020CDE905010846059911F041
:102A30008DFB0BEA00020AEA010A00214A408AEAF9
:102A4000010A52EA0A0208D101218E48007800EBFF
:102A500040028D4800EB420041718A480078401CDA
:102A60008849087008460078302801D10020087095
:102A700007B0BDE8F08F2DE9FE4F4FF001080020B0
:102A8000019002907D480068D0F87CA0D0F880903A
:102A90007E480278012400252046294611F056FB85
:102AA0000AEA000209EA010300214A404B401A43A6
:102AB0001FD172480068D0F88CA0D0F8909073486D
:102AC0000278012600273046394611F03FFB0AEA1A
:102AD000000209EA010300214A404B401A4308D191
:102AE000032000906948037801AA4146012009F0BB
:102AF0001AF966480078401C644908700846007856
:102B0000302801D100200870BDE8FE8F2DE9FE4F6E
:102B10004FF0010900200190029000245C480478E5
:102B200045E004EB840000EBC4015A4810F8310082
:102B300010F0010F39D05648047050480068D0F8A2
:102B40007CB0D0F880A052480278012500262846A3
:102B5000314611F0FBFA0BEA00020AEA01030021F8
:102B60004A404B401A431FD144480068D0F88CB00B
:102B7000D0F890A04648027801278846384641465A
:102B800011F0E4FA0BEA00020AEA010300214A40CC
:102B90004B401A4308D1802000903D48037801AA99
:102BA0004946012009F0BFF803E0601CC4B2302C94
:102BB000B7DB00BF36480078401C3549087008462E
:102BC0000078302801D100200870BDE8FE8FF0B5F4
:102BD000A1B0054600240026402111A811F0A9FB50
:102BE00000271DB92648006846880BE0681E81B2A0
:102BF00001A800F0F9FB402201A911A811F03DFB4A
:102C0000BDF85860002416E0FEF7CAFB88B904EB53
:102C100044011D4800EB4100407950B91848006854
:102C2000001D00EB44000088B04202D00EB1012725
:102C300003E0601CC4B2302CE6DB00BF384621B094
:102C4000F0BD0A7001230370704700B5A3B00020E7
:102C5000229020902190402110A811F06AFB0E488C
:102C60000078002879D14FF4C8710C4807F0ECFFC8
:102C7000012872D10021094812E000004C00002018
:102C80005000002054000020685200205500002011
:102C90005600002088530020580000205C000020CF
:102CA00007F0D2FF504801780078401C4E4A10705F
:102CB00005293BDB0020114608704C480078FFF7DF
:102CC00086FF012823D14948007840B9684600F0C2
:102CD000B0F84022694610A811F0CFFA0BE0434843
:102CE0000078401E81B2684600F07EFB40226946B3
:102CF00010A811F0C2FA02208DF840002F2214A96A
:102D0000684611F0BAFA10A80FC805F05EFF374800
:102D10000078401C3549087000F03BFD401C3349E9
:102D20000978884202DC00203049087000F031FD4B
:102D3000401C2E49097888420FDD2C48027820A9D2
:102D400022A8FFF77EFFF42000902948037820AAEC
:102D50009DF88810012008F0E6FF23B000BD90B078
:102D6000202108A811F0E5FAFFF788FD4FF4FA607A
:102D700007F082FF00BF0A211E4807F065FF012807
:102D800014D100211B4807F05FFF684602F04FF89E
:102D90002022694608A811F070FA9DF8210008B9B0
:102DA000FFF753FFFFF7A6FDFFF765FE642112480A
:102DB00007F04AFF012805D100210F4807F044FF22
:102DC000FFF7A4FE09F083F909F0ACFB052007F03A
:102DD00053FFD0E710B50523084A0021AFF2810068
:102DE00008F07AFD10BD00006000002061000020A6
:102DF000570000206400002068000020046F0020BD
:102E0000FA48704710B56021F848001D11F06FFABC
:102E100010BD0146F548001D00EB410000887047D9
:102E2000F24A121D02EB410210807047EF48008801
:102E3000704710B504463F22ED49204611F0D8F9FD
:102E400010BD2DE9F04387B00025002005900690C5
:102E500003900490002400260027804602908146BB
:102E6000019005A8011907220D2008F003FD03A811
:102E7000011907220D200AF051F805A908190521AA
:102E800007F080FE804603A90819052107F07AFEA5
:102E9000814605A8065D03A8075D641C241D05A8DE
:102EA00020440088029003A8204400880190A52EA9
:102EB0000BD1BDF80800804507D1DDF81550072279
:102EC00005A90D200AF01AF80EE0A52F0BD1BDF8C8
:102ED0000400814507D1DDF80D50072203A90D201C
:102EE00008F0BDFC00E00125284607B0BDE8F083EE
:102EF00000B5A1B0402111A811F01BFAFFF7A1FF06
:102F0000BA49088001A8FFF794FF402201A911A83F
:102F100011F0B3F9BDF85800B449488021B000BDA4
:102F200030B595B040F26F141822B2A10FA811F07D
:102F3000A4F9254617200E9000200C900D900A90C1
:102F40000B90242101A811F0F4F900200090A7486B
:102F50000088A04206D11722AC490FA811F01CF935
:102F6000002861D0A148048017220FA9A74811F0BA
:102F70003FF9A5208DF83000CDF8315005210CA87F
:102F800007F000FE0090BDF80000ADF83500072204
:102F90000CA90D2009F0B2FF07220CA90D2008F0A2
:102FA0005EFCA5208DF82800BDF83800ADF829009A
:102FB00003210AA807F0E6FD0090BDF80000ADF877
:102FC0002B0005220AA9182009F098FF05220AA95A
:102FD000182008F044FCA5208DF80400BDF8382026
:102FE0008A490DF1050011F003F9BDF83800401CC5
:102FF00081B201A807F0C6FD009001A9BDF8380014
:10300000401C0844BDF800100180BDF83800C01C09
:1030100082B201A9212009F071FFBDF83820D21C2D
:1030200001A9212008F01BFC15B030BD1FB578A206
:1030300007CA01AB07C300200090072101A807F0D1
:10304000A1FD0090BDF80000ADF80B00092201A918
:10305000002009F053FF1FBD7048007870472DE92C
:10306000F04186B000200490059002900390002467
:1030700000250026002701908046009004A8011931
:103080000522182008F0F6FB02A8011905221820D5
:1030900009F044FF04A90819032107F073FD07464E
:1030A00002A90819032107F06DFD804604A8055DFB
:1030B00002A8065D641CA41C04A82044008801909A
:1030C00002A8204400880090A52D0DD1BDF8040071
:1030D000874209D15148BDF811100180052204A989
:1030E000182009F00BFF12E0A52E0DD1BDF800004D
:1030F000804509D14948BDF809100180052202A97F
:10310000182008F0ACFB02E000204449087006B02B
:10311000BDE8F08170B506460D460024FFF79CFF20
:103120000446002C06DD1E2C04DC224637493046BE
:1031300011F05EF82C7070BD2DE9F047C4B0842109
:1031400023A811F0F6F8842102A811F0F2F8002467
:1031500000260027A046002001908146009000250F
:103160008246FFF779FF0546002D6FDD1E2D6DDCD1
:10317000E81C1FFA80FA23A801195246212008F002
:1031800079FB02A801195246212009F0C7FE6A1CEA
:1031900091B223AA101907F0F5FC80466A1C91B27F
:1031A00002AA101907F0EEFC814623A8065D02A8CA
:1031B000075D641C6019C4B223A8204400880190F4
:1031C00002A8204400880090A52E29D1BDF8040053
:1031D000804525D12A460DF18D010C4811F008F8E3
:1031E000524623A9212009F089FE2FE01B7A0020F6
:1031F000086F00204344475F4D445F425F42315FA8
:103200003230305F3336372E62696E005D7B0020CE
:10321000A57A6C6412040100000000006C0000201C
:10322000A52F0FD1BDF8000081450BD12A460DF125
:103230000901F94810F0DCFF524602A9212008F0EC
:103240000EFB03E02946F44811F051F844B0BDE804
:10325000F08730B5EDB005460C464FF4D072EF491B
:1032600005A811F00AF81421684611F062F8172C2D
:1032700008DA04EBC40005AA02EB400112226846FA
:1032800010F0B6FF12226946284610F0B1FF6DB06B
:1032900030BD0FB430B59FB044210EA811F049F8ED
:1032A000002400200D9000250EA908193F2222A914
:1032B00010F09EFF3F3421460EA807F063FC0D90EE
:1032C0000EA82044BDF834100180A41C2F2226A98A
:1032D000684610F0D2FF22A80FC805F063FF05462C
:1032E00022460EA9284608F0BAFAA8B222460EA92C
:1032F00009F004FE1FB030BC5DF814FB0FB470B5CC
:1033000092B0269D442101A811F013F8002400205A
:10331000009000269DF85900022827D1C5EB8511A1
:10332000BF4A88183F2216A910F062FF01A90819A8
:103330003F2216A910F05CFF3F34214601A807F098
:1033400021FC009001A82044BDF800100180A41CBD
:10335000284605F056FF0646224601A9304608F0E9
:103360007EFAB0B2224601A909F0C8FD12B070BCC5
:103370005DF814FB0FB430B593B0269D442102A82C
:1033800010F0D7FF00240020019002A908193F2265
:1033900016A910F02DFF3F34214602A807F0F2FBDA
:1033A000019002A82044BDF804100180A41C05EB84
:1033B000851101F2F110224602A908F050FA05EB3E
:1033C000851101F2F11188B2224602A909F096FD99
:1033D000C5EB8511924A88183F2216A910F008FF04
:1033E00013B030BC5DF814FB70B505460C46C4EB59
:1033F00084108B4A81183F22284610F0F9FE70BDD8
:10340000F0B5C7B0442136A810F093FF442125A899
:1034100010F08FFF00260020249000272390002525
:1034200014211EA810F085FF002400BF86E00025AF
:1034300036AA511904EB841202F2F110412208F06D
:1034400019FA25AA511904EB841202F2F110412253
:1034500009F064FD36A948193F2107F093FB0646A1
:1034600025A948193F2107F08DFB07463F3536A8AF
:1034700028440088249025A8284400882390BDF87B
:103480009000864210D1C4EB8411654A88183F220F
:1034900036A910F0ADFE04EB841101F2F1104122C7
:1034A00036A909F02BFD45E0BDF88C00874210D10C
:1034B000C4EB84115A4A88183F2225A910F098FEBF
:1034C00004EB841101F2F110412225A908F0C7F99B
:1034D00030E0214619A8FFF7BCFE142219A91EA846
:1034E00010F0CBFE0220C4EB84114D4A1144487009
:1034F000C4EB84111144881C12221EA910F078FE1E
:10350000BDF87800B0B1C4EB8410454A104400F116
:1035100010012F2268460C9410F06AFEC4EB841050
:103520003F4A81183F220EA810F062FE0EA80FC875
:10353000FFF720FF08F0F6FF601CC4B23948B0F86E
:103540006F00A0423FF773AF47B0F0BD70B5C0B099
:10355000402130A810F0EDFE44211FA810F0E9FE34
:1035600044210EA810F0E5FE0024002500200D9057
:1035700000260C901FA8011941224FF4D87008F0C2
:1035800079F90EA8011941224FF4D87009F0C6FC50
:103590001FA908193F2107F0F5FA05460EA90819D9
:1035A0003F2107F0EFFA06463F341FA82044008869
:1035B0000D900EA8204400880C90BDF83400854280
:1035C0000BD13F221FA9184810F012FE41221FA95B
:1035D0004FF4D87009F092FC1BE0BDF83000864231
:1035E0000BD13F220EA9104810F002FE41220EA975
:1035F0004FF4D87008F033F90BE001208DF8C100CA
:103600002F2234A9684610F038FE30A80FC8FFF703
:1036100040FE40B070BD00005D7B002020530508D7
:10362000476F00201B7A0020086F002011B583B07F
:103630000020029001900024BDF80C00FE49A1F882
:103640006F0002A82044BDF80C100180A41C0221C8
:1036500002A807F097FA019002A82044BDF80410D0
:103660000180A41C042202A940F28F1008F0F7F890
:10367000042202A940F28F1009F040FC1FBD10B5D2
:10368000A2B0402112A810F054FE002414210DA86D
:1036900010F04FFE02208DF8490000BF1DE02146CA
:1036A00008A8FFF7D6FD142208A90DA810F0E5FD23
:1036B00012220DA90DF14A0010F09AFDE0B22F225E
:1036C00016A90C90684610F0D8FD12A80FC8FFF795
:1036D00015FE08F027FF601C84B2172CDFDB22B038
:1036E00010BD70B586B000200590049003900024B2
:1036F000002502900026019004A80119042240F23E
:103700008F1008F0B7F803A80119042240F28F10B7
:1037100009F004FC04A90819022107F033FA054650
:1037200003A90819022107F02DFA0646A41C04A8D3
:1037300020440088029003A8204400880190BDF82E
:103740000800854208D104980590042204A940F29B
:103750008F1009F0D3FB13E0BDF80400864208D1B6
:1037600003980590042203A940F28F1008F077F81F
:1037700006E017200590FFF782FF1720FFF756FF9E
:10378000BDF81400AC49A1F86F00BDF8140006B0F4
:1037900070BDA948B0F86F0070470FB470B5A0B005
:1037A0006FF001050024FFF7F4FF0646402110A842
:1037B00010F0BFFD172E1ADB651E00BF14E0214676
:1037C0006846FFF711FE4022694610A810F055FD2B
:1037D00012220DF192010DF1420010F0DDFC08B94A
:1037E00025B203E0601C84B2B442E8DB06E0FFF7D8
:1037F00046FF1720FFF71AFF6FF00105A81C09D13B
:103800002F2228A9684610F038FD24A80FC8FFF71A
:10381000C4FF0546284620B070BC5DF814FB11B506
:1038200083B0002001900290009000248248039908
:10383000C0F86B1001A820447F49D1F86B100160DB
:10384000241D214601A807F09DF9009001A82044FD
:10385000BDF800100180A41C062201A940F61D50ED
:1038600009F04CFB1FBD70B588B074480068079024
:1038700000200590069003900490002400250290FB
:1038800000260190062203A940F61D5009F046FBD0
:10389000042105A807F076F90546042103A807F0DE
:1038A00071F90646241D05A820440088029003A84B
:1038B000204400880190BDF8080085420AD15E4886
:1038C0000599C0F86B10062205A940F61D5009F0B5
:1038D00015FB0BE0BDF80400864204D1564803995D
:1038E000C0F86B1002E00798FFF799FF08B070BDB1
:1038F00008B55148D0F86B00009008BD7CB505466E
:1039000000200190009000244B4880F8645001A8EA
:10391000494991F864100155641C214607F032F9B9
:10392000009001A82044BDF800100180A41C22468C
:1039300001A940F6235009F0E1FA7CBD2DE9FF41D1
:103940005F250020039002900024002601900027AC
:103950000090032202A940F6235009F0DFFA01216A
:1039600003A807F00FF90646012102A807F00AF99B
:103970000746641C03A820440088019002A8204444
:1039800000880090BDF8040086420BD12A489DF8BB
:103990000C1080F86410032203A940F6235009F0AC
:1039A000ADFA0CE0BDF80000874205D122489DF831
:1039B000081080F8641002E02846FFF79FFFBDE87A
:1039C000FF811D4890F8640070477CB505460020D3
:1039D0000190009000241848A0F8655001A82044E8
:1039E0001549B1F865100180A41C214601A807F013
:1039F000C9F8009001A82044BDF800100180A41C63
:103A0000224601A940F6265009F078FA7CBD2DE93E
:103A1000FF414FF416750020039002900024002609
:103A2000019000270090042202A940F6265009F0D8
:103A300075FA022103A803E01B7A0020C054050890
:103A400007F0A0F80646022102A807F09BF80746F7
:103A5000A41C03A820440088019002A820440088E8
:103A60000090BDF8040086420BD1FE48BDF80C1052
:103A7000A0F86510042203A940F6265009F03EFA8A
:103A80000CE0BDF80000874205D1F648BDF80810EB
:103A9000A0F8651002E02846FFF797FFBDE8FF8118
:103AA000F048B0F8650070477CB5054600200190ED
:103AB00000900024EB48A0F8675001A82044E94991
:103AC000B1F867100180A41C214601A807F05AF83C
:103AD000009001A82044BDF800100180A41C2246DB
:103AE00001A940F62A5009F009FA7CBD2DE9FF41F1
:103AF0004FF44875002003900290002400260190A6
:103B00000027009002A80119042240F62A5009F06B
:103B100005FA03A90819022107F034F8064602A99C
:103B20000819022107F02EF80746A41C03A8204418
:103B30000088019002A8204400880090BDF804008D
:103B400086420BD1C748BDF80C10A0F867100422BC
:103B500003A940F62A5009F0D1F90CE0BDF80000A5
:103B6000874205D1BF48BDF80810A0F8671002E0F1
:103B70002846FFF799FFBDE8FF81BA48B0F8670013
:103B800070477CB505460020019000900024B548A0
:103B9000A0F8695001A82044B249B1F86910018029
:103BA000A41C214601A806F0EDFF009001A82044C6
:103BB000BDF800100180A41C224601A940F62E5039
:103BC00009F09CF97CBD2DE9FF414FF42F750020D1
:103BD000039002900024002601900027009002A884
:103BE0000119042240F62E5009F098F903A908198A
:103BF000022106F0C7FF064602A90819022106F0B5
:103C0000C1FF0746A41C03A820440088019002A815
:103C1000204400880090BDF8040086420BD19148F2
:103C2000BDF80C10A0F86910042203A940F62E502C
:103C300009F064F90CE0BDF80000874205D189481D
:103C4000BDF80810A0F8691002E02846FFF799FFB8
:103C5000BDE8FF818348B0F8690070470FB410B524
:103C6000A2B0842101A810F064FB00200090002481
:103C7000802224A97B48713010F0BAFA01A90819F2
:103C800080227849713110F0B3FA04F18000C4B297
:103C9000214601A806F076FF009001A82044BDF857
:103CA00000100180A01CC4B2224601A9B72007F071
:103CB000D6FD224601A9B72009F020F922B010BC98
:103CC0005DF814FB70B5ADF5007D8022664960A8F3
:103CD00010F0D3FA84213FA810F02BFB84211EA8FA
:103CE00010F027FB0024002500201D9000261C90CA
:103CF0003FA801198222B72007F0BCFD1EA80119B8
:103D00008222B72009F00AF93FA90819802106F09C
:103D100039FF05461EA90819802106F033FF064623
:103D200004F18000C4B23FA8204400881D901EA862
:103D3000204400881C90BDF8740085420BD180227D
:103D40003FA94848713010F053FA82223FA9B720AA
:103D500009F0D4F818E0BDF8700086420BD180223B
:103D60001EA94048713010F043FA82221EA9B720E4
:103D700007F075FD08E0702264A9684610F07DFA2E
:103D800060A80FC8FFF76AFF0DF5007D70BD10B584
:103D90000446802233497131204610F029FA10BDC3
:103DA0001FB586B0142101A810F0C3FA00200090BE
:103DB0000024102206A92B48F13010F019FA01A9AD
:103DC000081910222749F13110F012FA1034214657
:103DD00001A806F0D7FE009001A82044BDF800100D
:103DE0000180A41C224601A940F2391007F037FDDA
:103DF000224601A940F2391009F080F80AB010BD3E
:103E000070B594B019A30FCB10AC0FC400200C9068
:103E10000D900E900F90142107A810F08AFA14212B
:103E200002A810F086FA0024002500200190002648
:103E3000009007A80119122240F2391007F01AFD6C
:103E400002A80119122240F2391009F067F807A9F7
:103E50000819102106F096FE054602A9081910213E
:103E60000CE000001B7A0020C454050847313135AE
:103E700032313030303030303030303106F082FE88
:103E80000646103407A820440088019002A8204468
:103E900000880090BDF8040085420BD1102207A9CC
:103EA000FA4810F0A5F9122207A940F2391009F0DA
:103EB00025F819E0BDF8000086420BD1102202A9B6
:103EC000F24810F095F9122202A940F2391007F0D9
:103ED000C6FC09E010A80FC8CDE90E23CDE90C01FE
:103EE0000CA80FC8FFF75CFF14B070BD10B50446F6
:103EF0001022E649204610F07BF910BD08B5E348D2
:103F0000F13890F8010100909DF80010084608BDB6
:103F100011B583B00020029001900024DB48F138F5
:103F20009DF80C1080F8011102A80119D748F1384A
:103F300090F801010870641C214602A806F022FED8
:103F4000019002A82044BDF804100180A41C224660
:103F500002A9B42007F083FC224602A9B42008F08D
:103F6000CDFF1FBD70B586B0002005900490039072
:103F70000024002502900026019004A801190322C4
:103F8000B42007F077FC03A801190322B42008F03D
:103F9000C5FF04A90819012106F0F4FD054603A98F
:103FA0000819012106F0EEFD0646641C04A8204411
:103FB0000088029003A8204400880190BDF8080002
:103FC00085420BD1B148F1389DF8101080F80111ED
:103FD000032204A9B42008F091FF14E0BDF8040006
:103FE00086420BD1A948F1389DF80C1080F80111D8
:103FF000032203A9B42007F032FC04E0002005905E
:104000000598FFF785FFA148F13890F801010128D4
:1040100001D102F0C2FC06B070BD10B504464022CA
:104020009A491131204610F0E3F810BD30B59BB02D
:104030000546242112A810F07CF9002400201190DC
:1040400040229249113101A810F0D2F820222946CD
:1040500001A810F0CDF812A90819202201A910F02A
:10406000C7F82034214612A806F08CFD119012A842
:104070002044BDF844100180A41C224612A940F23D
:104080004B1007F0ECFB224612A940F24B1008F04F
:1040900035FF402201A97D48113010F0A9F81BB06E
:1040A00030BD70B59CB0242113A810F042F9242132
:1040B0000AA810F03EF900240025002009900026EF
:1040C000089020227249684610F0D7F813A8011909
:1040D000222240F24B1007F0CDFB0AA80119222240
:1040E00040F24B1008F01AFF13A90819202106F01E
:1040F00049FD05460AA90819202106F043FD064698
:10410000203413A82044008809900AA8204400887D
:104110000890BDF8240085420CD1202213A95B48E9
:10412000113010F065F8222213A940F24B1008F06C
:10413000E5FE13E0BDF8200086420CD120220AA93A
:104140005248113010F054F822220AA940F24B10C4
:1041500007F085FB02E06846FFF768FF1CB070BD02
:1041600030B59BB00546242112A810F0E2F80024D7
:104170000020119040224549113101A810F038F873
:104180002022294609A810F033F812A90819202284
:1041900009A910F02DF82034214612A806F0F2FCEF
:1041A000119012A82044BDF844100180A41C22469E
:1041B00012A940F26D1007F052FB224612A940F2FC
:1041C0006D1008F09BFE402201A93048113010F01C
:1041D0000FF81BB030BD70B59CB0242113A810F0AF
:1041E000A8F824210AA810F0A4F800240025002033
:1041F000099000260890202225492031684610F0B9
:104200003CF813A80119222240F26D1007F032FB8E
:104210000AA80119222240F26D1008F07FFE13A9AE
:104220000819202106F0AEFC05460AA9081920212C
:1042300006F0A8FC0646203413A820440088099004
:104240000AA8204400880890BDF8240085420CD1BB
:10425000202213A90D4831300FF0CAFF222213A9E2
:1042600040F26D1008F04AFE17E0BDF820008642CB
:1042700010D120220AA9054831300FF0B9FF2222BF
:104280000AA940F26D1007F0EAFA06E00C7B002064
:10429000445505086846FFF763FF1CB070BD70B554
:1042A0000024002500BF0AE0002503E008F03AF9E9
:1042B000681C85B2B5F57A7FF8DB601C84B2B4F572
:1042C0007A6FF1DB70BD10B5FFF7E9FFFFF74AFE2B
:1042D000FFF707FAFEF7C3FEFEF72EFFFFF736F9EA
:1042E000FFF78EF8FEF704FEFEF71AFE05F08FFECC
:1042F000FFF7B9FAFFF722FBFFF789FBFFF7F6FBA1
:10430000FFF761FCFFF7DEFCFFF77AFDFFF7C9FE60
:10431000FFF761FF10BD00002DE9F05F81460E46FA
:1043200017464FF0000816F80800012811D1CB48B5
:104330003A4601240025D0E904BA204629460FF068
:1043400005FF4BEA00024AEA0103C448C0E904231E
:1043500000BF00BFBDE8F09F2DE9F84F8946144625
:1043600000200090009819F80000012802D00228CF
:1043700027D111E0B948224601250026D0E906BA26
:10438000284631460FF0E2FE4BEA00024AEA0103FA
:10439000B248C0E9062314E0B048224601274FF096
:1043A0000008D0E906AB384641460FF0CFFE0A467A
:1043B000C1430AEA010A2BEA020BA848C0E906AB8E
:1043C00000BF00BFBDE8F88F2DE9F74F84B0144659
:1043D00000200090A148224601250026D0E908BA15
:1043E000284631460FF0B2FE4BEA00024AEA0103CA
:1043F0009A48C0E9082300990598405CF92850D0F4
:104400000CDCF6284AD004DC012810D0022860D148
:1044100024E0F72843D0F8285BD141E0FA2841D0C6
:10442000FB2840D0FC283FD0FD2852D13DE08B48EE
:10443000224601274FF00008D0E90ABA3846414623
:104440000FF084FE4BEA00024AEA010A8348C0E901
:104450000A2A0021824A116051603AE07F482246D0
:104460004FF00109D0E90CBA0020019048460199AB
:104470000FF06CFE4BEA00024AEA010A7748C0E9F5
:104480000C2AD0E90C10764BD3E9002CD343194009
:1044900020EA0C00714AC2E90C101AE000BF00BF0C
:1044A00000BF00BF00BF00BF00BF224601210020A7
:1044B000CDE90201084602990FF048FE684AD2E9A8
:1044C000003218431143664A03C2204600F02EFC16
:1044D00000BF00BF6149D1E90401604BD3E9082363
:1044E0005040594008430AD15C4890F850000128D8
:1044F00005D1022059490870012000F029FA5748D7
:10450000D0E90A10554BD3E90C23514058400143E0
:1045100007D1524890F85000022802D103204F4999
:10452000087007B0BDE8F08F2DE9FF5F0D46164615
:104530000024002002900190009028190088029029
:10454000A41C285D0190641C285D0090641C0098E8
:10455000062869D2DFE800F068034D4E4F0400BF23
:104560003E48D0E90E10002359405840014302D183
:1045700000203C4908703948324601274FF00008B6
:10458000D0E90EBA384641460FF0E0FD4BEA000292
:104590004AEA01033148C0E90E230146D1E90A0184
:1045A0002E4AD2E90E3258405140084320D12D48BE
:1045B0000078E8B901202B4908700020274981F8CC
:1045C0005C000846B0F85400401CA1F8540000F00C
:1045D0005BFA01280CD121490870002081F84800BD
:1045E00002211E4880F8501000214C3006F02CFBB0
:1045F0001AE000BF00BF194832464FF00109D0E968
:104600000EAB00200390484603990FF09FFD0A4629
:10461000C1430AEA010A2BEA020B1048C0E90EABBB
:10462000304600F083FB00BF00BFBDE8FF9F41F2B2
:10463000707006F021FB00BF06F0BCF907F072FFB6
:10464000042006F019FBF7E710B50C23064A0021F9
:10465000AFF2250007F040F910BD0000808B00206C
:1046600070000020780000207883002010B57021B1
:10467000FB480FF05EFEFBF72FFEFA4908600020B2
:10468000F949087010BD0020F84908707047F748D4
:104690000078401CF5490870704770B588B0064630
:1046A0000D460024684600F0C2FB01202855641C1A
:1046B00006202855641C9DF800002855641C9DF8B0
:1046C00001002855641C2819BDF802100180A41CA3
:1046D0002819BDF804100180A41C347008B070BD06
:1046E00070B588B006460D460024684600F09FFB72
:1046F00002202855641C06202855641C2919DDF861
:1047000006200A60BDF80A008880A41D347008B035
:1047100070BD70B588B006460D460024684600F0AE
:1047200086FB03202855641C06202855641C291983
:10473000039A0A60BDF810008880A41D347008B088
:1047400070BD70B588B006460D460024684600F07E
:104750006EFB04202855641C2855641C2919DDF8BB
:1047600012200A60BDF816008880A41D347008B0BD
:1047700070BD1FB501200390BD4903C9CDE90101FA
:10478000B748007800285AD1B54890F840000A2868
:1047900055D8C321B248443006F056FA01285CD1FE
:1047A0000021AF48443006F04FFAF0200090B148A5
:1047B000037801AA9DF80C10012007F0B4FA01A9B2
:1047C00003A8FFF76AFFF1200090AA48037801AA26
:1047D0009DF80C10012007F0A6FA01A903A8FFF725
:1047E0007FFFF1200090A348037801AA9DF80C10E8
:1047F000012007F098FA01A903A8FFF78AFFF1202A
:1048000000909C48037801AA9DF80C10012007F045
:104810008AFA01A903A8FFF794FFF12000909548B8
:10482000037801AA9DF80C10012007F07CFA8C484F
:1048300090F84000401C8A4981F840000DE088480B
:10484000007850B90120864908700121844880F819
:10485000501000214C3006F0F7F91FBD70B592B032
:1048600006460D460024684600F0E1FA202269461B
:1048700008A80FF002FDDDF83A001090BDF83E00E8
:10488000ADF84400764890F850002855641C28196B
:1048900010990160241D281911990160A41C34701D
:1048A00012B070BD70B588B004460D461646684615
:1048B00000F0BDFA9DF8010001281DD1012E02D0A3
:1048C000022E18D10BE067480068C467C0F880501A
:1048D0000022644909682C318A65CA650BE0002210
:1048E00060480068C267C0F880205E4800682C30CD
:1048F0008465C56500BF21E09DF8010002281DD137
:10490000012E02D0022E18D10BE0564800682C3040
:10491000046645660022534800682C308266C266F1
:104920000BE000224F4800682C30026642664D487A
:1049300000682C308466C56600BF00BF012E05D11B
:104940004A4801784748006880F8AC1008B070BD4C
:1049500010B588B00446684600F069FA4048A0F8EF
:104960005440042180F85610DDF81620601E02EB3A
:10497000800104223A48573007F03EFF08B010BDCE
:104980001FB50020039001900290354890F8500028
:10499000012803D14FF47A7037490860304890F805
:1049A0005000022803D14FF47A70334908602C4834
:1049B000007801283BD12A4890F84800032836DACD
:1049C0002748D0E9061000225140504001432ED024
:1049D0002948016822484C3006F036F9012852D1A6
:1049E00000211F484C3006F02FF901A903A8FFF75A
:1049F00035FFF22000902148037801AA9DF80C10A1
:104A0000012007F090F9164890F84800401C14491E
:104A100081F84800084690F85000012833D1084634
:104A20000122D0E906311846FFF73CFF2BE00C4885
:104A30000078012827D10A4890F8500001281FD19A
:104A40000748D0E90A10002359405840014317D0C5
:104A50000220034908700120FFF77AFF13E00000ED
:104A6000808B00207C000020940000209300002018
:104A7000845505088000002084000020810000206B
:104A80000320D94908701FBD70B592B00025684653
:104A900000F0CDF92022694608A80FF0EEFBDDF802
:104AA0003A001090BDF83E00ADF84400109C00267E
:104AB00014F0030F00D0012606EB94008400CA48CE
:104AC000B0F85400401EB4EB800F00D101252846F9
:104AD00012B070BD10B5024600200B18C24CB4F8DD
:104AE00054401C80801CC04B93F856300B54401C23
:104AF0000C18BD4BD3F857302360001D107010BD4B
:104B000008B5B9480078022861D10A21B64860305A
:104B100006F09AF801285AD10021B348603006F017
:104B200093F80020B04981F85C00084690F85C00DA
:104B300058B9B1F85400FFF70BFFAC49AC48FFF788
:104B4000C9FF0021A84A9163D163A74890F85C107F
:104B500090F85C00401CA44A82F85C00052914DB34
:104B60000020114681F85C00D1E90E01C2E90A017A
:104B7000FFF78AFF012808D19B490870002081F8BF
:104B800048000221984880F85010F320009099487E
:104B90000378964A96480178012007F0C4F89248B5
:104BA000B0F85400401C9049A1F85400FFF76CFF86
:104BB00001280CD18C490870002081F8480002219E
:104BC000894880F8501000214C3006F03DF808BDAF
:104BD000F0B5A1B0044600250026402111A80FF031
:104BE000A8FB002714B9844846880BE0601E81B2F8
:104BF00001A8FEF7F9FB402201A911A80FF03DFB27
:104C0000BDF85860002509E07C4830F81500B04236
:104C100002D00EB1012703E0681CC5B2302DF3DBD2
:104C200000BF384621B0F0BD10B5A8B001202790D4
:104C30000020259026901DA800F0F9F840210DA82D
:104C40000FF077FB6848007803286DD1642166482F
:104C5000683005F0F9FF012866D10021624868300C
:104C600005F0F2FF604890F8641090F86400401C72
:104C70005D4A82F864000A2925D310460222D0E951
:104C80000C311846FFF70EFE5D480078032804DA61
:104C90005C480078FFF79CFF68B9FF205249087014
:104CA0009DF87500012803D141F2883005F0E4FF3A
:104CB00000F0AEF803E0FFF7D9FCFFF7E8FC41F2A3
:104CC000707005F0D9FF9DF87500012803D1002010
:104CD0004C49087018E0BDF87800ADF83600102295
:104CE0000DF17A010EA80FF083FA2F2211A9684660
:104CF0000FF0C3FA0DA80FC8FEF74FFD4149087029
:104D000008460078401C08703E48027825A927A86C
:104D1000FDF797FFF42000903B48037825AA9DF803
:104D20009C10012006F0FFFF28B010BD30B595B0F3
:104D30000546002400201390149001A800F077F895
:104D4000202201A909A80FF098FADDF83E00119081
:104D5000BDF84200ADF84800FD2013A90855641CB9
:104D600013A8204411990160241D13A8204412990E
:104D70000160A41CF2202B4613AA214600900120BA
:104D800006F0D1FF15B030BD90B0202108A80FF07B
:104D9000D0FAFFF76BFCFFF776FC41F2707005F07C
:104DA0006BFF00BF684600F042F82022694608A861
:104DB0000FF063FA9DF8210038B1FFF7DAFCFFF736
:104DC000DFFDFFF79DFEFFF72FFF07F0ABFB052090
:104DD00005F052FFE6E710B50D230C4A0021AFF2B3
:104DE000570006F079FD10BD808B00208A0000205E
:104DF00089000020880000201B7A0020F08B002012
:104E00009300002095000020920000207C8B002061
:104E100010B5202126480FF06AFAFFF734FC10BDC8
:104E200010B5244806F07AF8FFF7F2FF10BD10B570
:104E3000044620221E49491E20460FF0D9F910BD14
:104E40000FB410B51B4806F0A8F804461A4901EB48
:104E50004411481C20210FF04AFA174901EB441075
:104E6000202202A90FF0C4F9134800EB44111148A5
:104E700006F062F810BC5DF814FB10B50C48401E3B
:104E80004078A0B90B4806F088F800280FDD0948E3
:104E900006F064F80446202221460548401E0FF023
:104EA000A7F9FFF7E3FBFFF7EEFBFFF7F0FB10BD01
:104EB0008D900020508C0020CC8C002010B5FBF78A
:104EC0000BFAFE490860FCF7C1FBFD49086010BD04
:104ED000FC48008870470146FB480180012070476C
:104EE000F9490988091200F8011BF749097800F807
:104EF000011B704700B502465A2010700120507007
:104F0000901CFFF7EDFF00BD30B504460D4623466B
:104F10000CB9002030BD84201880822098700220B7
:104F2000D870181DFFF7E6FF0120F3E702460B4695
:104F300011460AB900207047142008808320887029
:104F40000120C87000BFF6E770B506460C4615464E
:104F5000A54204DD291B301920220FF0C0F970BDD5
:104F600070B588B0054600240026D84903C9CDE9AC
:104F70000601D649083103C9CDE90401D3491031EE
:104F800003C9CDE90201002001902919CB4A12681A
:104F900092F8B10005F027FF0646A41C2919C74A5C
:104FA000126892F8B20005F01EFF0646A41C2919EB
:104FB000C24A126892F8B30005F015FF0646A41C19
:104FC000A41CBE48006890F8280010F0010F01D022
:104FD00006A800E007A80190281901990968016056
:104FE000241DB648006890F82800C0F3400008B1BE
:104FF00004A800E005A8019028190199096801603A
:10500000241DAE48006890F82800C0F3800008B165
:1050100004A800E005A80190281901990968016019
:10502000201DC4B2A548006890F82800C0F3C00055
:1050300008B102A800E003A80190281901990968A5
:105040000160201DC4B2281910229C4909680A3148
:105050000FF0CEF804F11000C4B22919974A126873
:10506000B2F92A000A2205F0C7FE064628190422D2
:105070003146FFF769FF201DC4B2204608B070BD5D
:1050800070B505460E462C460DB9002070BD4FF494
:10509000805020808220A070201DFFF761FF400813
:1050A000E0700120F2E72DE9F04F97B080460C4602
:1050B00001260027002003901825814602900190C8
:1050C0008246294640460FF012F97C480068D0F825
:1050D00074B0806F22460490584604990FF049F846
:1050E00000EA060201EA07004FF0000C82EA0C0217
:1050F00080EA0C00024302D000200390CDE16F480B
:105100000068C16FD0F880002246CDE9050108464D
:1051100005990FF02EF8304039400023584059408F
:10512000084302D004200390B7E1644800682C30A3
:10513000016E406E2246CDE90701084607990FF03F
:1051400018F830403940002358405940084302D0F5
:1051500008200390A1E1594800682C30016F406F8E
:105160002246CDE90901084609990FF002F83040BE
:105170003940002358405940084302D0052003908D
:105180008BE14E480068B630016A406A2246CDE99C
:105190000B0108460B990EF0ECFF3040394000231C
:1051A00058405940084302D00620039075E1434817
:1051B0000068416D806D2246CDE90D0108460D99CC
:1051C0000EF0D7FF30403940002358405940084383
:1051D00002D00A20039060E138480068C16D006E7B
:1051E0002246CDE90F0108460F990EF0C2FF30406C
:1051F0003940002358405940084302D00B20039007
:105200004BE12E480068416E806E2246CDE91101C7
:10521000084611990EF0ADFF304039400023584048
:105220005940084302D00720039036E12348006824
:10523000416B806B2246CDE91301084613990EF0AD
:1052400098FF30403940002358405940084302D06D
:105250000C20039021E119480068C16E006F2246BE
:10526000CDE91501084615990EF083FF304039400D
:10527000002358405940084302D00D2003900CE110
:1052800004EB840000EBC4010D48006800F5A87031
:1052900010F8310010F0010F7ED004EB840000EB19
:1052A000C4010748006800F5A87000EBC10090F841
:1052B0004A0014280CDC012003901EE09800002016
:1052C0009C000020120100201001002090550508CC
:1052D000FEF777FB04EB840101EBC402FE49096889
:1052E00001F5A87101EBC20191F84A10884202DD74
:1052F0000220039001E003200390002500222946AC
:105300006D1C08F8012029466D1C039A08F801203D
:1053100008EB050104EB840202EBC403EE4A1268B9
:1053200002F5A87202EBC302B2F811004FF47A72D0
:1053300005F062FD814608EB050006224946FFF7AD
:1053400003FEAD1D04EB840000EBC401E2480068DD
:1053500000F5A87000EBC100B0F813001FFA80FA46
:1053600004EB840000EBC401DB48006800F5A87082
:1053700000EBC100B0F91300002804DA6FEA0A005C
:10538000401C1FFA80FA08EB05014FF47A72504670
:1053900005F032FD814600E07DE008EB05000622C5
:1053A0004946FFF7D1FDAD1D08EB050104EB840272
:1053B00002EBC403C84A126802F5A87202EBC302EA
:1053C00092F84A0005F00FFD814608EB0500042223
:1053D0004946FFF7B9FD2D1D04EB840000EBC40125
:1053E000BD48006800F5A87000EBC100B0F80D00E2
:1053F00041F26F7188420BDD04EB840000EBC402C4
:10540000B548006800F5A87000EBC200A0F80D10C8
:1054100004EB840000EBC401AF48006800F5A870FD
:1054200000EBC100B0F80D003C2190FBF1F0C0B2E0
:10543000029004EB840000EBC401A748006800F56B
:10544000A87000EBC100B0F80D003C2190FBF1F218
:1054500001FB1200C0B2019008EB0501029805F0B3
:10546000C2FC814605EB0900C5B23A2008F80500E8
:10547000681CC5B208EB0501019805F0B4FC814633
:1054800005EB0900C5B208EB050006224946FFF707
:105490005BFD182501E009200390002088F800003A
:1054A000039888F80100284617B0BDE8F08F2DE971
:1054B000F04704460D46E8064FEA1069681CC0062E
:1054C0004FEA106A00260027A0464F4609E0A04692
:1054D000B04439464046FFF7E6FD3044C6B2781C7A
:1054E000C7B25745F3DB3046BDE8F08770B50546D7
:1054F0000E462C460DB9002070BD4FF4045000EB51
:10550000062020808220A0703146201DFFF7CFFFAB
:105510004008E0700120EFE77048008870470020E5
:105520006E490880704770B505460E462C460DB989
:10553000002070BD4FF4A85020808220A070012070
:10554000E070204602F080FF0120F2E702460B46A1
:1055500011460AB9002070474FF4A85008808320F4
:1055600088700120C87000BFF5E75C48408870472C
:1055700000205A494880704770B505460E462C46B3
:105580000DB9002070BD41F2105020808220A07023
:105590000120E070204602F057FF0120F2E70246AA
:1055A0000B4611460AB90020704741F2105008809E
:1055B000832088700120C87000BFF5E70021417882
:1055C00002784270017070472DE9F041C4B0054681
:1055D0000E464022424934A80EF04FFEB422404904
:1055E000403107A80EF049FE00200690142101A8C2
:1055F0000EF09FFE002400BF002700200090202214
:10560000862128460EF06BFE2022142101A80EF000
:1056100066FE2919701C05F0E6FB80462819022257
:105620004146FFF791FCA41C29192E480068026826
:105630000A6042684A60008908810A3428191022E9
:10564000284909680A310EF0D3FD1034281925497C
:105650000968D1F81A100160241D291906EB86008B
:1056600000EBC6021C48006800F5A87000EBC20001
:10567000D0F802000860241D28191A490968D1F8D9
:105680001E100160201DC4B2291906EB860000EB34
:10569000C6021148006800F5A87000EBC200D0F8FF
:1056A00006000860201DC4B2291906EB860202EB31
:1056B000C603094A126802F5A87202EBC302B2F9E6
:1056C0000F000A2205F098FB804628190622414661
:1056D000FFF73AFCA01D07E09C0000201401002009
:1056E000A855050898000020C4B206EB860000EB20
:1056F000C601FE48006800F5A87010F8310010F0EF
:10570000010F08D18224A4F13201202205F13200D8
:105710000EF0E5FD52E1291906EB860202EBC60305
:10572000F24A126802F5A87202EBC302B2F80B004B
:1057300005F059FB8046281904224146FFF704FC76
:10574000201DC4B2291906EB860202EBC603E74A04
:10575000126802F5A87202EBC302B2F80D0005F060
:1057600042FB8046281904224146FFF7EDFB201D2D
:10577000C4B2291906EB860202EBC603DB4A1268A3
:1057800002F5A87202EBC30292F84A0005F02BFB67
:105790008046281904224146FFF7D6FB201DC4B2DB
:1057A000291906EB860202EBC603D04A126802F5FD
:1057B000A87202EBC30292F85F0005F014FB80466A
:1057C00028190C224146FFF7BFFB04F10C00C4B2BC
:1057D00006EB860202EBC603C44A126802F5A87201
:1057E00002EBC30202F13A01281910220EF000FD6B
:1057F00004F11000C4B206EB860000EBC601BB4802
:10580000006800F5A87000EBC10090F8600009285E
:105810001ED2DFE800F01D05080B0E1114171A0048
:1058200034A8069017E036A8069014E038A8069031
:1058300011E03AA806900EE03CA806900BE03EA8C6
:10584000069008E040A8069005E042A8069002E015
:1058500001A8069000BF00BF281906990A680260D7
:105860004968416004F10800C4B206EB860000EB11
:10587000C6019E48006800F5A87000EBC100B0F8B2
:10588000610000906846FFF799FEBDF80000C0B2C5
:10589000BDF80010090A01EBC10202EB011100EB97
:1058A00081072919384605F09EFA804628190422F6
:1058B0004146FFF749FB201DC4B206EB860000EB12
:1058C000C6018A48006800F5A87000EBC100B0F876
:1058D000630000906846FFF771FEBDF80000C0B29B
:1058E000BDF80010090A01EBC10202EB011100EB47
:1058F00081072919384605F076FA804628190422CE
:105900004146FFF721FB201DC4B2291906EB860290
:1059100002EBC603754A126802F5A87202EBC302D5
:10592000B2F8650005F05FFA804628190822414662
:10593000FFF70AFB04F10800C4B206EB860000EB97
:10594000C6016A48006800F5A87000EBC10090F835
:105950006700122825D2DFE800F024090C0F121589
:10596000181B24242424242424241E2107A8069060
:105970001AE00CA8069017E011A8069014E016A8EB
:10598000069011E01BA806900EE020A806900BE000
:1059900025A8069008E02AA8069005E02FA8069002
:1059A00002E001A8069000BF00BF28191422069942
:1059B0000EF01EFC04F11400C4B200BF204644B037
:1059C000BDE8F0812DE9F04FC5B005460E465422E2
:1059D000474930A80EF051FC4822454954311EA8D1
:1059E0000EF04BFC542242499C3109A80EF045FCB4
:1059F00040A103C9CDE907014FF000084FF0010BAA
:105A00000020069000248146142101A80EF091FC8C
:105A10000027A2462022142101A80EF060FC06EB0C
:105A2000860000EBC6013148006800F5A87010F848
:105A3000310010F0010F05D15024214628460EF008
:105A400056FCD2E106EB860000EBC6012748006851
:105A500000F5A87000EBC10090F84F00302816D078
:105A600006DC012809D010280AD021281AD10BE021
:105A7000312810D0FF2815D110E030A8069014E08E
:105A80000DF1CE00069010E037A806900DE00DF164
:105A9000EA00069009E03EA8069006E00DF5837046
:105AA000069002E001A8069000BF00BF28190E2250
:105AB00006990EF09DFB0E34291906EB860202EBC7
:105AC000C6030A4A126802F5A87202EBC302B2F8D2
:105AD00011004FF47A7205F08FF9814628190622D9
